:020000040800F2
:10000000D0AB00200101000831440008AD280008F1
:1000100035430008170B0008418C00080000000061
:10002000000000000000000000000000FD52000879
:100030000B10000800000000654700088356000808
:100040001B0100081B0100081B0100081B01000820
:100050001B0100081B010008991500081B0100087E
:100060001B0100081B0100081B0100081B01000800
:100070001B0100081B0100081B0100081B010008F0
:100080001B0100081B0100081B0100081B010008E0
:100090001B0100081B0100081B0100081B010008D0
:1000A0001B0100081B0100081B0100081B010008C0
:1000B0001B0100081B0100081B0100081B010008B0
:1000C0001B0100081B0100081B0100081B010008A0
:1000D0001B010008A1850008F58500085586000869
:1000E0001B0100081B010008358C0008DFF80CD04C
:1000F00000F07AFC004800475DA70008D0AB002064
:100100000648804706480047FEE7FEE7FEE7FEE7B1
:10011000FEE7FEE7FEE7FEE7FEE7FEE7E55600083E
:10012000ED0000080649074A0868504343F23902C7
:10013000104408604008704701490860704700009B
:10014000100100206D4EC64140EA01039B0703D019
:1001500009E008C9121F08C0042AFAD203E011F806
:10016000013B00F8013B521EF9D2704730B50546FD
:100170000020034600E05B1C934205D2EC5CC85CA7
:10018000201A01D1002CF6D130BDF0B480EA010272
:10019000D40F4200B2EB410F02D20246084611468C
:1001A0004A0042D0C30DDDB2C1F3C752AD1A202DB3
:1001B00035DAC1F3160141F4000204B15242C5F12F
:1001C000200602FA06F12A411044B3EBD05F23D097
:1001D000C4B1012DA0EBC35009DCF0BC4FF00042CC
:1001E00002EAC35200F50000DBB200F02DBB400074
:1001F00000F1807000EBC350A0F1807040EAD17034
:10020000490009E0490841EAC071A0EBC35000F57C
:100210000000400800EBC350F0BC00F00CBB614292
:10022000012202EB4101001BF6E7F0BC704781F0B0
:100230000041AAE780F00040A7E780EA010210B57C
:1002400002F00043400026D04A0023D04FEA10615C
:1002500001EB1261C0F35600C2F3560240F40000F5
:1002600042F40002A0FB0220A1F17F014FEA00400E
:10027000140401D000F1010050EA124001D4400002
:10028000491EC2B20C0604EBD010401C4008802A64
:1002900002D003E0002010BD20F00100002900DAA8
:1002A0000020184310BD30B480EA010202F000457E
:1002B00030F0004221F0004015D0A0B1C0F3C75388
:1002C000C2F3C754C2F31601C0F31600E41A41F496
:1002D000000140F400027D34914201D3641C00E02F
:1002E0004900002C02DA30BC002070474FF40000B7
:1002F0000023914201D3891A034340084FEA410188
:10030000F7D151B1914202D14FF0004105E002D244
:100310004FF0010101E06FF0010103EBC4502844EC
:1003200030BC00F088BA2DE9FE4F804681EA030018
:10033000C00F0C46009021F0004123F00045B8EBBF
:100340000200A94105D24046214690461C460B4674
:10035000024623F00040104304D14046214603B03A
:10036000BDE8F08F270DC7F30A00C3F30A510290CE
:10037000401A0190402866DAC3F3130040F4801B52
:100380000098924620B10023D2EB030A63EB0B0BDB
:1003900001985946C0F14002504600F01BFA06464B
:1003A0000D4650465946019A00F033FA10EB08000A
:1003B0006141002487EA115284EAE7731A433BD073
:1003C000009A3AB3019A012A4FEA075210DC001B47
:1003D00061EB02014FF0004202EA0752CDE9004210
:1003E000001C41F5801132462B4600F067FAB6E753
:1003F000001B61EB0201001C41F5801300185B41FA
:100400002018A2F5001747EB030140EAD570B61992
:100410006D4111E06D084FEA360645EAC0754FEAB6
:100420000752001B61EB0201001C41F580114908D5
:100430004FEA30000019514132462B4603B0BDE867
:10044000F04F00F02EBA0098012240000023D0EBBC
:10045000020263EBE073009821464FEAE074B8EBC8
:10046000000061EB0401E9E783F000435BE781F002
:10047000004158E72DE9FE4F81EA030404F00044EF
:1004800021F0004100944FF0000B23F0004350EAAC
:10049000010402D052EA030404D10020014603B053
:1004A000BDE8F08FC3F30A54C1F30A552C44A4F2FB
:1004B000F3340194A0FB0254C1F3130141F4801101
:1004C000C3F3130343F4801301FB024400FB034E08
:1004D000840A970A44EA815447EA8357A4FB0768D1
:1004E00002958D0A05FB07854FEA932C04FB0C54FB
:1004F0002705029D4FEA065847EA1637B5EB08056F
:100500006EEB070C870E920E47EA811742EA8312C0
:10051000A7FB0201B6EB0B0164EB00042B0D43EAD1
:100520000C335E1844EB1C50DA465146E7FB0201DF
:10053000C5F313044FEA0B3343EA14534FEA043272
:10054000019C43EA0603A4F10C040294009CCDE94B
:1005500000B400F0B3F9A2E72DE9F04D81EA0304FD
:1005600004F0004B21F0004514464FF0000A23F040
:10057000004150EA050220D054EA01021DD0C5F323
:100580000A570246C5F31303C1F31300C1F30A5619
:1005900040F4801543F48013A7EB0608101BD646E1
:1005A00008F2FD3873EB050002D308F1010801E001
:1005B00092185B41B8F1000F03DA00200146BDE854
:1005C000F08D00204FF48011064684460EE0171B84
:1005D00073EB050705D3121B63EB050306434CEAD7
:1005E000010C49084FEA300092185B4150EA0107BC
:1005F000EDD152EA030012D082EA040083EA050139
:10060000084303D100224FF0004308E0101BAB4128
:1006100002D20122002302E06FF0010253101AEB14
:1006200006004CEB085110EB0A0041EB0B01BDE852
:10063000F04D00F036B9C10F80EAE0700844CA07F7
:100640009623002100F000B996230022114600F005
:10065000FBB80EB5C10F80EAE0700844CA0700215C
:1006600040F233438DE80E000A460B4600F026F9AF
:1006700003B000BD0EB540F2334102910021CDE937
:1006800000110A460B4600F019F903B000BD00F056
:10069000004220F00040C10DC0F3160040F40000FD
:1006A0007F2901DA00207047962903DCC1F1960109
:1006B000C84001E096398840002AF4D04042704793
:1006C00020F00040C10DC0F3160040F400007F2967
:1006D00001DA00207047962903DCC1F19601C84079
:1006E000704796398840704700F0004230F0004073
:1006F0000AD0C10D01F56071C0F3160042EA015144
:10070000C20840071143704700200146704701F0BE
:10071000004330B421F0004150EA010206D00A0D36
:10072000A2F56072C1F31301002A02DC30BC002084
:100730007047440F44EAC104C100E01830BC00EB2C
:10074000C25000F078B830B50B4601460020202298
:10075000012409E021FA02F59D4205D303FA02F5CE
:10076000491B04FA02F52844151EA2F10102F1DC2E
:1007700030BD2DE9F05F0546002092469B46884635
:100780000646814640241BE028464146474622460D
:1007900000F02FF853465A46C01A914110D3114623
:1007A0001846224600F016F82D1A67EB01084F464E
:1007B00022460120002100F00DF817EB00094E4100
:1007C000201EA4F10104DFDC484631462A46434698
:1007D000BDE8F09F202A04DB203A00FA02F1002055
:1007E00070479140C2F1200320FA03F3194390406F
:1007F0007047202A04DB203A21FA02F000217047DA
:1008000021FA02F3D040C2F1200291400843194678
:100810007047202A06DBCB17203A41FA02F043EA60
:10082000E07306E041FA02F3D040C2F120029140A9
:100830000843194670470029A8BF7047401C49006B
:1008400008BF20F00100704710B4B0FA80FC00FA35
:100850000CF050EA010404BF10BC704749B1CCF160
:10086000200421FA04F411FA0CF118BF01212143EC
:100870000843A3EB0C01CB1D0106000A002BBEBFF1
:10088000002010BC704700EBC35010440029A4BFE7
:1008900010BC7047401C490008BF20F0010010BC8C
:1008A000704710B5002B08DA401C41F10001921886
:1008B0005B411A4301D120F0010010BD2DE9F04D3C
:1008C00092469B4611B1B1FA81F202E0B0FA80F291
:1008D00020329046FFF77EFF04460F4640EA0A00AA
:1008E00041EA0B0153465A46084303D12046394694
:1008F000BDE8F08D114653EA010015D0C8F1400261
:100900005046FFF776FF05460E465046594642468A
:10091000FFF760FF084301D0012000E000200543FD
:1009200046EAE0762C4337430A984FEA4453A0EB5B
:1009300008004FEAD4240A304FF0000244EA47543A
:100940004FEAD72502D500200146D1E7010510194D
:100950006941DDE9084500196941BDE8F04DA0E7AE
:1009600070B521F0004303430CD0C1F30A550024B5
:10097000D5EB040564EB0403D617AD1AB34102DBD3
:100980000020014670BD201841EB025170BDC1F33B
:100990000A52C1F3130140F2FF3341F480119A422D
:1009A00002DA00200146704740F233439A42A2F235
:1009B000334202DC5242FFF71CBFFFF70BBF0000BF
:1009C00030B5002904DB4FF00044404264EB0101E4
:1009D000002B04DB4FF00044524264EB03039942C6
:1009E00008BF904230BD0000064C074D06E0E068AD
:1009F00040F0010394E8070098471034AC42F6D366
:100A0000FFF778FB88C50108A8C5010870B5C1F3D8
:100A10000A5201F000450024C1F3130140F2FF33F4
:100A200041F480119A4201DA002070BD40F2334354
:100A30009A42A2F2334203DC5242FFF7DAFE00E0B0
:100A400090402C43F1D0404270BD000082B02DE9AF
:100A5000FF1FEFF3038001B4684600F1400000E996
:100A600001400C480168C1F800D00B48D0F800D014
:100A700001BC80F30388BDE8FF1F01B000BD06483C
:100A8000D0F800D001BC80F30388BDE8FF1F01B09F
:100A900000BD00004C0000204800002001461F223D
:100AA00002EA11404FF6FF7202EA80103F2202EA8A
:100AB000112210434FF6FF7202EA401001F01F02AC
:100AC0001043704706E04FF47A7100BF0A00A1F1AD
:100AD0000101FBD10200A0F10100F4D17047F0B593
:100AE000034600201C460D46104603E014F8016B37
:100AF00005F8016B1600A2F10107BAB2F6D1F0BDFC
:100B000030B5034601E003F8011B1400A2F1010512
:100B1000AAB2F8D130BD00BFFEE770B504460B465F
:100B20001546002200210CE0A05C5E5CB04204D1BE
:100B3000501C82B2481C81B203E0501A401C82B2A1
:100B40000021281EA5F1010501DD012000E00020A3
:100B50005E5C002E01DD012600E000263042E3D17C
:100B6000585C08B9104670BD0020FCE770B505461A
:100B70000E46144614B1012C0ED106E00023074A9C
:100B80003146284602F066FB06E00123034A31465F
:100B9000284602F05FFB00BF00BF70BD0EB4010825
:100BA000F0B504460F4617B1022F60D11AE00025B8
:100BB00014E000260DE06288A37905FB032291B2C0
:100BC000228806FB032290B20022FFF7CFFF701CA1
:100BD00086B26079B042EEDC681C85B22079A8420A
:100BE000E7DC44E000253EE0A06830F81500E1684D
:100BF00031F81510884234D0002629E0A06830F87A
:100C000015100120B0400840E16831F815100122AC
:100C1000B2401140884219D0A36833F815304FF024
:100C2000010C0CFA06FC13EA0C0F01D0012300E0C2
:100C300000231A46638894F806C005FB0C3399B26A
:100C4000238806FB0C3398B2FFF790FF701C86B226
:100C50006079B042D2DCA06830F81500E16821F874
:100C60001500681C85B22079A842BDDC00BF00BF1A
:100C7000F0BD000070B58EB0044638220F496846BA
:100C8000FFF762FA2046E11704EB1171C1F3071573
:100C9000E11704EB11710911A4EB0111CEB2072D7C
:100CA00002DB00200EB070BD042E01DB0020F9E74E
:100CB000684600EBC50030F81600F3E760BC010899
:100CC0002DE9F05F04460F463846FFF7D3FF814613
:100CD0006079A17948430A301FFA80FA6088401C85
:100CE0001FFA80FB002624E04FEA29384FF6FF70F8
:100CF00000EA0919002518E0C5F1020C012303FAE6
:100D00000CF303EA0803002B01DD012300E00023BC
:100D10001A46A37903FB06B399B2A37903FB05A393
:100D200098B2FFF723FF681CC5B2032DE4DB701CEB
:100D3000C6B2042ED8DBBDE8F09F00002DE9F043D9
:100D400089B004460E461C22474902A8FFF7FCF969
:100D500046480068408C6188401A062190FBF1F0FB
:100D600000F0FF0816F0010F54D04149887F04F0CD
:100D70005DFF00254CE0607CA84204D106F06EFEC9
:100D80000121417003E006F069FE0021417003205B
:100D9000DFF8D8C00090DCF800C0BCF81E9005F168
:100DA000010C0CFB089C1FFA8CF3DFF8C0C0DCF8C8
:100DB00000C0BCF81EC005FB08CC1FFA8CF1DFF8A0
:100DC000ACC0DCF800C0BCF82020DFF8A0C0DCF824
:100DD00000C0BCF820C0ACF1640C1FFA8CF004F029
:100DE000EDFFA07C042801D1012000E000200DB916
:100DF000012100E00021084203D0089803F0B4FC70
:100E000004E002A951F8250003F0AEFC681CC5B24D
:100E1000062DB0DB16F0040F1ED006F01FFE8189F0
:100E200006F01CFEC089814203D106F017FE8789B7
:100E300001E00F48878B637994F806C003FB0CF33D
:100E40009B1C98B26388C3F1F1039AB263889B1E1E
:100E500099B23B4601F037FF06F000FE00214170D9
:100E600009B0BDE8F083000098BC0108F80000203C
:100E7000C89D002010B50446002006F0CBF9227969
:100E80000248A168FFF72BFE10BD0000EE9D002078
:100E9000F0B502460B46272B12D101201074907D2D
:100EA000401C9075107D401C1075D07D947D40EAEB
:100EB0000410C4B2557D681C507502F118004455E9
:100EC000252B12D102201074907D401E9075107D4C
:100ED000401C1075D07D947D40EA0410C4B2557D4D
:100EE000681C507502F118004455282B12D10320BC
:100EF0001074D07D401CD075107D401C1075D07DC5
:100F0000947D40EA0410C4B2557D681C507502F10E
:100F100018004455262B12D104201074D07D401E99
:100F2000D075107D401C1075D07D947D40EA041072
:100F3000C4B2557D681C507502F11800445500215B
:100F400005E00020946824F81100481CC1B2107913
:100F50008842F6DC00212AE0557D6E1A02F1180560
:100F6000A85DC51700EB15752D11A0EB051596684A
:100F700036F81550567D771A02F11806F45DE6171B
:100F800004EB167637110126BE403543AEB2557DCF
:100F90006F1A02F11805E85DC51700EB15752D11E4
:100FA000A0EB0515976827F81560481CC1B2107DA5
:100FB0008842D1DC0020F0BD02E0002200F8012BC5
:100FC0000A00A1F1010399B2F7D1704770B5054647
:100FD0000C46284601F07AF90646204601F076F9DB
:100FE000864201D0002070BD07E015F8011B14F8FF
:100FF000012B914201D00020F5E7287810B120782C
:101000000028F2D10120EEE77047704701B502E0F9
:101010000098401E009000980028F9D108BD0000FB
:1010200010B500201A4908704FF4A07003F0C2F9FF
:1010300018490860002406E0FF20174908551749A1
:101040000855601CC4B2052CF6DB00241DE000200E
:101050001049096801EB4411486103200D490968F2
:1010600001EB4411087200200A49096801EB4411A0
:1010700008610849096801EB4411C860054909681D
:1010800001EB44118861601CC4B20A2CDFDB10BD87
:101090006C00002070000020280000202D0000209F
:1010A0002D4800782D4908702B480078401C2A49AB
:1010B00008702A4800782A490968284A127801EB02
:1010C0004211087127A126480068244A127800EBD3
:1010D00042100160002022490968204A127801EB81
:1010E0004211487102201E4909681C4A127801EB1E
:1010F0004211C87101211A480068184A127800EBA1
:10110000421001721A4816490968144A127801EB14
:1011100042114861174912480068104A127800EBE2
:101120004210C16114490E4800680C4A127800EB65
:101130004210C16011480A490968084A127801EB57
:1011400042110861002106480068044A127800EB49
:1011500042108161704700006C0000207D0000207B
:1011600070000020494F5F4472697665720000008C
:10117000CD1A0008842A01084D2900081129000809
:10118000244800782449087022480078401C2149EE
:10119000087022A0224909681F4A127801EB421107
:1011A000086000211E4800681B4A127800EB4210BC
:1011B000417103201A490968174A127801EB42115C
:1011C000C871012116480068134A127800EB4210DA
:1011D00001721448124909680F4A127801EB421152
:1011E000486111480E4909680B4A127801EB421117
:1011F000C8600E490A480068074A127800EB42109E
:101200000161002106480068034A127800EB421091
:10121000816170476C0000207C0000204C4344003A
:101220007000002071240008A7310008A5310008D3
:1012300070B50546284607F099FB04465F48005DF7
:10124000FF2808D15E4800785C4908555C48007862
:10125000401C5B4908705BA05849095D5B4A1268F5
:1012600002EB4111086000205449095D574A126899
:1012700002EB4111487101205049095D534A12683F
:1012800002EB4111C87103204C49095D4F4A1268B5
:1012900002EB411108724E484849095D4B4A1268F9
:1012A00002EB411148614548005D4849096801EB7E
:1012B0004010C46147494148005D444A126802EB4E
:1012C0004010C16044483D49095D404A126802EB44
:1012D0004111086100213948005D3C4A126802EB67
:1012E0004010816100203D4921F814004FF49670B0
:1012F00003F060F83A4941F82400284607F036FB2D
:1013000004463848005DFF2808D12D48007835494B
:1013100008552B480078401C2949087032A03149F3
:10132000095D2A4A126802EB4111086000202D492C
:10133000095D264A126802EB4111487101212948D2
:10134000005D224A126802EB4010C171032025495A
:10135000095D1E4A126802EB411108721C492148BE
:10136000005D1A4A126802EB401041611D48005DA1
:101370001649096801EB4010C46116481949095D16
:10138000124A126802EB4111C86013481549095D01
:101390000E4A126802EB4111086100201149095DF3
:1013A0000A4A126802EB411188614FF4967003F00B
:1013B00001F80F4941F8240070BD00002D00002005
:1013C0006C000020555341525278000070000020FC
:1013D000FD860008F58B0008158B000840010020F1
:1013E0001801002028000020555341525478000075
:1013F0002C010020284800782849087026480078E9
:10140000401C2549087026A027490968234A1278FC
:1014100001EB421108600020234909681F4A127835
:1014200001EB4211487103201F4909681B4A1278D9
:1014300001EB4211C87101211B480068174A12785C
:1014400000EB42100172194817490968134A1278D3
:1014500001EB421148610021134800680F4A1278DD
:1014600000EB4210C16112490F4800680B4A127824
:1014700000EB4210C1600F490B480068074A127820
:1014800000EB42100161002007490968034A127805
:1014900001EB4211886170476C0000207F00002042
:1014A00057323551313600007000002001510008DC
:1014B0009D8C0008898C000810B5032124A0FFF73B
:1014C000A3FD002441E02948006800EB4410406976
:1014D000C8B32648006800EB4410C079012806D044
:1014E000022817D003280ED004282BD11EE01F4A53
:1014F000126802EB4412107F1C4A126802EB44127D
:10150000516988471EE01949096801EB441148698F
:10151000804717E0154A126802EB4412D069134A5B
:10152000126802EB4412516988470BE00F4A1268B7
:1015300002EB4412D0690D4A126802EB4412516961
:10154000884700BF00BF601CC4B20A2CBBDB10BDC3
:10155000546F732044657669636520496E69742E03
:101560002E2E2E2E2E2E2E2E2E000000700000204D
:101570002DE9FE4704460D4616461F46DDE90C9A46
:10158000DDF82C803B463246294620468DE8000790
:1015900000F04CF9BDE8FE87012000F003F801F0EF
:1015A00045FE000001490860704700001404014036
:1015B00030B5044604254FF4302000F06FF805469E
:1015C000042D17D10C48006940F002000A49086157
:1015D00008464461006940F0400008614FF4302043
:1015E00000F05CF805460448006941F6FD710840CA
:1015F00001490861284630BD0020024004200B4903
:10160000C96811F0010F01D001200EE00749C96837
:1016100011F0040F01D0022007E00449C96811F05D
:10162000100F01D0032000E004207047002002408A
:101630000348006940F080000149086170470000DC
:101640000020024070B504460D460426F00200F06A
:1016500025F80646042E11D10948006940F0010022
:10166000074908612580F00200F018F80646044892
:10167000006941F6FE71084001490861304670BDBD
:101680000020024002480349486003484860704710
:101690002301674500200240AB89EFCD00B502462B
:1016A0000423FFF7ABFF034603E0FFF7A7FF034662
:1016B000521E012B01D1002AF7D102B90523184689
:1016C00000BD00B597B0002001900290012003906A
:1016D000002004900590069007900890099008203B
:1016E0000A9010200B9000200C900E900F901090FC
:1016F0004FF480501190002012901390149001A884
:101700001590169008A800F021F80121002000F0A3
:1017100003F817B000BD000051B14FF0204252F85D
:10172000202042F001024FF0204343F8202009E03E
:101730004FF0204252F82020034B1A404FF0204334
:1017400043F8202070470000FEFF0F00D0E901128F
:101750001143C2681143026911434269114382690E
:101760001143C2691143026A1143426A1143826AFA
:101770001143C26A1143026B11434FF020430268C8
:1017800043F822108168082908D11A46016852F8E6
:10179000211041F04001026843F82210416B0968B2
:1017A000426B526841EA0211426B926841EA02219F
:1017B000426B928941EA0241426B128A41EA02512C
:1017C000426B127D41EA0261426B926911430268E9
:1017D000521C4FF0204343F82210C16AB1F5804FEC
:1017E0001AD1816B0968826B526841EA0211826BDF
:1017F000926841EA0221826B128A41EA0251826BAD
:10180000127D41EA0261826B92691143026803EB27
:101810008202C2F8041108E06FF070414FF02043DB
:10182000026803EB8202C2F8041170472DE9F04F01
:1018300080460C4615461E46DDF824B0C2463019D7
:1018400083B2E81D82B23146284603F011FE4FF004
:10185000000918E000270EE00120B8409AF80010B7
:10186000084203D00A48A0F800B002E008490A98EC
:101870000880781CC7B2082FEEDB0AF1010A09F1D3
:10188000010000F0FF09A145E4DBBDE8F08F000096
:10189000000002602DE9F04304460D4616461F463F
:1018A000DDF81C803B4632462946204603F0E0FD29
:1018B000301B791B00FB01F902E00548A0F800800D
:1018C0005FEA0900A9F10109F7D1BDE8F083000042
:1018D0000000026070B50B46044603E014F8015B9B
:1018E00003F8015B1500A2F10106B2B2F6D170BD9A
:1018F0002DE9F0470646884614460027C14601F008
:1019000003F82046E11704EBD151C1F34F27E1174B
:1019100004EBD1514912B4EB412101D0781C87B2BC
:10192000002507E04FF4007101FB076000F0DAFFCB
:10193000681C85B2BD42F5DB002508E039F8021BC2
:101940002A466B1C9DB206EB420000F0D5FF20003A
:10195000A4F101018CB2F1D100F0CAFFBDE8F0871B
:1019600070B504460025107820B116782068B0FBC9
:10197000F6F085B22068084420601078984203DAB7
:101980001078401C107002E02068401B2060167820
:101990002068B0FBF6F080B270BD0FB438B50446D5
:1019A00006A800902046009A059907F0C5FB002084
:1019B000009038BC5DF814FB2DE9F041024600258B
:1019C0000026002000230024002791F803C00CF01B
:1019D0000F0591F803C01CF0100F03D091F802C05E
:1019E0004CEA050591F800C0BCF1000F31D0146835
:1019F00000202BE04FF0010C0CFA00F3B1F800C00E
:101A00000CEA03069E4220D183004FF00F0C0CFA23
:101A100003F7BC4305FA03FC4CEA040491F803C045
:101A2000BCF1280F06D14FF0010C0CFA00FCC2F8F3
:101A300014C00AE091F803C0BCF1480F05D14FF083
:101A4000010C0CFA00FCC2F810C0401C0828D1D3CD
:101A50001460B1F800C0BCF1FF0F34DD5468002001
:101A60002EE000F1080C4FF0010808FA0CF3B1F871
:101A700000C00CEA03069E4221D183004FF00F0CF8
:101A80000CFA03F7BC4305FA03FC4CEA040491F892
:101A900003C0BCF1280F05D100F1080C08FA0CF8BE
:101AA000C2F8148091F803C0BCF1480F07D100F1CF
:101AB000080C4FF0010808FA0CF8C2F81080401C1E
:101AC0000828CED35460BDE8F081000038B5044644
:101AD00036E01D4A6068811A904217D009DC1B4924
:101AE00040180DD0B0F5806F0CD0B0F5006F13D159
:101AF0000AE0B1F5806F0BD0B1F5006F0CD109E0B1
:101B0000042509E0082507E0102505E0202503E06D
:101B1000402501E0802500BF00BF45F00100012104
:101B200003F0DEF820788DF802002089ADF800007F
:101B300060788DF8030069466068FFF73DFF0C345C
:101B400020780028C5D138BD0014014000F8FEBF40
:101B50000246002093680B4201D0012000E00020E3
:101B6000704741617047016170470246002105E0FE
:101B7000505C08B908467047481C81B24FF6FF70A8
:101B80008142F5DB00BFF6E7014600200A78302AE3
:101B900001DB012200E000220B78392B01DC01235C
:101BA00000E000231A4203D00A781207100E24E046
:101BB0000A78412A01DB012200E000220B78462B43
:101BC00001DC012300E000231A4204D00A78D21F6E
:101BD0001207100E11E00A78612A01DB012200E0F1
:101BE00000220B78662B01DC012300E000231A425F
:101BF00003D00A78D21F1207100E4A78302A01DB70
:101C0000012200E000224B78392B01DC012300E0A7
:101C100000231A4204D04A78303A0244D0B224E079
:101C20004A78412A01DB012200E000224B78462B52
:101C300001DC012300E000231A4204D04A78373A3D
:101C40000244D0B211E04A78612A01DB012200E0AF
:101C500000224B78662B01DC012300E000231A42AE
:101C600003D04A78573A0244D0B2704770B59AB060
:101C700005460E46002440A20021284608F014FD27
:101C800004464DA22146284608F00EFD04464CA20B
:101C90002146284608F008FD04464B4A21462846BE
:101CA00008F002FD044649A22146284608F0FCFC43
:101CB00004464CA22146284608F0F6FC0446424A57
:101CC00048322146284608F0EFFC04463E4AC0321E
:101CD0002146284608F0E8FC0446314601A801F0F8
:101CE00005FF01AA2146284608F0DEFC044649A269
:101CF0002146284608F0D8FC04464CA22146284636
:101D000008F0D2FC04464EA22146284608F0CCFC3E
:101D100004464EA22146284608F0C6FC044654A2BA
:101D20002146284608F0C0FC044657A22146284612
:101D300008F0BAFC0446604A2146284608F0B4FC84
:101D400004465EA22146284608F0AEFC04465EA288
:101D50002146284608F0A8FC04465DA221462846F4
:101D600008F0A2FC04465CA22146284608F09CFC30
:101D7000044620461AB070BD485454502F312E30BE
:101D800020323030204F4B0D0A436F6E74656E74F5
:101D90002D547970653A20746578742F68746D6C71
:101DA0000D0A507261676D613A206E6F2D63616339
:101DB00068650D0A0D0A00003C68746D6C3E0000F9
:101DC0003C686561643E000004BD01083C746974B0
:101DD0006C653EC7EBCAE4C8EB3C2F7469746C6554
:101DE0003E0000003C626F6479206261636B677241
:101DF0006F756E643D687474703A2F2F3139322ECE
:101E00003136382E302E332F696D6731322E6A709D
:101E1000673E00003C2F464F4E543E3C2F535452D9
:101E20004F4E473E3C2F503E3C503E003C485220D7
:101E3000636F6C6F723D236666303030303E000059
:101E40003C63656E7465723E000000003C666F7214
:101E50006D20616374696F6E3D22696E70757422C6
:101E6000206D6574686F643D22706F7374223E004C
:101E70003C5020616C69676E3D63656E74657220CD
:101E80003E3C62723E0000003C494E505554207367
:101E900074796C653D22464F4E542D53495A453A4C
:101EA00020373270743B2057494454483A2035302B
:101EB000307078220000000038BE01083C2F6365B6
:101EC0006E7465723E0000003C2F666F726D3E00BE
:101ED0003C2F626F64793E003C2F68746D6C3E004D
:101EE0002DE9F0419AB007460C46002564A0006831
:101EF0000090002663A20021384608F0D5FB054675
:101F000070A22946384608F0CFFB05466FA2294645
:101F1000384608F0C9FB05466E4A2946384608F09F
:101F2000C3FB05466CA22946384608F0BDFB0546B2
:101F30006FA22946384608F0B7FB05466EA229462F
:101F4000384608F0B1FB0546624AC0322946384699
:101F500008F0AAFB054601F027FDD0F800804246B4
:101F60002946384608F0A0FB05466FA229463846A8
:101F700008F09AFB054672A22946384608F094FB01
:101F8000054674A22946384608F08EFB05464CE00B
:101F900073A22946384608F087FB05467D4A294644
:101FA000384608F073FB05467B4A2946384608F058
:101FB0006DFB054679A22946384608F067FB0546C1
:101FC000642096FBF0F100FB11600A2190FBF1F018
:101FD0003030C0B28DF800003046711CCEB20A21FC
:101FE00090FBF1F201FB12003030C0B28DF801001D
:101FF0006A462946384608F049FB054668A2294644
:10200000384608F051FB0546214601A801F06EFD57
:1020100001AA2946384608F047FB054661A2294631
:10202000384608F041FB05460C34207A0028AFD131
:1020300060A22946384608F037FB054660A22946CB
:10204000384608F031FB05465DA22946384608F0BF
:102050002BFB05465CA22946384608F025FB0546C1
:102060005BA22946384608F01FFB05465AA22946BE
:10207000384608F019FB054628461AB0BDE8F0813D
:1020800030310000485454502F312E30203230303F
:10209000204F4B0D0A436F6E74656E742D5479702A
:1020A000653A20746578742F68746D6C0D0A5072EF
:1020B00061676D613A206E6F2D63616368650D0A1B
:1020C0000D0A00003C68746D6C3E00003C68656160
:1020D000643E000004BD01083C7469746C653E57A1
:1020E000656220CAB5D1E93C2F7469746C653E0005
:1020F0003C2F686561643E003C626F6479206261D8
:10210000636B67726F756E643D687474703A2F2FDD
:102110003139322E3136382E302E332F696D6731FA
:10212000322E6A70673E00003C2F464F4E543E3CB4
:102130002F5354524F4E473E3C2F503E3C503E0092
:102140003C485220636F6C6F723D236666303030BE
:10215000303E00003C5354524F4E473E00000000BA
:102160003C5020616C69676E3D6C6566743E3C4610
:102170004F4E5420636F6C6F723D23666630303073
:10218000302073697A653D373E3C41206872656650
:102190003D220000AF000020CC0000202F000000F6
:1021A000223E00003C2F413E3C2F464F4E543E3CC9
:1021B0002F503E003C2F5354524F4E473E000000DC
:1021C0003C62723E000000003C48523E00000000AD
:1021D0003C2F626F64793E003C2F68746D6C3E004A
:1021E0000FB438B5044606A800902046009A059919
:1021F00006F0A2FF00200090204600F067F8C0B271
:1022000038BC5DF814FB00002DE9FC5F0546002694
:10221000B346B1464FF07E5A44E015F8014B2D2CE1
:1022200001D101263EE02E2C02D14FF0010B39E006
:10223000302C2EDB392C2CDCBBF1000F0ED11F49CA
:102240004846FDF7FAFF8146A4F13000FEF7F3F9A6
:1022500007464946FDF799FF814623E05046FEF7C1
:1022600043FA0746164A174BFEF704F9CDE9000179
:10227000FEF74DFA8246A4F13000FEF7DCF9804605
:102280005146FDF7DAFF07464946FDF77EFF8146D6
:1022900008E026B10C494846FDF7CFFF8146484685
:1022A000BDE8FC9F28780028B7DC26B106494846DF
:1022B000FDF7C3FF81464846F2E7000000002041D9
:1022C0009A9999999999B93F000080BF10B5014634
:1022D00000200A4601E0431C98B212F8014B002C82
:1022E000F9D110BD002000210CE001EB4102074BA9
:1022F0001B6803EB02121289012A01D0421CD0B2E2
:102300004A1CD1B21429F0DB7047000060000020A5
:1023100010B50246104605E00378802B01DD801CD5
:1023200000E0401C0B00A1F10104E1B2F4D110BDAA
:102330000246002039B950784FF6FF7303EA0020B7
:102340001378184306E010784FF6FF7303EA002075
:10235000537818437047000030B50446EF2340F22D
:102360003F120021084603F083F8002502E00348ED
:1023700004806D1CB5F5963FF9D330BD00000260B6
:1023800008B501217C2002F0ABFC2020ADF8000054
:1023900010208DF8030003208DF8020069463148B3
:1023A000FFF70AFB42F24800ADF8000069462E48EC
:1023B000FFF702FB0120ADF8000069462B48FFF74C
:1023C000FBFA0220ADF8000069462848FFF7F4FA4E
:1023D0004CF23370ADF8000003208DF80200182095
:1023E0008DF8030069462048FFF7E6FA4FF6807043
:1023F000ADF8000069461D48FFF7DEFA8020ADF811
:10240000000069461848FFF7D7FA4FF40060ADF8AE
:10241000000069461448FFF7CFFA80211248FFF701
:10242000A2FB4CF203011048FFF79DFB4FF4F06153
:102430000E48FFF798FB01210C48FFF792FB0221A1
:102440000A48FFF78EFB10210748FFF78CFB20217D
:102450000548FFF788FB4FF400510348FFF781FB65
:1024600008BD0000001001400014014000180140A8
:1024700010B5FFF785FF0121080202F011FC0121D0
:10248000084602F02DFCFFF71CF90221FE48FFF779
:1024900068FBFE48FEF7BAFD0221FB48FFF763FB2D
:1024A000FA48FEF7B3FD1420FEF7B0FDCF204FF041
:1024B000C04108801420FEF7A9FD0020F4490880DF
:1024C0001420FEF7A3FD8120F14908801420FEF7B7
:1024D0009DFD3020EE4908801420FEF797FDED2089
:1024E0004FF0C04108801420FEF790FD6420E849B9
:1024F00008801420FEF78AFD0320E5490880142097
:10250000FEF784FD1220E24908801420FEF77EFDCC
:102510008120DF4908801420FEF778FDE8204FF085
:10252000C04108801420FEF771FD8520D84908803D
:102530001420FEF76BFD1020D54908801420FEF70B
:1025400065FD7820D24908801420FEF75FFDCB207E
:10255000410708801420FEF759FD3920CC49088036
:102560001420FEF753FD2C20C94908801420FEF7E3
:102570004DFD0020C64908801420FEF747FD342099
:10258000C34908801420FEF741FD0220C04908809D
:102590001420FEF73BFDF7204FF0C04108801420C7
:1025A000FEF734FD2020BA4908801420FEF72EFDE6
:1025B000EA204FF0C04108801420FEF727FD0020DC
:1025C000B34908801420FEF721FD0020B04908809F
:1025D0001420FEF71BFDB1204FF0C04108801420ED
:1025E000FEF714FD0020AA4908801420FEF70EFD16
:1025F0001B20A74908801420FEF708FDB62001071C
:1026000008801420FEF702FD1420FEF7FFFC0A20CC
:102610009F4908801420FEF7F9FCA2209C490880FD
:102620001420FEF7F3FC1420FEF7F0FCC020C105D7
:1026300008801420FEF7EAFC352095490880142014
:10264000FEF7E4FCC1204FF0C04108801420FEF7E3
:10265000DDFC11208E490880C5204FF0C041088064
:1026600045208B4908801420FEF7D0FC452088497E
:102670000880C7204FF0C04108801420FEF7C6FC38
:10268000A22083490880F2204FF0C0410880142026
:10269000FEF7BCFC00207E4908801420FEF7B6FC43
:1026A0002620010708801420FEF7B0FC012078499D
:1026B00008801420FEF7AAFCE0204FF0C0410880FB
:1026C0001420FEF7A3FC0F20714908802620088003
:1026D000242008800B2008800E2008800920088014
:1026E00054200880A8200880462008800C200880FC
:1026F00017200880092008800F2008800720088004
:10270000002008801420FEF781FCE1204FF0C0413A
:10271000088000205E490880192008801B2008805E
:102720000420088010200880072008802A200880C4
:102730004720088039200880032008800620088070
:10274000088030200880382008800F20088014205E
:10275000FEF75CFC3620010708801420FEF756FCCB
:1027600068204B4908801420FEF750FC2A204FF0C7
:10277000C04108801420FEF749FC0020444908802D
:102780001420FEF743FC0020414908801420FEF786
:102790003DFC01203E4908801420FEF737FC3F2015
:1027A0003B4908801420FEF731FC1420FEF72EFC74
:1027B0002B20410708801420FEF728FC0020344914
:1027C00008801420FEF722FC0020314908801420E4
:1027D000FEF71CFC00202E4908801420FEF716FC92
:1027E000EF202B4908801420FEF710FC3A204FF010
:1027F000C04108801420FEF709FC552024490880B8
:102800001420FEF703FC11204FF0C0410880142073
:10281000FEF7FCFB1420FEF7F9FB29204FF0C04126
:1028200008801420FEF7F2FB1420FEF7EFFB1420C3
:10283000FEF7ECFB1420FEF7E9FB1420FEF7E6FBA5
:102840001420FEF7E3FB1420FEF7E0FB1420FEF754
:10285000DDFB1420FEF7DAFB1420FEF7D7FB142073
:10286000FEF7D4FB1420FEF7D1FB002002F020FE7F
:10287000002002F01DFE002002F01AFE002002F0EF
:1028800017FE2C20C10605E000180140FCBF020025
:10289000000002600880002404E000204FF0C041E6
:1028A0000880641CB4F5963FF7D310BD01E000F03A
:1028B000BDFCFCE770B50646344635460DE0207891
:1028C000252806D1601CFFF75FF905F8010BE41C11
:1028D00003E014F8010B05F8010B20780028EED175
:1028E000287070BD10B504462046FEF761FE10BD8D
:1028F00010B5FEF79DFE10BD70B504460D46294685
:102900002046FEF79FFE70BD10B5FEF7BBFE10BD62
:102910002DE9F04105460E4617462C460020207052
:1029200020210948FFF714F918B9207840F0010078
:10293000207040210448FFF70BF918B9207840F0C7
:1029400002002070BDE8F081001801402DE9F0413F
:1029500004460E4617462546287810F0010F04D08D
:1029600008211248FFF7FDF803E008210F48FFF7A0
:10297000FAF8287810F0020F04D010210B48FFF766
:10298000F0F803E010210948FFF7EDF8287810F07F
:10299000040F04D020210548FFF7E3F803E02021CD
:1029A0000248FFF7E0F8BDE8F081000000100140A8
:1029B00002460B4600210AE0505C984201D10846CD
:1029C0007047505C08B90020FAE7481CC1B2F3E731
:1029D00030B503460C46002113E0585C802805DA28
:1029E000585C2578A84201D1084630BD585C802843
:1029F00005DB585A2588A84201D10846F5E7481C4E
:102A0000C1B21000A2F10105EAB2E6D1FF20ECE765
:102A10002DE9F043B3B007460E461446C822002104
:102A200001A8FEF76DF814F0010F03D001A92FA043
:102A300002F0C4FD14F0020F03D001A92CA002F093
:102A4000BDFD14F0040F03D001A92AA002F0B6FDC9
:102A500014F0080F03D001A929A002F0AFFD14F073
:102A6000100F03D001A92DA002F0A8FD14F0200F33
:102A700007D004F0EDFF01A9D0F81090484602F00D
:102A80009DFD14F0400F03D001A92BA002F096FD8C
:102A900001A92AA002F092FD01A8FFF717FC00F09F
:102AA000FF08262F0ED1317801A8FFF781FF0546D8
:102AB000681CC5B2A8F10100A84200DC002501A8ED
:102AC000405D3070282F0DD1317801A8FFF770FFDD
:102AD000054615B9A8F10100C5B2681EC5B201A826
:102AE000405D307033B0BDE8F08300002E00000080
:102AF0002D0000003031323334353637383900009C
:102B00006162636465666768696A6B6C6D6E6F703D
:102B10007172737475767778797A00004142434414
:102B200045464748494A4B4C4D4E4F5051525354DD
:102B300055565758595A00000D0A00000A00000067
:102B40002DE9F047B2B08046894615464E46C82268
:102B500000216846FDF7D4FF15F0010F03D0694648
:102B60003CA002F02BFD15F0020F03D069463AA0FD
:102B700002F024FD15F0040F03D0694637A002F0DF
:102B80001DFD15F0080F03D0694637A002F016FDB1
:102B900015F0100F03D069463AA002F00FFD15F0B2
:102BA000200F07D004F054FF6946D0F810A050461B
:102BB00002F004FD6846FFF789FBC7B2781CC7B274
:102BC0003A4631466846FFF703FF0446FF2C00D122
:102BD0000024B8F1260F16D11DF80400802802DA6F
:102BE000601CC4B201E0A01CC4B2BC4200DB0024E3
:102BF0001DF80400802803DA1DF80400307002E09C
:102C00003DF804003080B8F1280F17D1A01E1DF840
:102C10000000802802DA601EC4B201E0A01EC4B227
:102C2000FF2C00D13C461DF80400802803DA1DF873
:102C30000400307002E03DF8040030803A4631462E
:102C40006846FFF7C5FE0446FF2C00D1002432B0D1
:102C5000BDE8F0872E0000002D0000003031323337
:102C600034353637383900006162636465666768F9
:102C7000696A6B6C6D6E6F7071727374757677784C
:102C8000797A00004142434445464748494A4B4C03
:102C90004D4E4F505152535455565758595A0000A3
:102CA000F0B504460F4615461E4606E02046621C57
:102CB00094B23246394602F047FB2800A5F10101E3
:102CC0008DB2F3D1F0BDF0B507460C4615461E4651
:102CD00006E02146621C94B23246384602F034FBCC
:102CE0002800A5F101018DB2F3D1F0BDF8B504467D
:102CF0000D461646052E5BD2DFE806F0030A1132B8
:102D0000390001232B4A2946204600F0A3FA4FE060
:102D10000123294A2946204600F09CFA48E004F0A5
:102D20009DFE078ADFF88CC00097BCF802C0AC4457
:102D30000CF1010C1FFA8CF3DFF878C0BCF800C06E
:102D4000A4440CF1010C1FFA8CF2A5F1010C1FFA3E
:102D50008CF1A4F1010C1FFA8CF002F07DFE27E04B
:102D60000023144A2946204600F074FA20E004F0BB
:102D700075FE8789DFF83CC00097BCF802C0AC4400
:102D80000CF1010C1FFA8CF3DFF828C0BCF800C06E
:102D9000A4440CF1010C1FFA8CF2A5F1010C1FFAEE
:102DA0008CF1A4F1010C1FFA8CF002F055FE00BF6B
:102DB00000BFF8BDFAAC01081EB00108F0B504462A
:102DC0000F4627B1012F1DD0022F1AD160E0002538
:102DD00014E000260DE06288A37905FB032291B27E
:102DE000228806FB032290B20322FFF77FFF701CAC
:102DF00086B26079B042EEDC681C85B22079A842C8
:102E0000E7DC84E0E07E022832D1E07D617E88420A
:102E100001D0012000E00020217EA27E914201D05D
:102E2000012100E00021084331D06288A37E94F89C
:102E300006C003FB0C2291B22288637E03FB0C22A6
:102E400090B20422FFF752FF6288237E94F806C0F6
:102E500003FB0C2291B22288E37D03FB0C2290B28B
:102E60000222FFF743FFE07D6076207EA0760EE031
:102E70006288A37E94F806C003FB0C2291B22288DC
:102E8000637E03FB0C2290B20422FFF72FFF3EE08B
:102E9000002538E0E01D415D0830405D814230D0C2
:102EA000002627E0E01D415D0120B040084004F10C
:102EB0000F014A5D0121B1400A40904218D0E31D44
:102EC0005B5D4FF0010C0CFA06FC13EA0C0F01D00D
:102ED000012300E000231A46638894F806C005FB2E
:102EE0000C3399B2238806FB0C3398B2FFF7FEFE31
:102EF000701C86B26079B042D4DCE01D415D0830C0
:102F00004155681C85B22079A842C3DC00BF00BFD0
:102F1000F0BD00002DE9F04788B004460F461C22A2
:102F2000484901A8FDF710F947480068408C6188BE
:102F3000401A062190FBF1F000F0FF084349887F1A
:102F400002F074FE00254BE0AF4204D104F086FD90
:102F50000121417003E004F081FD00214170042053
:102F6000DFF8E4C00090DCF800C0BCF81E9005F16A
:102F7000010C0CFB089C1FFA8CF3DFF8CCC0DCF8CA
:102F800000C0BCF81EC005FB08CC1FFA8CF1DFF8AE
:102F9000B8C0DCF800C0BCF82020DFF8ACC0DCF81A
:102FA00000C0BCF820C0ACF1640C1FFA8CF002F039
:102FB00005FFE07E042801D1012000E000200DB9CA
:102FC000012100E00021084203D0079801F0CCFB6A
:102FD00004E001A951F8250001F0C6FB681CC5B248
:102FE000062DB1DB04F03AFD818904F037FDC0897C
:102FF000814203D104F032FD868901E01348868BBB
:103000000096B4F802C094F8059094F806A009FB65
:103010000ACC1FFA8CF309FB0AFC0CF1030C1FFA13
:103020008CF2B4F802C0ACF1030C1FFA8CF1B4F8C6
:1030300000C0ACF1020C1FFA8CF002F00DFD08B0DC
:10304000BDE8F087C8BB0108F8000020C89D00203B
:103050002DE9FF4F044688469146002000230021B9
:103060007CE0002274E0002543E000263BE001EB19
:10307000050A0AF0FF07012F00DA0827082F00DDF4
:10308000012702EB060A0AF0FF0CBCF1010F01DA7E
:103090004FF0080CBCF1080F01DD4FF0010C012DC1
:1030A00001D1AA4601E04FF0000A012E01D1B3463A
:1030B00001E04FF0000B1AEA0B0F10D1A7F1010A43
:1030C00018F80AA0ACF1010B4FF0010E0EFA0BFE3E
:1030D0001AEA0E0F03D003F1010A0AF0FF0306F10A
:1030E000010A0AF0FF06032EC1DB05F1010A0AF00E
:1030F000FF05032DB9DB032B0DD114F801A04FF010
:10310000010B0BFA02FB4AEA0B0A04F801A000F1DA
:10311000010A0AF0FF00022B09DA14F801A04FF0AF
:10312000010B0BFA02FB2AEA0B0A04F801A0032B9D
:1031300009DD14F801A04FF0010B0BFA02FB2AEA9B
:103140000B0A04F801A0002302F1010A0AF0FF02B1
:103150004A4588DB01F1010A0AF0FF01DDF80CA005
:103160005145FFF67EAF04B0BDE8F08F10B50446C0
:10317000002004F04FF82279E11D0248FDF7AFFC72
:1031800010BD0000EE9D002010B5044622790449D0
:10319000E01DFDF7A4FC002004F02CF910BD000098
:1031A000EE9D00207047704770B504460D462B46D3
:1031B00022460249024800F005F870BD00F80708F1
:1031C000D51800082DE9F0470746884614461D46E5
:1031D000A14608EBC52004222146B8474E46308858
:1031E000B0F5006F01DD012000E0002031880429E6
:1031F00001DA012100E00021084300D013E0328809
:1032000008EBC5202146B8473088001F81B209F17C
:10321000040004F0CFFB82467188514500D002E0E3
:103220000120BDE8F0870020FBE7000071B600BF79
:103230000648006800F4E06005490843001D0349A2
:103240000860BFF3408F00BF00BFFEE70CED00E059
:103250000000FA052DE9FF4F82B082460F469346E3
:10326000D846B8F80060B8F80290059807287DD2D3
:10327000DFE800F004153D6894B5D80004F0EEFBDB
:1032800080890190009007EB0900401C83B20AEB93
:10329000060082B23946504602F05EFCEBE00025A3
:1032A00022E000241CE0B4F5A07F17DAF02F15DA35
:1032B00004F0D4FB418A05FB0640801C38F810005E
:1032C00081420BD005FB06439B1C38F81320EB19F9
:1032D00099B204EB0A0398B202F036F8601C84B28B
:1032E000B442E0DB681C85B24D45DADBC3E0002563
:1032F00025E000241FE0B4F5A07F1ADAF02F18DAD9
:1033000004F0ACFB418A05FB0640801C38F8100035
:10331000C04381420DD005FB06439B1C38F8133097
:10332000DB439AB2EB1999B204EB0A0398B202F0AC
:103330000BF8601C84B2B442DDDB681C85B24D45DD
:10334000D7DB98E0002526E0002420E0B4F5A07F3C
:103350001BDAF02F19DA04F081FB418A05FB0640E5
:10336000801C38F8100081420FD000E082E005FB9D
:1033700006439B1C38F81320EB1999B20AEB06039D
:103380005B1E1B1B98B201F0DFFF601C84B2B442CD
:10339000DCDB681C85B24D45D6DB6CE000251BE00C
:1033A000002415E0B4F5A07F10DAF02F0EDA05FB4B
:1033B00006439B1C38F8132007EB09035B1E5B1BBD
:1033C00099B204EB0A0398B201F0BEFF601C84B20C
:1033D000B442E7DB681C85B24D45E1DB4BE00025DC
:1033E0001DE0002417E0B4F5A07F12DAF02F10DA08
:1033F00005FB06439B1C38F8132007EB09035B1EF3
:103400005B1B99B20AEB06035B1E1B1B98B201F013
:103410009BFF601C84B2B442E5DB681C85B24D455D
:10342000DFDB28E0002522E000241CE0B4F5A07FCB
:1034300017DAF02F15DA04F011FB418A05FB06407C
:10344000801C38F8100081420BD005FB06439B1C02
:1034500038F81320EB1999B204EB0A0398B201F083
:1034600073FF601C84B2B442E0DB681C85B24D453A
:10347000DADB00E000BF00BF06B0BDE8F08F00005F
:1034800010B50446484800680078FF2801D102F0D2
:1034900071F902F079F944480068406942490968C5
:1034A000896988421DD0012000F036FD3E49096837
:1034B000886900F007FE002000F02EFD3A490968F7
:1034C000486900F0FFFD38480068406936490968DE
:1034D000886135480068007820F0010032490968A9
:1034E000087031480068007810F0010F0FD00020FC
:1034F00000F012FD2C490968486900F0E3FD2A48F4
:103500000068007820F00100274909680870264803
:1035100000680069A04219D0012000F0FDFC22499A
:103520000968086900F042F8002000F0F5FC204628
:1035300000F03CF81C48006804611B4800680078F3
:1035400020F0020018490968087015E01648006864
:10355000007810F0020F0FD0002000F0DDFC1249BF
:103560000968C86800F022F80F480068007820F069
:1035700002000D49096808700B480068007810F0D7
:10358000080F0FD0002000F0C7FC07490968C86881
:1035900000F00CF804480068007820F008000249A8
:1035A0000968087010BD0000F8000020F0B59BB05D
:1035B000064634460CB91BB0F0BD4049887F02F086
:1035C00035FB00203E4A00901268D18B3C4A1268BD
:1035D000908BF0234FF4A07202F0F0FB38480068A3
:1035E000817937480068401C405C3549096891F88A
:1035F000241090FBF1F0C5B23148006890F8240027
:10360000684300EB400004EB80042E4800788542BC
:1036100014D004F023FA8789294A00971268D28BC4
:10362000521C91B2264A1268928B521C90B2EE2321
:103630004FF49F7202F090FA22480570012533E0A2
:103640001F480068C1681E48006882791C480068ED
:10365000401C805C00EB400001EB8000A04204D1E4
:1036600004F0FCF90121417003E004F0F7F90021B6
:103670004170214602A800F039FA02A801F074F85E
:10368000681CC0B205460E49096891F824108842AA
:1036900000DD0CE00C3404F0E1F9811D04F0D8F9F0
:1036A00000780A8810440880207A0028C8D100BF1A
:1036B00004F0D4F90021417000BF7CE7C89D0020D0
:1036C000F8000020D300002070B50446207A0B28B3
:1036D00046D007DC072837D2DFE800F0990D37998C
:1036E0007162510016380728F5D2DFE800F03390F8
:1036F00071908A7A820047480068C0684549096825
:103700000861607A43490968897988420CDD607AEA
:1037100040490968887100213E48006882793D4827
:103720000068401C815403E0607A3A490968887156
:10373000384960680968C86036480068007840F019
:10374000020034490968087061E0606808B1606887
:1037500080475CE0606810B1607A6168884756E035
:1037600061680878FCF770FF0646617A042200F071
:10377000EBFA0546FCF7A4FF6168087047E0616852
:1037800091F90000FCF757FF0646617A062200F027
:10379000DBFA0546FCF77BFF40B26168087036E053
:1037A00061680888FCF750FF0646617A042200F041
:1037B000CBFA0546FCF784FF6168088027E0617A50
:1037C00062681068072200F0BFFA616808601EE0B6
:1037D0006068007808B9012000E000206168087086
:1037E00015E061680868052100F0F0F8616808607C
:1037F0000DE061680888052100F048F861680880DC
:1038000005E0617A3722606800F01CFA00BF00BF53
:1038100070BD0000F80000202DE9FE4F04460E4662
:1038200015461F46DDE90C9A17480068C0890290CA
:1038300000200190281B1FFA80F8B81B1FFA80FB9C
:10384000D8451EDD1BE008FB0AF090FBF9F2019859
:10385000411C89B20191824203DA0B4800688089D9
:10386000029002983B46224631460090204602F0E4
:10387000BBFC2046611C8CB2A84200DB00E0E2E702
:1038800000BFBDE8FE8F0000D40000202DE9F0430A
:1038900089B00746884600240C263DA000F028FB8E
:1038A0001222002104A8FDF72BF9B8B201F04AFF5B
:1038B0000390B8B201F046FF0290B8B201F042FFA7
:1038C00001909DF80E0000909DF809309DF80420AD
:1038D00031A104A8FEF784FC4BE0002000F01CFBA3
:1038E000701CC1B2224604A800F07EFF002000F048
:1038F000EBF80546252D02D10CB1601EC4B2272D70
:1039000003D1B44201DA601CC4B2B44216D1262DF0
:1039100001D1012000E00020282D01D1012100E08B
:10392000002108430AD000208DF81B0004A801F0F4
:1039300073FE8146FDF7B2F807461BE064B9262DF9
:1039400001D1012000E00020282D01D1012100E05B
:103950000021084300D00DE0B44206DA601E04AA3C
:10396000811842462846FFF753F80021701E04AA2A
:103970001154B2E700BF012000F0CEFA701CC1B2B2
:10398000012204A800F030FF384609B0BDE8F083FA
:10399000507574496E000000253033642E25303395
:1039A000642E25303364000030B507480068C468D1
:1039B00005490968C86800F08FFA054605EB45001F
:1039C00004EB800030BD0000F8000020F3B587B0A4
:1039D0000F460024102635A000F08AFA122200219A
:1039E00002A8FDF78DF89DF81C009DF81D10CDE98B
:1039F00000109DF81E309DF81F202EA102A8FEF792
:103A0000EFFB45E0002000F087FA701CC1B22246AF
:103A100002A800F0E9FE002000F056F80546252D2A
:103A200002D10CB1601EC4B2272D03D1B44201DA19
:103A3000601CC4B2B44210D1262D01D1012000E097
:103A40000020282D01D1012100E00021084304D0ED
:103A500002A801F0E1FD07901BE064B9262D01D119
:103A6000012000E00020282D01D1012100E00021EB
:103A7000084300D00DE0B44206DA601E02AA8118A5
:103A80003A462846FEF7C4FF0021701E02AA1154D0
:103A9000B8E700BF012000F03FFA701CC1B201225C
:103AA00002A800F0A1FE079809B0F0BD5075744956
:103AB0006E000000253033642E253033642E25300F
:103AC00033642E253033640070B5054625B1284691
:103AD00004F09AFA044602E004F060FA044614B1D5
:103AE0006668707870BD0020FCE700002DE9FF419A
:103AF00005460C46207A0C2837D008DC78D2DFE85F
:103B000000F096159696282161969647961A1A28DF
:103B100038D006DC0D282FD0172840D0182867D1C0
:103B200046E01B2856D01C28F9D162E028462168BF
:103B3000FDF733FF80E06068027828462168FDF7D2
:103B40002CFF79E06068028828462168FDF725FF90
:103B500072E061680868FCF7C7FD06460B4632460E
:103B600028462168FDF719FF66E06068027828465C
:103B70002168FDF712FF5FE02846D4E90012FDF747
:103B80000CFF59E02846D4E90012FDF706FF53E088
:103B90006068026828462168FDF7FFFE4CE0606817
:103BA00080470646324628462168FDF7F6FE43E088
:103BB00060680078224B53F8202028462168FDF7E2
:103BC000ECFE39E0606890F9002028462168FDF796
:103BD000E4FE31E06068007861684978CDE9001062
:103BE00060688378C27828462168FDF7D6FE23E016
:103BF0001DE06168098888B201F0A4FD0390616846
:103C0000098888B201F09EFD02906168098888B237
:103C100001F098FD01909DF80E0000909DF809308C
:103C20009DF8042028462168FDF7B7FE04E02846E9
:103C30002168FDF7B2FE00BF00BFBDE8FF810000B4
:103C40008C0000202DE9F04786B080460E46914654
:103C500000243BA000F04CF91222002101A8FCF73F
:103C60004FFF01A9404601F097FC5BE0002000F007
:103C700053F9B01CC7B201A8805D802802DD2D2059
:103C800001A98855701E01A9085C802801DA00206E
:103C9000885523463A46314601A800F059FE0020D7
:103CA000FFF712FF0546252D02D10CB1601EC4B2EC
:103CB000272D04D1781EA04201DD601CC4B2781EFD
:103CC000A04210D1262D01D1012000E00020282D96
:103CD00001D1012100E00021084304D0414601A8A0
:103CE00001F05AFC1FE064B9262D01D1012000E04B
:103CF0000020282D01D1012100E00021084300D03F
:103D000011E0BC420ADA601EC1B201A8FEF700FB56
:103D100082464A4651462846FEF712FF0021781E89
:103D200001AA1154A2E700BF012000F0F5F82346D4
:103D30003A46314601A800F00BFE06B0BDE8F08718
:103D4000507574496E0000002DE9FE4F81460D4606
:103D500092460024681CC5B233A000F0C9F80A22BC
:103D600000216846FCF7CCFE4846FCF7BDFC074640
:103D70003A460B462EA16846FEF732FA45E000208F
:103D800000F0CAF8681CC1B22246684600F02CFD5B
:103D90000020FFF799FE0646252E02D10CB1601EC9
:103DA000C4B2272E03D1AC4201DA601CC4B2AC42CB
:103DB00010D1262E01D1012000E00020282E01D1B3
:103DC000012100E00021084304D06846FEF71CFAF8
:103DD00081461BE064B9262E01D1012000E00020BD
:103DE000282E01D1012100E00021084300D00DE080
:103DF000AC4206DA601E6A46811852463046FEF72B
:103E000007FE0021681E0DF80010B8E700BF012072
:103E100000F082F8681CC1B20122684600F0E4FCA0
:103E20004846BDE8FE8F0000507574496E000000E2
:103E3000252E33660000000070B50546FF2023499B
:103E40000968087022A0214909684861002406E039
:103E500000211E480068401C0155601CC4B2052C9E
:103E6000F6DB002019490968887118480068C560A8
:103E70001849887F01F0DAFE002014490968888318
:103E8000322012490968C8834FF4A0700F490968AD
:103E90000884F0200D490968488403F0D9FD0078B2
:103EA0000A490968498C094A1268D28B891A91FB20
:103EB000F0F00649096881F82400022003490968E6
:103EC00081F82500012001F0E7FE70BDF800002018
:103ED00020000000C89D0020014600200A4602E0A4
:103EE0000C32431CD8B2137A002BF9D17047000072
:103EF00010B5044607480068007840F00200054904
:103F0000096808700348006844610020FFF7B8FAA8
:103F100010BD0000F800002030B5044634B9084D4B
:103F20006B8BEA8A298BA88A01F070FE012C06D1DE
:103F3000034D6B8BEA8AE98AE88A01F067FE30BD9F
:103F4000C89D00200646B146282000F033FA5C499F
:103F50000860092000F02EFA8046182000F02AFAA6
:103F60000746002507E005EB4500404407EBC50187
:103F70004860681CC5B2032DF5DB0321384603F009
:103F8000EBFE01F001FC03F0FFFF03F0F3FF002064
:103F900003F040F90120FFF7BFFF01F0EBFB4846BB
:103FA000FFF74AFF8BE0FFF7FFFC00684449096810
:103FB000486143490968C868FFF762FA40490968DF
:103FC000C868FFF789FF3E490968C8710020FFF7FC
:103FD0007BFD0446282C25D139480068C079401E55
:103FE000374909688A7936490968491C895C8842D9
:103FF00010DD33480068817931480068401C405C1E
:10400000401CC1B22E48006882792D480068401CCF
:10401000815407E000212A48006882792848006816
:10402000401C8154262C24D12548006881792448DD
:104030000068401C405C80B12148006881792048BC
:104040000068401C405C401EC1B21D480068827977
:104050001B480068401C81540BE019480068C07977
:10406000401EC1B216480068827915480068401C9D
:104070008154272C0FD112490968CA681049096870
:104080008B790F490968491CC95C01EB410102EBBE
:104090008100FFF719FB252C07D100210848006893
:1040A000827907480068401C815405480068007800
:1040B00040F0020002490968087003F0F3F872E763
:1040C000F800002038B5044604B938BD154DAB8B57
:1040D000154D2D682A8C144D2D68E98B124D2D68D5
:1040E000A88BFEF7DDFD0F48808BF0234FF4A07204
:1040F00000210090084601F0AFFC0A49C87F01F09A
:1041000095FD0420009008480068C38B06480068AD
:10411000028C0021084601F051FE204600F024FBED
:1041200000BFD2E7C89D0020F80000202DE9FC4721
:1041300006460D463046FFF7DBFE002499E00020DE
:10414000FFF7EAFE1E20DFF8D4C1CDE90004DCF859
:1041500000C0BCF81EC0CCF1F00808EBD87CDFF83A
:10416000BC91D9F80090B9F81E9009EB6C0C0CF1D9
:104170000A0C1FFA8CF3DFF8A4C1DCF800C0BCF80D
:104180001EC0CCF1F00707EBD77CDFF89091D9F88F
:104190000090B9F81E9009EB6C0C1FFA8CF1DFF857
:1041A0007CC1DCF800C0BCF820C0ACF1020C1FFAE6
:1041B0008CF2DFF868C1DCF800C0BCF81CC00CF160
:1041C000010C1FFA8CF0FFF727FB5549887F01F09F
:1041D0002DFD04EB840080011E2190FBF1F02830BE
:1041E0001FFA80F8012000904C480068C08BC0F195
:1041F000F00707EBD770494A1268D28B02EB6000D8
:104200000A3081B2F0234246002001F0D7FD0020A1
:10421000FFF782FE2046FCF717FA82464149FCF779
:104220000CF881464049FCF73EF88046FCF748FA16
:10423000C7B239463DA000F097FA284603F0BCFD0E
:104240000120FFF769FE2046FCF7FEF9824635495A
:10425000FBF7F3FF07463449FCF725F88146FCF7E6
:104260002FFA00F0FF08414630A000F07DFA601CF4
:10427000C4B21E2CFFF663AF03F0F0FBB0F80C9055
:10428000DFF898C0CDF80090DCF800C0BCF81EC084
:10429000CCF1F00707EBD77CDFF880A0DAF800A0BC
:1042A000BAF81EA00AEB6C0C0CF10A0C1FFA8CF386
:1042B000DFF868C0DCF800C0BCF81EC0CCF1F00824
:1042C00008EBD87CDFF854A0DAF800A0BAF81EA0FA
:1042D0000AEB6C0C1FFA8CF1DFF840C0DCF800C070
:1042E000BCF820C0ACF1020C1FFA8CF2DFF82CC035
:1042F000DCF800C0BCF81CC00CF1010C1FFA8CF0FB
:1043000001F02AFCFF200549096808700349096883
:10431000C868FFF7B5F8BDE8FC870000F80000208A
:10432000C89D00200000C8420000F04125642525FA
:104330002000000000BFFEE72DE9F04104460D46D5
:10434000284600F037F80646A4F10807B888083870
:1043500082B231462046FCF7C2FB204600F004F84A
:104360003046BDE8F081000002460A4B1868002183
:1043700006E0A2F10803834200D107E0014600688D
:104380000368002BF5D101B10B60704703680B6027
:1043900000BFFAE774000020054908600021044AC4
:1043A000126811600821024A1268516070470000CB
:1043B0007400002010B503461048016803F108009E
:1043C00083B20FE00868401A4C68001B984208D37B
:1043D000486842185360086810600A6002F10800DB
:1043E00010BD096808680028ECD148684218002010
:1043F000106053600A6002F10800F1E774000020C9
:104400002DE9F0410446E078851D281F81B2A01CEB
:1044100003F0D0FA0646A91E08190021FDF788FF0F
:104420000746B74202D10120BDE8F0810020FBE73A
:104430007047000070B5002100230F22C4780CB330
:10444000164C246804F4E064C4F5E064210AC1F168
:104450000403CA40447804FA03F1847814402143E9
:1044600009010F4C0678A155047804F01F050124BA
:10447000AC4005786D114FF0E02606EB8505C5F8D8
:10448000004109E0047804F01F050124AC40054D0B
:104490000678761145F8264070BD00000CED00E06E
:1044A00000E400E080E100E002490143024A1160BB
:1044B000704700000000FA050CED00E02DE9FE4316
:1044C000002600270025F020FFF774FF804601F04A
:1044D00051F93EE00027294622A000F06FF900269E
:1044E00020E038467A1C97B2C0EB0010000105EBC3
:1044F0008502D200C2EB021200EB0211F02240460C
:1045000000F044FD4FF4FC601F21CA020023CDE9F6
:10451000002102903246F0214046FDF729F806F1CD
:10452000080086B2B6F5A07FDBDB0020FFF7CCFAEF
:104530000446252C03D1002D01DD681E85B2272CF1
:1045400001D1681C85B2282C00D103E0262C00D1B3
:1045500000E0BFE700BF4046FFF706FF02F016FF8E
:10456000BDE8FE8350616765496E6465785B2564CC
:104570005D205570446F776E4578697400000000C7
:1045800010B5044624B180210448FDF7ECFA03E09D
:1045900080210248FDF7E5FA10BD00000008014047
:1045A00010B5044624B120210448FDF7DCFA03E0ED
:1045B00020210248FDF7D5FA10BD00000008014097
:1045C00010B504210148FDF7C3FA10BD00140140E5
:1045D00010B54FF400710248FDF7BAFA10BD0000A3
:1045E0000010014010B5044624B180210448FDF7B5
:1045F000BAFA03E080210248FDF7B3FA10BD0000CB
:104600000010014010B504462CB14FF4804105481C
:10461000FDF7A9FA04E04FF480410248FDF7A1FA42
:1046200010BD0000000C01402DE9F04788B00446A1
:104630000F461C22484901A8FBF786FD4748006841
:10464000408C6188401A062190FBF1F000F0FF08D1
:104650004349887F01F0EAFA00254BE0AF4204D1DC
:1046600003F0FCF90121417003E003F0F7F90021A8
:1046700041700420DFF8E4C00090DCF800C0BCF812
:104680001E9005F1010C0CFB089C1FFA8CF3DFF85F
:10469000CCC0DCF800C0BCF81EC005FB08CC1FFA7B
:1046A0008CF1DFF8B8C0DCF800C0BCF82020DFF8DF
:1046B000ACC0DCF800C0BCF820C0ACF1640C1FFA40
:1046C0008CF001F07BFBE07E042801D1012000E0AA
:1046D00000200DB9012100E00021084203D0079815
:1046E00000F042F804E001A951F8250000F03CF880
:1046F000681CC5B2062DB1DB03F0B0F9818903F067
:10470000ADF9C089814203D103F0A8F9868901E09F
:104710001348868B0096B4F802C094F8059094F87C
:1047200006A009FB0ACC1FFA8CF309FB0AFC0CF16A
:10473000030C1FFA8CF2B4F802C0ACF1030C1FFAA0
:104740008CF1B4F800C0ACF1020C1FFA8CF001F04F
:1047500083F908B0BDE8F08744BC0108F8000020E8
:10476000C89D0020704700000FB410B5C4B047A822
:10477000439003A8439A469904F0DEFC0E48006873
:1047800080780D490968097D03AA0B4CCDE9002109
:10479000029024686389084C24682289064C2468A6
:1047A000E188054C2468A08801F04EF80020439071
:1047B00044B010BC5DF814FBD40000200FB400B569
:1047C0008FB011A80E9001A80E9A109904F0B4FCB5
:1047D0004FF47A7101A800F085F800200E900120B6
:1047E0000FB05DF814FB00002DE9FC4707460D46AD
:1047F0001646394991F8200001F018FA03F028F91B
:1048000040786843C0F5A07101EBD170C0F34F0848
:1048100001242DE003F01CF94178601C00FB0180AD
:104820001FFA80F903F014F9407804FB00801FFAA6
:1048300080FA0320F0234A4600210090504601F000
:10484000BDFA601E385C8DF8040000208DF805006C
:10485000B44204D103F002F90121417003E003F0F6
:10486000FDF80021417001A8FFF77EFF601CC4B273
:10487000681EA042CEDC0320F0234FF49F7200217B
:104880000090084601F09AFA26B903F0E7F80121F2
:10489000417003E003F0E2F8002141700FA0FFF740
:1048A00063FF0520F0234FF49F720021009008461B
:1048B00001F084FA681EB04204D103F0CFF8012160
:1048C000417003E003F0CAF80021417004A0FFF733
:1048D0004BFFBDE8FC870000C89D00204E6F000024
:1048E0005965730038B505460C4615A0FFF700FB67
:1048F000154991F8200001F099F90420F0234FF4B4
:10490000A07200210090084601F058FA0020FFF73D
:1049100003FB2846FFF728FF204603F04DFA01204D
:10492000FFF7FAFA2846FFF71FFFFF20074909683B
:10493000087006490968C868FEF7A2FD012038BD65
:10494000496E666F72000000C89D0020F8000020CC
:104950002DE9FF5F0546894617461E464FF00108C0
:10496000002003904E4991F8200001F05FF903F018
:104970006FF8407800FB09F0C0F5A07101EBD17031
:10498000C0F34F0A012454E0B04504D103F066F8A7
:104990000121417003E003F061F80021417003F050
:1049A00057F84178601C00FB01A01FFA80FB03F060
:1049B0004FF8407804FB00A080B201900320F02360
:1049C0005A4600210090019801F0F8F9601E285C19
:1049D000802810DD601E285C8DF80800285D8DF8A9
:1049E000090000208DF80A00A01CC4B208F10100E3
:1049F00000F0FF080CE0601E285C8DF80800002025
:104A00008DF80900601CC4B208F1010000F0FF0835
:104A10009DF8080008B9012003900398012805D1EA
:104A200020208DF8080000208DF8090002A8FFF76B
:104A30009BFE781EA042A7DC0320F0234FF49F7258
:104A400000210090084601F0B9F926B903F006F8F4
:104A50000121417003E003F001F80021417011A031
:104A6000FFF782FE0520F0234FF49F720021009093
:104A7000084601F0A3F9781EB04204D102F0EEFF1F
:104A80000121417003E002F0E9FF0021417006A01E
:104A9000FFF76AFE02F0E2FF00214170BDE8FF9FD0
:104AA000C89D00204E6F00005965730038B505465B
:104AB0002846FFF71DFA1D4991F8200001F0B6F8CD
:104AC0001CE00020FFF728FA0420F0234FF4A07226
:104AD00000210090084601F071F902F0BFFF0121AA
:104AE000417013A0FFF740FE0020FEF7EDFF0446E3
:104AF000262C00D103E0282C00D100E0E1E700BF24
:104B00000120FFF709FA0420F0234FF4A0720021DE
:104B10000090084601F052F902F0A0FF0021417018
:104B200003A0FFF721FE012038BD0000C89D002032
:104B30004F6B0000F8B50746002500263846FFF702
:104B4000D7F9224991F8200001F070F835E030469D
:104B5000FFF7E2F90320F0231A46002100905020CD
:104B600001F02CF902F07AFF457019A0FFF7FCFD67
:104B70000520F0231A4600210090502001F01EF974
:104B800002F06CFF0DB9012100E00021417011A07D
:104B9000FFF7EAFD06B111E01EB90020FEF794FF11
:104BA0000446262C00D10126282C00D10126252CD4
:104BB00000D10125272C00D10025C8E700BF02F055
:104BC0004DFF002141702846F8BD0000C89D00201F
:104BD0004F6B00004E6F00002DE9FE4300260027BA
:104BE0000025F020FFF7E6FB804600F0C3FD40E023
:104BF0000027294623A0FFF7E1FD002623E03946E0
:104C00007A1C97B2C1EB01114FF0007202EB011157
:104C100005EB8502D200C2EB021201EB0210F0227A
:104C20004146FCF757FE4FF4FC601F21CA020023E7
:104C3000CDE9002102903246F0214046FCF798FC75
:104C400006F1080086B2022ED9DB0020FEF73CFFF9
:104C50000446252C03D1002D01DD681E85B2272CCA
:104C600001D1681C85B2282C00D103E0262C00D18C
:104C700000E0BDE700BF4046FFF776FB02F086FB91
:104C8000BDE8FE8350616765496E6465785B2564A5
:104C90005D205570446F776E4578697400000000A0
:104CA00029B1064A52690243044B5A6104E0034A9F
:104CB00052698243014B5A61704700000010024064
:104CC00029B1064AD2690243044BDA6104E0034A7F
:104CD000D2698243014BDA61704700000010024044
:104CE00029B1064A92690243044B9A6104E0034ADF
:104CF00092698243014B9A617047000000100240A4
:104D000030B500210022002400232D4D6D6805F0F0
:104D10000C0121B1042905D0082923D105E0294D32
:104D2000056022E0274D05601FE0254D6D6805F404
:104D30007012234D6D6805F48034022505EB924214
:104D40001CB9214D554305600BE01D4D6D6815F4F0
:104D5000003F03D01C4D5543056002E0194D5543FB
:104D6000056002E0174D056000BF00BF144D6D687F
:104D700005F0F0010909154D6B5C0568DD404560E3
:104D80000F4D6D6805F4E061090A104D6B5C4568D4
:104D9000DD4085600A4D6D6805F46051C90A0B4D10
:104DA0006B5C4568DD40C560054D6D6805F44041AC
:104DB000890B074D6B5CC568B5FBF3F5056130BD2C
:104DC0000010024000127A0000093D00000000209F
:104DD000100000202DE9FE43002600270025F020CA
:104DE000FFF7E8FA804600F0C5FC41E000272946BD
:104DF00024A0FFF7E3FC002623E039467A1C97B293
:104E0000C1EB01114FF0006202EB011105EB8502CD
:104E1000D200C2EB021201EB0210F0224146FCF775
:104E200059FD4FF4FC601F21CA020023CDE9002187
:104E300002903246F0214046FCF79AFB06F108004A
:104E400086B2B6F5A07FD8DB0020FEF73DFE044613
:104E5000252C03D1002D01DD681E85B2272C01D140
:104E6000681C85B2282C00D103E0262C00D100E07C
:104E7000BCE700BF4046FFF777FA02F087FABDE8CB
:104E8000FE83000050616765496E6465785B256448
:104E90005D205570446F776E45786974000000009E
:104EA00010B5044600BF02210A4800F0F9F90028B5
:104EB000F9D02146074800F0FFF900BF012105485D
:104EC00000F0EEF90028F9D0024800F0F2F9C0B283
:104ED00010BD00000030014021B1028842F04002C4
:104EE000028004E002884FF6BF731A4002807047C8
:104EF00000B587B0012141F20400FFF7F1FEE02088
:104F0000ADF8180001208DF81A0018208DF81B004C
:104F100006A91C48FCF750FD1020ADF81800012030
:104F20008DF81A0010208DF81B0006A91548FCF713
:104F300043FD10211348FCF716FE0020ADF80400D5
:104F40004FF48270ADF806000020ADF80800ADF80F
:104F50000A00ADF80C004FF40070ADF80E00102000
:104F6000ADF810000020ADF812000720ADF81400D5
:104F700001A9054800F0A2F901210348FFF7ACFFA1
:104F800007B000BD000801400030014070B5054683
:104F90000C46164610211048FCF7E3FD032000F0F4
:104FA0003BF9C4F3074000F037F9C4F3072000F0E1
:104FB00033F9E0B200F030F904E0FF2000F02CF902
:104FC00028706D1C3000A6F101018EB2F5D11021C0
:104FD0000148FCF7C8FD70BD000801402DE9F05FF5
:104FE00007460E4614464FF00008C146C24600254B
:104FF000AB4606F0FF0ACAF10000C5B22046E11731
:1050000004EB1151C1F30738E11704EB11510913F7
:10501000A4EB013101F0FF09BAF1000F20D1B8F182
:10502000000F05D122463146384600F0C5F864E04D
:1050300009E04FF480523146384600F0BDF806F5DD
:10504000805607F580575FEA0800A8F1010101F0DA
:10505000FF08EED14A463146384600F0ADF84CE044
:10506000B8F1000F18D1A94510DDA9EB050000F03B
:10507000FF0B2A463146384600F09EF82E442F4456
:105080005A463146384600F097F836E02246314617
:10509000384600F091F830E0601B84B22046E117FA
:1050A00004EB11514FEA2138E11704EB11510913B8
:1050B000A4EB013101F0FF092A463146384600F0E1
:1050C0007BF82E442F4409E04FF480523146384695
:1050D00000F072F806F5805607F580575FEA080081
:1050E000A8F1010101F0FF08EED1B9F1000F04D0E1
:1050F0004A463146384600F05FF8BDE8F09F0000B0
:1051000000B587B001212420FFF7EAFD0121080343
:10511000FFF7E6FD2020ADF8040003208DF806001F
:1051200018208DF8070001A92148FCF745FC402014
:10513000ADF8040001A91E48FCF73EFC8020ADF844
:10514000040001A91A48FCF737FC1020ADF8040050
:105150008DF8070001A91648FCF72EFC1021144811
:10516000FCF701FD0020ADF808004FF48270ADF8A7
:105170000A000020ADF80C000220ADF80E0001205E
:10518000ADF810004002ADF812003820ADF8140060
:105190000020ADF816000720ADF8180002A9054858
:1051A00000F08CF801210348FFF796FE07B000BD20
:1051B000000801400030014070B505460C46164617
:1051C00000F05EF810211348FCF7CBFC022000F041
:1051D00023F8C4F3074000F01FF8C4F3072000F0E1
:1051E0001BF8E0B200F018F8B6F5805F01DD4FF46F
:1051F000805603E0287800F00FF86D1C3000A6F10F
:1052000001018EB2F6D110210248FCF7ACFC00F08F
:105210001FF870BD0008014010B5044600BF022110
:105220000A4800F03DF80028F9D02146074800F070
:1052300043F800BF0121054800F032F80028F9D0FA
:10524000024800F036F8C0B210BD00000030014046
:1052500010B5002410210948FCF783FC0520FFF756
:10526000DBFF00BFFF20FFF7D7FF044614F0010F5C
:10527000F8D110210148FCF776FC10BD0008014070
:1052800010B510210548FCF76CFC0620FFF7C4FFA1
:1052900010210248FCF767FC10BD00000008014027
:1052A0000246002013890B4201D0012000E00020BB
:1052B00070470146888970478181704710B5002288
:1052C00002880D4B1A400B884C8823438C8823435B
:1052D000CC8823430C8923434C8923438C89234363
:1052E000CC8923431A430280838B4FF2FF742340FF
:1052F00083830B8A038210BDFFFEF0FF704700001E
:1053000070B504460D462B4622460249024800F07D
:1053100005F870BD00F80708F11800082DE9F047FE
:105320008046894614461F4625462E463088001F73
:1053300081B2201D02F03EFB7080328809EBC7204D
:105340002946C047BDE8F08710B52A234FF0C04476
:10535000238003120C4C2380C3B2238001232380BB
:105360003F2323802B235C0723800B12064C2380D2
:10537000CBB2238000232380EF2323802C23DC0661
:105380002380014B1A8010BD0000026010B500F0B0
:1053900001F810BD0CB50020019000903248006863
:1053A00040F480303049086000BF2F48006800F4A6
:1053B000003000900198401C0190009818B90198A5
:1053C000B0F5A06FF1D12848006810F4003F02D07A
:1053D0000120009001E0002000900098012842D1B7
:1053E0002248006840F01000204908600846006824
:1053F00020F0030008600846006840F002000860E2
:10540000194840681849486008464068486008469E
:10541000406840F4806048600846406820F47C1092
:1054200048600846406840F4E81048600846006854
:1054300040F08070086000BF0B48006810F0007FEB
:10544000FAD00948406820F0030007494860084640
:10545000406840F00200486000BF0348406800F028
:105460000C000828F9D10CBD0010024000200240B9
:1054700030B52A244FF0C0452C8004120B4D2C80EF
:10548000C4B22C8014122C80D4B22C802B2465073B
:105490002C800C12054D2C80CCB22C801C122C8040
:1054A000DCB22C802C24E5062C8030BD000002608C
:1054B00000B5014611B101296AD14CE01420FBF777
:1054C000A5FD3620020710801420FBF79FFD682001
:1054D000304A10801420FBF799FD2A204FF0C0427B
:1054E00010801420FBF792FD00202A4A108014201F
:1054F000FBF78CFD0020274A10801420FBF786FD67
:105500000120244A10801420FBF780FD3F20214A0F
:1055100010801420FBF77AFD2B2042071080142006
:10552000FBF774FD00201B4A10801420FBF76EFD72
:105530000020184A10801420FBF768FD0020154A4F
:1055400010801420FBF762FDEF20124A1080142017
:10555000FBF75CFD1CE036200207108048200D4A56
:1055600010802A204FF0C04210800020094A10808D
:1055700010801080EF2010802B2042071080002028
:10558000044A10801080012010803F20108000BF4E
:1055900000BF00BD0000026030B503460C4600208D
:1055A0001946224605E011F8015B02F8015B451C33
:1055B000A8B20D78002DF6D1157030BD2DE9F0415F
:1055C00006460D462C4637462846FCF77FFE044427
:1055D0003046FCF77BFE804618F1010001D1BDE8A2
:1055E000F08103E017F8010B04F8010B5FEA0800F3
:1055F000A8F10108F6D104F8010B00BFEFE710B5E0
:105600000346184604E004788C4200D10270401C26
:105610000478002CF7D110BD30B5014600230022DC
:10562000002027E00C78302C01DB012400E000246E
:105630000D78392D01DC012500E000252C4209D030
:1056400002EB82044FF6FF7505EA44020C78303C09
:105650001444A2B20C782E2C05D10002FF2A00DDE2
:10566000FF2210430022491C1C465D1CEBB20F2C8C
:1056700000DD02E00C78002CD4D100BF0002104302
:1056800030BD10B502F0A6FA10BD000030B51249C9
:10569000B1F1807F00D31DE021F07F40401E4FF02C
:1056A000E022506150170F22002807DA13071D0E61
:1056B0000A4B00F00F04241F1D5503E013071C0EB6
:1056C000074B1C5400BF00204FF0E02290610720E0
:1056D000106100BF30BD00004019010018ED00E06E
:1056E00000E400E010B51348006840F001001149E3
:1056F000086008464068104908400E49486008465E
:1057000000680E4908400B4908600846006820F40C
:10571000802008600846406820F4FE0048604FF48E
:105720001F008860FFF732FE4FF0006004490860F8
:1057300010BD0000001002400000FFF8FFFFF6FE61
:1057400008ED00E008B501461F2000EAE1208DF8D1
:1057500000003F2000EA61108DF8010001F01F00F9
:105760008DF80200BDF8002010469DF8022040EAA6
:10577000024008BD00B5034909688889FCF7ECFDC3
:1057800000BD0000D400002003480449086004481C
:105790000449086070470000949D0020D400002058
:1057A000AC9D0020D80000202DE9FE4F04460F4696
:1057B0009046A8F12005224800680079454320481A
:1057C0000068806805441E4909684978081DC117AA
:1057D00000EB51714FEAE10B00262CE019480068FC
:1057E0004078012808D117480068B0F81090154893
:1057F0000068B0F80EA007E012480068B0F80E90FC
:1058000010480068B0F80CA00E480068408A0C4AA6
:10581000CDE9009A029012681178094A126812784C
:1058200006FB02503B462246FBF7A2FE04F10800AD
:1058300084B2701CC6B25E45D0DBBDE8FE8F0000AE
:10584000D8000020D40000202DE9FE4F05460E466A
:1058500017469846DDF830A001200090A81C85B2BC
:10586000B81E87B2002002908346504600F088F9A7
:10587000044614F4004F06D0C4F30E0474480068C4
:1058800090F8029003E07248006890F800900D983C
:10589000092872D2DFE800F0050C18202E4150597B
:1058A0006700681C80B20290701C1FFA80FB64E0E5
:1058B000791B081B00EBD07105EB610189B20291E5
:1058C000701C1FFA80FB58E0381B401E80B202900B
:1058D000701C1FFA80FB50E0681C80B20290A8EB9D
:1058E0000601A1EB090000EBD07106EB61011FFA84
:1058F00081FB42E0791B081B00EBD07105EB6101D5
:1059000089B20291A8EB0601A1EB090000EBD0716E
:1059100006EB61011FFA81FB2FE0381B401E80B2AD
:105920000290A8EB0601A1EB090000EBD07106EB99
:1059300061011FFA81FB20E0681C80B20290A8EB95
:105940000B00401E1FFA80FB17E0791B081B00EBC1
:10595000D07105EB610189B20291A8EB0B00401EEA
:105960001FFA80FB09E0381B401E80B20290A8EBB2
:105970000B00401E1FFA80FB00BF00BF61E01AF859
:10598000014B802C17DD4FF6FF7000EA04249AF8D3
:10599000000004430AF1010A2D480068C078019014
:1059A00022465946029800F07DF8DDE901100844CE
:1059B00080B2029021E00A2C0FD102950BEB090076
:1059C0001FFA80FB23480068858822480068C08849
:1059D000484420490968C8800FE00D2C0DD01C48B0
:1059E000006840780190224659460298FFF7DCFE95
:1059F000DDE90110084480B202909AF80040802C42
:105A000007DD13480068C1780298084480B201900D
:105A100006E00F48006841780298084480B201907F
:105A20000198B8420DDD02950BEB09001FFA80FBCF
:105A3000C34501DDBDE8FE8F0098401CC0B2009058
:105A400000BF9AF80000002899DC00BFF2E70000D0
:105A5000D8000020D40000202DE9F04106460F4672
:105A600014461D46DDF81880A01B82B24346394615
:105A70003046FDF715F9A01B82B243462946304651
:105A8000FDF70EF9E81B82B2434639463046FDF772
:105A90001AF9E81B82B2434639462046FDF713F94E
:105AA000BDE8F0812DE9FE4705460F469046404689
:105AB00000F082F8064626480068C088464324481D
:105AC0000068C0680644224A1268D178CA1701EB00
:105AD0005272D2101E4B1B68D878C31700EB537359
