:020000040800F2
:10000000D052002001010008C31700089513000812
:100010008D14000859070008452B00080000000057
:100020000000000000000000000000007919000836
:10003000FD0800080000000061180008171B0008F8
:100040001B0100081B0100081B0100081B01000820
:100050001B0100081B010008A10E00081B0100087D
:100060001B0100081B0100081B0100081B01000800
:100070001B0100081B0100081B0100081B010008F0
:100080001B0100081B0100081B0100081B010008E0
:100090001B0100081B0100081B0100081B010008D0
:1000A0001B0100081B0100081B0100081B010008C0
:1000B0001B0100081B0100081B0100081B010008B0
:1000C0001B0100081B0100081B0100081B010008A0
:1000D0001B0100089D240008F12400085125000898
:1000E0001B0100081B010008312B0008DFF80CD0B1
:1000F00000F0C2FA0048004739340008D05200200E
:100100000648804706480047FEE7FEE7FEE7FEE7B1
:10011000FEE7FEE7FEE7FEE7FEE7FEE7791B0008E5
:10012000ED0000082DE9FE4F804681EA0300C00F74
:100130000C46009021F0004123F00045B8EB02008E
:10014000A94105D24046214690461C460B46024630
:1001500023F00040104304D14046214603B0BDE8DF
:10016000F08F270DC7F30A00C3F30A510290401A1B
:100170000190402866DAC3F3130040F4801B009816
:10018000924620B10023D2EB030A63EB0B0B0198DC
:100190005946C0F14002504600F0B2F906460D46FD
:1001A00050465946019A00F0CAF910EB0800614127
:1001B000002487EA115284EAE7731A433BD0009A7D
:1001C0003AB3019A012A4FEA075210DC001B61EB97
:1001D00002014FF0004202EA0752CDE90042001C42
:1001E00041F5801132462B4600F0C8F9B6E7001BF6
:1001F00061EB0201001C41F5801300185B412018DF
:10020000A2F5001747EB030140EAD570B6196D411E
:1002100011E06D084FEA360645EAC0754FEA07520D
:10022000001B61EB0201001C41F5801149084FEAF7
:1002300030000019514132462B4603B0BDE8F04F63
:1002400000F08FB90098012240000023D0EB020299
:1002500063EBE073009821464FEAE074B8EB0000CE
:1002600061EB0401E9E783F000435BE781F00041C3
:1002700058E72DE9FE4F81EA030404F0004421F021
:10028000004100944FF0000B23F0004350EA0104BA
:1002900002D052EA030404D10020014603B0BDE8B5
:1002A000F08FC3F30A54C1F30A552C44A4F2F3347B
:1002B0000194A0FB0254C1F3130141F48011C3F374
:1002C000130343F4801301FB024400FB034E840A32
:1002D000970A44EA815447EA8357A4FB07680295CA
:1002E0008D0A05FB07854FEA932C04FB0C54270568
:1002F000029D4FEA065847EA1637B5EB08056EEB44
:10030000070C870E920E47EA811742EA8312A7FB79
:100310000201B6EB0B0164EB00042B0D43EA0C3336
:100320005E1844EB1C50DA465146E7FB0201C5F368
:1003300013044FEA0B3343EA14534FEA0432019C8F
:1003400043EA0603A4F10C040294009CCDE900B436
:1003500000F014F9A2E72DE9F04D81EA030404F05E
:10036000004B21F0004514464FF0000A23F00041F5
:1003700050EA050220D054EA01021DD0C5F30A5705
:100380000246C5F31303C1F31300C1F30A5640F448
:10039000801543F48013A7EB0608101BD64608F21D
:1003A000FD3873EB050002D308F1010801E0921853
:1003B0005B41B8F1000F03DA00200146BDE8F08D83
:1003C00000204FF48011064684460EE0171B73EBA5
:1003D000050705D3121B63EB050306434CEA010C2A
:1003E00049084FEA300092185B4150EA0107EDD10D
:1003F00052EA030012D082EA040083EA05010843AE
:1004000003D100224FF0004308E0101BAB4102D2A1
:100410000122002302E06FF0010253101AEB0600E4
:100420004CEB085110EB0A0041EB0B01BDE8F04D1D
:1004300000F097B870B5C1F30A5201F000450024EE
:10044000C1F3130140F2FF3341F480119A4201DA03
:10045000002070BD40F233439A42A2F2334203DCE3
:10046000524200F05CF800E090402C43F1D0404252
:1004700070BD30B50B46014600202022012409E062
:1004800021FA02F59D4205D303FA02F5491B04FA4D
:1004900002F52844151EA2F10102F1DC30BD2DE960
:1004A000F05F0546002092469B46884606468146F8
:1004B00040241BE0284641464746224600F02FF8DC
:1004C00053465A46C01A914110D311461846224647
:1004D00000F016F82D1A67EB01084F46224601205E
:1004E000002100F00DF817EB00094E41201EA4F189
:1004F0000104DFDC484631462A464346BDE8F09F0A
:10050000202A04DB203A00FA02F1002070479140D3
:10051000C2F1200320FA03F3194390407047202AC8
:1005200004DB203A21FA02F00021704721FA02F39D
:10053000D040C2F120029140084319467047202A5A
:1005400006DBCB17203A41FA02F043EAE07306E0FB
:1005500041FA02F3D040C2F120029140084319460B
:10056000704710B5002B08DA401C41F100019218C9
:100570005B411A4301D120F0010010BD2DE9F04D7F
:1005800092469B4611B1B1FA81F202E0B0FA80F2D4
:1005900020329046FFF7B4FF04460F4640EA0A00B7
:1005A00041EA0B0153465A46084303D120463946D7
:1005B000BDE8F08D114653EA010015D0C8F14002A4
:1005C0005046FFF7ACFF05460E4650465946424698
:1005D000FFF796FF084301D0012000E0002005430B
:1005E00046EAE0762C4337430A984FEA4453A0EB9F
:1005F00008004FEAD4240A304FF0000244EA47547E
:100600004FEAD72502D500200146D1E70105101990
:100610006941DDE9084500196941BDE8F04DA0E7F1
:10062000C1F30A52C1F3130140F2FF3341F48011C8
:100630009A4202DA00200146704740F233439A4260
:10064000A2F2334202DC5242FFF769BFFFF758BF04
:1006500030B5002904DB4FF00044404264EB010157
:10066000002B04DB4FF00044524264EB0303994239
:1006700008BF904230BD0000064C074D06E0E06820
:1006800040F0010394E8070098471034AC42F6D3D9
:10069000FFF730FD98360008B836000882B02DE923
:1006A000FF1FEFF3038001B4684600F1400000E94A
:1006B00001400C480168C1F800D00B48D0F800D0C8
:1006C00001BC80F30388BDE8FF1F01B000BD0648F0
:1006D000D0F800D001BC80F30388BDE8FF1F01B053
:1006E00000BD0000580000205400002010B5044652
:1006F00060680849086008460068074908604FF4C8
:10070000A0414FF0006001F0A1F803480068804765
:1007100010BD0000940000209000002006E04FF47F
:100720007A7100BF0A00A1F10101FBD10200A0F122
:100730000100F4D17047F0B5034600201C460D4679
:10074000104603E014F8016B05F8016B1600A2F1E6
:100750000107BAB2F6D1F0BD00BFFEE702E0002209
:1007600000F8012B0A00A1F1010399B2F7D17047FB
:100770000FB42DE9F04186B0002501260027B00214
:1007800000F0ACFE044654480078FF2801D1012057
:1007900000E0002050490978504A1278914201D176
:1007A000012100E0002108437DD00DA805902046DE
:1007B000059A0C9902F0C8F9002005900DA8059043
:1007C00069460C9800F041FD06462AE02846691C5F
:1007D000CDB21DF80000012804D0022806D003285D
:1007E0001AD115E0059880C8059019E00598C01D3C
:1007F00020F007000590D0E90021DDF814C00CF1CD
:10080000080C1046CDF814C0FFF714FE074607E0A9
:10081000059880C8059003E0059880C8059000BF42
:1008200000BF3000A6F10106D0D1059880C8059020
:10083000002005902A480078FF2801D1012000E01F
:10084000002027490978B94201DB012100E000219D
:10085000084338D0214623A001F03CF92248007813
:1008600010F0020F0DD02149087800F0C7F940B10F
:10087000204600F070FD8046424621461C4802F0AA
:1008800047F91948007810F0040F0FD0174948783D
:1008900000F0B4F950B1204600F05DFD80464246BC
:1008A0002146144800E011E002F032F912480068D5
:1008B00048B1204600F04FFD00F0FF0841462046B9
:1008C0000D4A12689047204600F0E2FD06B0BDE8F0
:1008D000F0015DF814FB000084000020640000209B
:1008E000860000200D0A000085000020280000205E
:1008F000003801400044004088000020704700009C
:1009000010B500201A4908704FF4A07000F0E6FD01
:1009100018490860002406E0FF20174908551749C8
:100920000855601CC4B2022CF6DB00241DE0002038
:100930001049096801EB4411486103200D49096819
:1009400001EB4411087200200A49096801EB4411C7
:1009500008610849096801EB4411C8600549096844
:1009600001EB44118861601CC4B20A2CDFDB10BDAE
:10097000780000207C000020280000202A000020B1
:1009800070B50546284601F06FFF04465F48005DDC
:10099000FF2808D15E4800785C4908555C4800781B
:1009A000401C5B4908705BA05849095D5B4A1268AE
:1009B00002EB4111086000205449095D574A126852
:1009C00002EB4111487101205049095D534A1268F8
:1009D00002EB4111C87103204C49095D4F4A12686E
:1009E00002EB411108724E484849095D4B4A1268B2
:1009F00002EB411148614548005D4849096801EB37
:100A00004010C46147494148005D444A126802EB06
:100A10004010C16044483D49095D404A126802EBFC
:100A20004111086100213948005D3C4A126802EB1F
:100A30004010816100203D4921F814004FF4966078
:100A400000F04CFD3A4941F82400284601F00CFF23
:100A500004463848005DFF2808D12D480078354904
:100A600008552B480078401C2949087032A03149AC
:100A7000095D2A4A126802EB4111086000202D49E5
:100A8000095D264A126802EB41114871012129488B
:100A9000005D224A126802EB4010C1710320254913
:100AA000095D1E4A126802EB411108721C49214877
:100AB000005D1A4A126802EB401041611D48005D5A
:100AC0001649096801EB4010C46116481949095DCF
:100AD000124A126802EB4111C86013481549095DBA
:100AE0000E4A126802EB4111086100201149095DAC
:100AF0000A4A126802EB411188614FF4967000F0C7
:100B0000EDFC0F4941F8240070BD00002A000020D0
:100B10007800002055534152527800007C0000209C
:100B2000F9250008F12A0008112A000840000020D9
:100B30003000002028000020555341525478000016
:100B40003800002010B5032124A0FFF711FE002477
:100B500041E02948006800EB44104069C8B32648CA
:100B6000006800EB4410C079012806D0022817D095
:100B700003280ED004282BD11EE01F4A126802EB76
:100B80004412107F1C4A126802EB441251698847D4
:100B90001EE01949096801EB44114869804717E0D4
:100BA000154A126802EB4412D069134A126802EB2C
:100BB0004412516988470BE00F4A126802EB441255
:100BC000D0690D4A126802EB44125169884700BF90
:100BD00000BF601CC4B20A2CBBDB10BD546F732075
:100BE00044657669636520496E69742E2E2E2E2E1B
:100BF0002E2E2E2E2E0000007C0000200146FF2904
:100C000001D1002070470548006800EB41104069A1
:100C100008B90020F6E70120F4E700007C0000207E
:100C2000BAB081460027CA46504601F01DFE044670
:100C30000120034605220146009004A800F074FC40
:100C4000E9E0754951F824004FF49661FFF786FDFD
:100C500000234FF496621946504601F0F1FE054616
:100C60006D4951F8240004AA294600F0F4FC054619
:100C70002E469DF81E00002878D19DF813002928E3
:100C800077D02A2863D02C2802D02F2870D13DE0BD
:100C90003C2062490870604850F82400805DB842EA
:100CA00023D15D4A52F82430721C99185A4A52F8DE
:100CB0002420925D5A4B4FF4806C0CFB023062464C
:100CC00000F0A7F95748007D40B13A46791C8FB231
:100CD00055A108A800F02CFB054616E03A4656A19F
:100CE00008A800F025FB05460FE04E48007D30B116
:100CF0003A464DA108A800F01BFB054605E03A4620
:100D00004DA108A800F014FB05464CE00027012087
:100D10004449087500F032FE3C20404908703E49C5
:100D200051F82410881901F009FF834600F032F9C8
:100D3000394951F82410881901F000FFC0F38F28B9
:100D4000424643A108A800F0F3FA05462BE0781EBE
:100D5000404500D027E000F0F9F80020314908753F
:100D600000F00CFE2E48FFF7C1FC1CE03DE000E067
:100D700013E03C20294908703AA108A800F0D8FAED
:100D8000054608A9481900F0A1FA054408A9481920
:100D900036A100F0CDFA054405E008A93AA000F01C
:100DA00087FE054600BF00BF012000901A4850F89A
:100DB000240081780123052204A800F0B5FB08A8CF
:100DC0000121CDE901050091324951F824000123A8
:100DD0001A4604A900F0B3FB05462E4850F824102B
:100DE0002A46504601F094FE15E09DF81E000628A4
:100DF00011D09DF81E00052807D1074850F824108F
:100E0000012225A0FFF7B4FC05E09DF81E10032287
:100E100022A0FFF7ADFC14E7300000208C0000207A
:100E200000500008B84E0020506167655B25645D86
:100E3000204F4B0D0A0000004E6F74204572617305
:100E4000655B25645D204661696C0D0A0000000049
:100E500045726173655B25645D4B62204F4B0D0AE3
:100E60000000000046696E6420000000204F4B2007
:100E70000D0A5452544F5320426F6F7420566572BE
:100E8000322E300D0A000000B9CCBCFEB4EDCEF31A
:100E900000000000380000202573000025640000D9
:100EA000012000F003F800F0DDFA000001490860BD
:100EB000704700001404014030B5044604254FF487
:100EC000302000F093F80546042D17D10C48006936
:100ED00040F002000A49086108464461006940F098
:100EE000400008614FF4302000F080F805460448C7
:100EF000006941F6FD71084001490861284630BD8E
:100F00000020024004200B49C96811F0010F01D0F4
:100F100001200EE00749C96811F0040F01D002203A
:100F200007E00449C96811F0100F01D0032000E068
:100F300004207047002002400348006940F0800010
:100F400001490861704700000020024010B5FFF71A
:100F5000F3FF10BD70B504460D460426F00200F004
:100F600045F80646042E11D10948006940F00100F9
:100F7000074908612580F00200F038F80646044869
:100F8000006941F6FE71084001490861304670BDB4
:100F900000200240F8B504460425002600200090F9
:100FA00000F018F8204600F003FA06460AE0084A66
:100FB0009314009903FB0120FFF77EFF054600987C
:100FC000401C00900098B04201D2042DEFD0F8BD33
:100FD00000500008024803494860034848607047D1
:100FE0002301674500200240AB89EFCD00B50246E2
:100FF0000423FFF787FF034603E0FFF783FF034661
:10100000521E012B01D1002AF7D102B9052318463F
:1010100000BDF8B504460E461746354600940EE06E
:1010200029880098FFF796FF288800990988884248
:1010300001D00020F8BDAD1C0098801C0090E01984
:1010400000998842ECD80120F4E770B50B460446BD
:1010500003E014F8015B03F8015B1500A2F101063F
:10106000B2B2F6D170BD2DE9F04706468846144667
:101070000027C14600F0B0F92046E11704EBD1513A
:10108000C1F34F27E11704EBD1514912B4EB4121D1
:1010900001D0781C87B2002507E04FF4007101FBF6
:1010A000076000F07BF9681C85B2BD42F5DB0025C6
:1010B00008E039F8021B2A466B1C9DB206EB420081
:1010C00000F082F92000A4F101018CB2F1D100F00E
:1010D0006BF9BDE8F08770B504460025107820B1A3
:1010E00016782068B0FBF6F085B2206808442060CE
:1010F0001078984203DA1078401C107002E02068E3
:10110000401B206016782068B0FBF6F080B270BDFE
:1011100010B500F065F900B110BD00F061F900B143
:10112000FAE701200249087500F028FC00BFF3E748
:10113000B84E00202DE9F04102460025002600208F
:1011400000230024002791F803C00CF00F0591F84C
:1011500003C01CF0100F03D091F802C04CEA050543
:1011600091F800C0BCF1000F31D0146800202BE0D2
:101170004FF0010C0CFA00F3B1F800C00CEA0306C2
:101180009E4220D183004FF00F0C0CFA03F7BC43B2
:1011900005FA03FC4CEA040491F803C0BCF1280FE3
:1011A00006D14FF0010C0CFA00FCC2F814C00AE0A2
:1011B00091F803C0BCF1480F05D14FF0010C0CFAB7
:1011C00000FCC2F810C0401C0828D1D31460B1F84C
:1011D00000C0BCF1FF0F34DD546800202EE000F1A8
:1011E000080C4FF0010808FA0CF3B1F800C00CEA43
:1011F00003069E4221D183004FF00F0C0CFA03F737
:10120000BC4305FA03FC4CEA040491F803C0BCF1AA
:10121000280F05D100F1080C08FA0CF8C2F8148068
:1012200091F803C0BCF1480F07D100F1080C4FF052
:10123000010808FA0CF8C2F81080401C0828CED328
:101240005460BDE8F08101617047F0B504460A467C
:10125000002300200025214633E00E78252E02D100
:101260000125461CB0B2012D2AD10E78642E06D17C
:10127000AC461E465F1CBBB202F806C000250E78C5
:10128000662E07D14FF0020C1E465F1CBBB202F85F
:1012900006C000250E78732E07D14FF0030C1E46B2
:1012A0005F1CBBB202F806C000250E78632E07D182
:1012B0004FF0040C1E465F1CBBB202F806C00025AE
:1012C000491C0E78002EC8D1F0BD0000FEB50546C1
:1012D00000261648006800901448001D006802901F
:1012E000124808300068019000241BE014E05DF80B
:1012F00024003E21B0FBF1F201FB1207384600F05A
:101300008BFC3146721CD6B268545DF824003E2135
:10131000B0FBF1F04DF824005DF824000028E6D180
:10132000601CC4B2032CE1DB3046FEBDE8F7FF1FB2
:101330000FB438B5044606A800902046009A0599D7
:1013400001F002FC00200090204600F004F8C0B23A
:1013500038BC5DF814FB10B5014600200A4601E0D8
:10136000431C98B212F8014B002CF9D110BD024673
:10137000002039B950784FF6FF7303EA0020137844
:10138000184306E010784FF6FF7303EA0020537805
:101390001843704701E000F065F8FCE710B504461B
:1013A0002046FFF789FD10BD10B5FFF7C5FD10BD44
:1013B00001B500200099CA05D20D03D0012202EB2D
:1013C000512000E0480A08BD70B504460D46294684
:1013D0002046FFF7BFFD70BD10B5FFF7FBFD10BD48
:1013E00010B50023024A0349034800F007F810BD76
:1013F000B84E0020004C00084B1000082DE9F047C3
:101400000746884614461D46A14608EBC52004221F
:101410002146B8474E463088B0F5006F01DD012007
:1014200000E000203188042901DA012100E00021D8
:10143000084300D013E0328808EBC5202146B847A6
:101440003088001F81B209F1040000F0FBFB8246E6
:101450007188514500D002E00120BDE8F0870020EE
:10146000FBE7000071B600BF0648006800F4E060CA
:1014700005490843001D03490860BFF3408F00BFC2
:1014800000BFFEE70CED00E00000FA0500BFFEE73C
:1014900002460A4B1868002106E0A2F108038342C5
:1014A00000D107E0014600680368002BF5D101B1C7
:1014B0000B60704703680B6000BFFAE780000020F4
:1014C000054908600021044A126811600821024A97
:1014D00012685160704700008000002010B503467C
:1014E0001048016803F1080083B20FE00868401A51
:1014F0004C68001B984208D348684218536008683B
:1015000010600A6002F1080010BD09680868002830
:10151000ECD1486842180020106053600A6002F164
:101520000800F1E78000002030B5039C7E2505709F
:101530007F25057382704170C373447330BD2DE9FC
:10154000F05F06460C4691469A46DDF828B00C9F9F
:10155000002584F8039084F804A084F808B067811B
:1015600017B1F81CE08001E00020E08022782846D6
:10157000691C8DB23254E07B50B9A2782846691CB0
:101580008DB2325462782846691C8DB232540CE018
:10159000E07B012809D162782846691C8DB232545B
:1015A000A2782846691C8DB23254E2782846691C1C
:1015B0008DB2325422792846691C8DB23254E088AB
:1015C00002122846691C8DB23254A2792846691C41
:1015D0008DB23254BFB1227A2846691C8DB2325482
:1015E000608902122846691C8DB23254A27A2846BC
:1015F000691C8DB23254628971190B98FFF79BF800
:101600006089284485B2607B012810D12946304684
:1016100000F018FB80464FEA28222846691C8DB24C
:1016200032542846691C8DB206F800800BE0607BBE
:10163000022808D1681E81B2304600F023FB2946FB
:101640006A1C95B27054227B2846691C8DB23254B4
:101650002846BDE8F09F2DE9F05F06468B4614460C
:101660000025AA460120A07329466D1C705C2178D4
:10167000884200D099E0E07B50B92846691C8DB2C1
:10168000305C6178884200D093E0681C85B220E02D
:10169000E07B01281DD12846691C8DB216F8008018
:1016A000A078404501D0012000E00020B8F1FF0FF4
:1016B00001D0012100E00021084200D079E0681C3F
:1016C00085B2B8F1FF0F02D14FF0010901E04FF0F0
:1016D00000092846691C8DB2305CE0702846691C00
:1016E0008DB2305C20712846691C8DB2305CE08080
:1016F000E0884FF6FF7101EA0020E080E08829468B
:101700006A1C95B2715C0843E080E08800B328460B
:10171000691C8DB2305C20722846691C8DB2305C29
:10172000608160894FF6FF7101EA00206081608965
:1017300029466A1C95B2715C08436081AA4660899B
:10174000284485B2E1886089C01C814200D034E021
:10175000607B022809D12946304600F093FA0746FB
:10176000715DB94200D01CE010E0607B01280CD113
:101770002946304600F066FA074670190121FFF746
:10178000F6FDB84200D00CE000E000BFB9F1010F57
:1017900002D10620A07301E00020A0735046BDE8EE
:1017A000F09F0220A0730020F9E70520A07300201D
:1017B000F5E70620A0730020F1E70120A0730020C8
:1017C000EDE7704770B5002100230F22C4780CB3F9
:1017D000164C246804F4E064C4F5E064210AC1F105
:1017E0000403CA40447804FA03F184781440214386
:1017F00009010F4C0678A155047804F01F05012457
:10180000AC4005786D114FF0E02606EB8505C5F874
:10181000004109E0047804F01F050124AC40054DA7
:101820000678761145F8264070BD00000CED00E00A
:1018300000E400E080E100E002490143024A116057
:10184000704700000000FA050CED00E0024A0A4073
:101850000243024B1A60704780FFFF1F08ED00E053
:101860007047000029B1064AD2690243044BDA618D
:1018700004E0034AD2698243014BDA6170470000F9
:101880000010024029B1064A92690243044B9A6152
:1018900004E0034A92698243014B9A617047000059
:1018A0000010024030B500210022002400232D4DFD
:1018B0006D6805F00C0121B1042905D0082923D158
:1018C00005E0294D056022E0274D05601FE0254D0C
:1018D0006D6805F47012234D6D6805F4803402259F
:1018E00005EB92421CB9214D554305600BE01D4D9F
:1018F0006D6815F4003F03D01C4D5543056002E0B0
:10190000194D5543056002E0174D056000BF00BF4B
:10191000144D6D6805F0F0010909154D6B5C056803
:10192000DD4045600F4D6D6805F4E061090A104D1A
:101930006B5C4568DD4085600A4D6D6805F460515B
:10194000C90A0B4D6B5C4568DD40C560054D6D688F
:1019500005F44041890B074D6B5CC568B5FBF3F599
:10196000056130BD0010024000127A0000093D0000
:1019700000000020100000207047000010B5182063
:101980000449088000230A460349044800F008F887
:1019900010BD0000B84E0020004C00086710000881
:1019A0002DE9F0478046894614461F4625462E46B7
:1019B0003088001F81B2201D00F044F97080328809
:1019C00009EBC7202946C047BDE8F08710B500F0F5
:1019D00001F810BD0CB5002001900090324800685D
:1019E00040F480303049086000BF2F48006800F4A0
:1019F000003000900198401C0190009818B901989F
:101A0000B0F5A06FF1D12848006810F4003F02D073
:101A10000120009001E0002000900098012842D1B0
:101A20002248006840F0100020490860084600681D
:101A300020F0030008600846006840F002000860DB
:101A40001948406818494860084640684860084698
:101A5000406840F4806048600846406820F47C108C
:101A600048600846406840F4E8104860084600684E
:101A700040F08070086000BF0B48006810F0007FE5
:101A8000FAD00948406820F003000749486008463A
:101A9000406840F00200486000BF0348406800F022
:101AA0000C000828F9D10CBD0010024000200240B3
:101AB00030B503460C4600201946224605E011F8D1
:101AC000015B02F8015B451CA8B20D78002DF6D130
:101AD000157030BD2DE9F04106460D462C463746BF
:101AE0002846FFF738FC04443046FFF734FC8046B4
:101AF00018F1010001D1BDE8F08103E017F8010BF6
:101B000004F8010B5FEA0800A8F10108F6D104F817
:101B1000010B00BFEFE710B500F08AF910BD00001F
:101B200030B51249B1F1807F00D31DE021F07F4034
:101B3000401E4FF0E022506150170F22002807DAB4
:101B400013071D0E0A4B00F00F04241F1D5503E060
:101B500013071C0E074B1C5400BF00204FF0E0225F
:101B600090610720106100BF30BD000040190100E6
:101B700018ED00E000E400E010B51348006840F004
:101B800001001149086008464068104908400E49A4
:101B90004860084600680E4908400B49086008463E
:101BA000006820F4802008600846406820F4FE00A9
:101BB00048604FF41F008860FFF708FF4FF0006097
:101BC0000449086010BD0000001002400000FFF84A
:101BD000FFFFF6FE08ED00E0FFF79AFAFFF700FCC2
:101BE00012E0C82000F0E6F908480078401E0749D6
:101BF00008700748007D08B10A2008700348007883
:101C000010B90448FEF772FDEBE700008C000020DD
:101C1000B84E0020005000080146002905DB0929C4
:101C200003DC01F13000C0B270470A2905DB23292B
:101C300003DC01F13700C0B2F6E701F13D00C0B2AC
:101C4000F2E70000F0B502460C46FF21FF25002612
:101C50000BE012F8017B87EA0503084FFF5C87EA77
:101C60000105074FF95C771CBEB2A642F1DB0846BE
:101C70004FF6FF7707EA00202843F0BD60340008E4
:101C80006035000810B50246002002E012F8013B62
:101C900058400B00A1F10104A1B2F7D110BD000022
:101CA00010B510480078132804D00F480078401C65
:101CB0000D4908700D480078401C0C490870084612
:101CC000007864280DDD002008701423084A0648B7
:101CD00001780848FFF7FFF907490870002002491A
:101CE000087010BD64000020500000204800002053
:101CF000490000204C0000205C00002010B54FF48B
:101D00007070FFF7EBFB1E49086002201D49487008
:101D100000204860002428E0012004EB4401184A18
:101D2000126802EB01110881002004EB4401144AFF
:101D3000126802EB01118861002104EB4400104A93
:101D4000126802EB00100160002004EB44010C4A11
:101D5000126802EB0111C86104EB4401084A1268E1
:101D600002EB01110884601CC4B2142CD4DB1320D4
:101D7000054908700020054908600549086010BD44
:101D80006C0000205C000020640000207000002037
:101D90007400002070B50446FFF7B0FF04E094E83B
:101DA0000F0000F0D5F8103420680028F7D100F0BB
:101DB00027F870BDFEF7C6FE04E0642000F0FAF8D4
:101DC00000F002F8F9E7000010B50C48046804B907
:101DD00010BD0EE02468A07A10F0010F09D0A07A9F
:101DE00010F0020F05D0E0688047A07A20F00200D2
:101DF000A07220680028EDD100BFE9E77400002040
:101E000008B5FFF78DFE4FF4FA6005A300220749DD
:101E10000090132000F034F8132000F023FA08BDDE
:101E20005461736B526F6F7400000000B51D0008A1
:101E300010B5FFF735FF00F053F908484078402807
:101E400005D1032106A0FEF793FCFFF70BFB0B481F
:101E5000006808B100F0DAFA10BD00005C00002054
:101E60005461736B2054696D654F75742057696CAC
:101E70006C20544F53205265736574007400002029
:101E80002DE9F04704460D4691461F46DDF82080B7
:101E90000DB9BDE8F08704EB44002C49096801EB5B
:101EA00000100089012800D0F3E704EB4400274923
:101EB000096801EB0010008C98B91FFA88F0FFF751
:101EC0000DFB064604EB4401204A126802EB0111A7
:101ED000A1F8208004EB44011C4A126802EB0111B6
:101EE000CE6104EB4402194B1B6803EB0212118C08
:101EF00004EB4402154B1B6803EB0212D06900F09F
:101F000051FA8246022104EB4400104A126802EBA7
:101F10000010018104EB44000C49096801EB00103A
:101F2000456004EB44000949096801EB0010C762F1
:101F30004A462946504600F05DF904EB4401034A45
:101F4000126802EB0111086000BFA2E76C000020DC
:101F50002DE9F84305460E461746984600241AE038
:101F600004EB44001249096801EB0010008900B934
:101F700012E004EB44000E49096801EB00100089EF
:101F8000012800D108E0601C80B20446142802DB5E
:101F90000020BDE8F883E3E700BFE0B23B463246ED
:101FA0002946CDF80080FFF76BFF0120F1E7000024
:101FB0006C00002010B504461348407801281FD05B
:101FC00000201249097801EB4101114A126802EB25
:101FD000011188610D48007800EB40000C49096848
:101FE00001EB0010446110210848007800EB40002C
:101FF000074A126802EB0010018100F083F902E049
:102000002046FEF78BFB10BD5C0000206400002022
:102010006C00002001460D48006800EB4110007A7A
:1020200008B9002070470948006800EB411040796A
:10203000074A1278904201D00020F3E70120034ABA
:10204000126802EB4112107200BFEBE77C00002027
:102050006400002070B504460D4600BF1E480068AD
:1020600000EB4410007A30B1012815D0022804D0CA
:1020700003282FD11FE0002070BD1748006800EB37
:102080004410407915490978884201D10120F3E7CD
:10209000204600F0E5F9E1E702200F49096801EB6D
:1020A000441108720D4800780B49096801EB44118E
:1020B00048710120E0E702200749096801EB44115B
:1020C0000872064800780449096801EB4411487118
:1020D0000120D1E70020CFE77C0000206400002031
:1020E000002056E000EB40012B4A126802EB011180
:1020F0000989022902D0102947D11DE000EB4001D7
:10210000254A126802EB01118969491C00EB400263
:10211000214B1B6803EB0212916100EB40011E4A48
:10212000126802EB0111896944F62062914202D9DA
:1021300040211A4A517029E0002100EB4002164B61
:102140001B6803EB0212916100EB4001124A126816
:1021500002EB0111496941B9022100EB40020E4B2B
:102160001B6803EB021211810EE000EB40010A4AEA
:10217000126802EB01114969491E00EB4002064B4F
:102180001B6803EB0212516100E000BF00BF411C5D
:10219000C8B21428A6DB70476C0000205C00002049
:1021A00010B504460F480078A04200D110BD0D487C
:1021B000007800EB40000C49096801EB00100B4966
:1021C000086008480470007800EB40000649096880
:1021D00001EB0010006806490860FEF75FFA00BFD7
:1021E000E4E70000640000206C000020580000209C
:1021F0005400002030B503461846041F20462160D5
:10220000041F204623600025041F20462560041F6C
:1022100020462560041F20462560041F20462560B7
:10222000041F20462560041F20462560041F204609
:102230002560041F20462560041F20462560041FDA
:1022400020462560041F20462560041F2046256087
:10225000041F204622604FF08075041F2046256031
:1022600030BD000010B5044604EB44000449096881
:1022700001EB0010006803490860FEF728FA10BD62
:102280006C0000205400002010B50446142C01DB23
:10229000002010BD04EB44001949096801EB00104F
:1022A0000089012801D10020F3E704EB4400144920
:1022B000096801EB00100089042801D10020E8E73B
:1022C00004EB44000E49096801EB0010008908285E
:1022D00001D10020DDE7082004EB4401084A126820
:1022E00002EB01110881002004EB4401044A12684A
:1022F00002EB0111486100F005F80120C9E7000078
:102300006C00002010B5022123480068A0F8981343
:1023100000243DE004EB44001F49096801EB001074
:102320000089022802D020282ED107E01B4800781F
:10233000A04202D02046FFF733FF10BD04EB44005B
:102340001549096801EB001090F82200144909684A
:1023500001EB4010007A012815D1102004EB440154
:102360000D4A126802EB01110881032004EB4401BD
:10237000094A126802EB011191F82210084A12680A
:1023800002EB4111087200E000BF00BF601CC4B244
:10239000142CBFDB00BFD0E76C00002064000020DD
:1023A0007C0000200246501820F00303A3F1300007
:1023B00020F007007047000010B5142800DB10BDA6
:1023C00000EB4002104B1B6803EB02121289042A37
:1023D00000D1F4E7002200EB40030B4C246804EB2F
:1023E00003139A61102300EB4002074C246804EBAE
:1023F0000212138100EB4002034B1B6803EB021235
:10240000516100BFDBE700006C00002010B51348ED
:10241000006800B910BD11480068E0B10F480068BD
:10242000807A10F0010F16D00C48006800890B4923
:1024300009688988884207DB08490968C8688047B5
:102440000020064909680881044800680089401C8A
:1024500002490968088100BFDCE700007400002021
:1024600010B504460B48007800EB40000A490968A3
:1024700001EB001080F8224020200649097801EB8A
:102480004101054A126802EB01110881FFF73AFF8A
:1024900010BD0000640000206C00002010B540F268
:1024A00025510E4800F0B5F9B8B10C48001D008860
:1024B000C4B20B4800880B49098888420DDA0848E5
:1024C00001880088401C064A108007480068445470
:1024D000064908780A21FFF76FFF10BD0038014058
:1024E0004400002040000020300000202E0000208A
:1024F00010B540F22551114800F08BF9C0B10F48DA
:10250000001D0088C4B20E4840880E4949888842A0
:1025100013DA0B4841884088401C094A50800A4819
:1025200040684454094948780A21FFF745FF04E010
:1025300040F22551014800F044F810BD004400402D
:102540004400002040000020300000202E00002029
:1025500010B540F22551114800F05BF9C0B10F48A9
:10256000001D0088C4B20E4880880E4989888842C0
:1025700013DA0B4881888088401C094A90800A48F9
:1025800080684454094988780A21FFF715FF04E060
:1025900040F22551014800F014F810BD00480040F9
:1025A0004400002040000020300000202E000020C9
:1025B00001F40072B2F5007F00D100BFCA4302806F
:1025C000704710B500220023A1F510646A3C00D1C9
:1025D00000BF0A1201249440A3B2DC43048010BD62
:1025E00021B1828942F40052828104E082894DF651
:1025F000FF731A408281704770B50446204600F090
:1026000057F9054600F076F8062C2ED2DFE804F0E4
:10261000030A11181F2625224FF4E131144800F057
:1026200031F822E026224FF4E131124800F02AF876
:102630001BE027224FF4E1310F4800F023F814E0AB
:1026400027224FF4E1310C4800F01CF80DE0342251
:102650004FF4E131094800F015F806E035224FF457
:10266000E131074800F00EF800BF00BF70BD000068
:10267000003801400044004000480040004C004049
:102680000050004070B586B006460C4615460194D1
:102690000020ADF80800ADF80A00ADF80C00ADF868
:1026A00010000C20ADF80E0001A9304600F044F9EE
:1026B000012240F22551304600F018F90121304640
:1026C000FFF78EFF40213046FFF772FF4FF4806026
:1026D000FFF7B2F88DF8145002208DF81500012094
:1026E0008DF816008DF8170005A8FFF76BF806B0F7
:1026F00070BD000038B50446274884420BD10D2038
:102700002315264A51150090104600F057F8012174
:102710008803FFF7B7F8224884420BD1042008232E
:102720001E4A01460090104600F048F80121480476
:10273000FFF798F81B4884420FD10920E3141A4A86
:1027400011150090104600F039F801218804FFF7B8
:1027500089F801218804FFF795F8144884420BD1C9
:102760001120E314124A11150090104600F026F8CB
:102770000121C804FFF776F80E4884420BD13120BE
:1027800004230D4A91140090094800F017F8012124
:102790000805FFF767F838BD003801400008014020
:1027A0000044004000480040000C0140004C004044
:1027B0000010014000500040001401402DE9F84392
:1027C00007460D4616461C46DDF82080012140468E
:1027D000FFF758F8ADF8005003208DF802001820DC
:1027E0008DF8030069463846FEF7A4FCADF80040BA
:1027F00004208DF8030069463046FEF79BFC29460D
:102800003846FEF720FD21463046FEF71CFDBDE8A8
:10281000F88370B502460024002300250020A1F5AE
:1028200010666A3E00D100BFC1F3421501F01F03DC
:10283000012606FA03F3012D02D19689334006E002
:10284000022D02D1168A334001E0968A33400C12E1
:10285000012606FA04F41688344013B10CB10120A5
:1028600000E0002070BD000001460F4A881A914226
:1028700013D006DC0D4808180BD0B0F5806F10D1CE
:1028800009E0B0F5806F0AD0B0F56C4F09D1002097
:1028900070470120FCE70220FAE70320F8E7042054
:1028A000F6E70020F4E70000004C004000BCFFBF4A
:1028B000014605290ED2DFE801F0030507090B00E8
:1028C000054870470548FCE70548FAE70548F8E77A
:1028D0000548F6E70020F4E70038014000440040D6
:1028E00000480040004C004000500040F0B5034656
:1028F0000024002600250020A1F510676A3F00D1C2
:1029000000BF1846C1F3421401F01F06012707FA61
:1029100006F5012C01D10C3004E0022C01D110305D
:1029200000E014301AB107682F43076002E007681F
:10293000AF430760F0BD00002DE9F04785B00546C4
:102940000E460024A24600BFA1460027B08900B170
:1029500000BF2F462C8A4CF6FF700440F0880443D9
:102960002C82AC8928480440B08831890843718999
:1029700008430443AC81AC8A4FF6FF400440B08961
:102980000443AC826846FEF78DFF2048874202D19F
:10299000DDF80CA001E0DDF808A0A88910F4004FD4
:1029A00008D00AEBCA0000EB0A1031684900B0FBFE
:1029B000F1F807E00AEBCA0000EB0A103168890061
:1029C000B0FBF1F86420B8FBF0F0040120096421A9
:1029D00001FB1089A88910F4004F08D0322000EBC9
:1029E000C900B0FBF1F000F00700044308E032201A
:1029F00000EB09106421B0FBF1F000F00F0004437C
:102A00002C8105B0BDE8F087FFFEF0FF00380140E3
:102A10002DE9F04705460E4614462F46B046A1461E
:102A20003846FFF721FF824600234FF49662414665
:102A3000384600F005F8A9F80000BDE8F08700006E
:102A40002DE9F04780460F4615461E464046FFF7E3
:102A50000BFF04462049085D0021FFF7FBFA814681
:102A6000B9F1000F28D0012240F225514046FFF76E
:102A70003DFF1A4800781A490855B5F5966F01DBF5
:102A80004FF49665174820F814500020164921F895
:102A900014001EB13046FFF78DFA03E01049085DBF
:102AA000FFF7F2FB0C49085DFFF7B4FA002240F291
:102AB00025514046FFF71AFF47B10B4931F8142062
:102AC0000A4951F824003946FDF735FE064830F82A
:102AD0001400BDE8F08700002A00002064000020F8
:102AE0002E00002040000020440000203000002084
:102AF0002DE9F04304460D4616462746A846B6F88B
:102B000000904A464146384600F002F8BDE8F0839E
:102B100010B50B46002108E000BF048814F0800FB8
:102B2000FBD05C5C84804C1CA1B29142F4DB10BDF4
:102B300000B54FF48020FEF7B9F900BD01460A4602
:102B40001068704700BFFEE737B514460846064BCD
:102B50006A46214600F0C8F804466946002000F0A5
:102B600066FC20463EBD00002F34000802E008C885
:102B7000121F08C1002AFAD170477047002001E0F7
:102B800001C1121F002AFBD1704700002DE9FF5F31
:102B9000DDE90220010DDDF838B0024310D10F98B5
:102BA00001244CA2012808D0002100980F9BC0E905
:102BB0000021C0E90243BDE8FF9F6FEA0B01F4E783
:102BC000A1F2FF3144F6105041430D140F98012833
:102BD0000ED0A5EB0B00401C4FF000043E4EDFF87A
:102BE000FC90B0F1000AA04605DACAF1000717E030
:102BF000CBF10000F0E7074612E0F80707D02246C5
:102C0000334640464946FDF734FB80468946224616
:102C1000334610461946FDF72CFB04460E467F103E
:102C2000002FEAD1DDE90201BAF1000F42464B461E
:102C300002DAFDF71EFB01E0FDF78DFB04460E46B0
:102C40000022274BFDF704FD03D84FF0FF3001466B
:102C500007E00022234B20463146FDF763FAFDF7DB
:102C6000DFFC102409E0002C0ADB0A220023FDF718
:102C700016FC019B30321A55641E50EA0102F2D153
:102C8000641C019AC4F1110314440F9A012A09D05B
:102C90000122084301D15B450FDD4FF0000205F131
:102CA00001050DE0084303D1A3EB0B056D1E09E000
:102CB00000204FF0110B0F9088E701DA00226D1E03
:102CC000002A83D000980F99C0E90231C0E900457D
:102CD00071E7000030000000000024400000F03FD9
:102CE0000000F0430000E03F2DE9FF4F95B09B4608
:102CF00089460646002512E2252878D10024761C54
:102D0000F94A2746012105943378203B01FA03F064
:102D1000104202D00443761CF6E730782A2811D0FE
:102D20006FF02F033078A0F13002092A16D8059AE7
:102D300044F0020402EB820203EB42021044761CD0
:102D40000590EFE759F8042B0592002A03DA504268
:102D500044F40054059044F00204761C30782E2888
:102D600016D116F8010F44F004042A280DD06FF094
:102D70002F023078A0F13003092B09D807EB870325
:102D800002EB4303C718761CF3E759F8047B761C63
:102D900030786C280FD006DC4C2817D068280DD06E
:102DA0006A2814D104E0742810D07A280FD10DE0DD
:102DB00044F400140AE044F4801401E044F44014A4
:102DC0007278824202D1761C04F58014761C307829
:102DD00066280BD013DC582877D009DC002875D082
:102DE0004528F6D04628F4D047281AD19FE118E0AC
:102DF000632835D0642879D0652812D197E17028EE
:102E000073D008DC6728F1D069286FD06E280DD008
:102E10006F2806D1B5E073282CD0752875D0782896
:102E200074D05A46179990476D1C76E1C4F302504E
:102E3000022809D003280DD0D9F8001004280DD09D
:102E40000D6009F1040968E1D9F80010EA17C1E939
:102E50000052F6E7D9F800100D80F2E70D70F0E7A8
:102E600019F8041B8DF8001000208DF80100EA46C7
:102E7000012003E059F804AB4FF0FF3061074FF039
:102E8000000102D40DE008F101018846B9420FDAD1
:102E90008045F8DB1AF808100029F4D108E008F1A1
:102EA000010188468142FADB1AF808100029F6D1A0
:102EB00005985B46A0EB080721463846179A00F0B4
:102EC0009EFA284400EB080507E04DE02BE10DE0F9
:102ED0001AF8010B5A4617999047B8F10108F7D232
:102EE0005B4621463846179A14E142E00A220092D6
:102EF000C4F302524FF0000A022A08D059F804CB5A
:102F0000032A4FEAEC710AD00DE029E02AE009F12A
:102F1000070121F00702F2E802C1914609E00FFA29
:102F20008CFC4FEAEC71042A03D14FFA8CFC4FEA77
:102F3000EC71002907DA0A460021DCF1000C61EB94
:102F400002012D2202E0220504D52B228DF8042057
:102F5000012203E0E20701D02022F7E7904653E088
:102F60000A2102E010220DE010214FF0000A00912A
:102F70000BE010224FF0000A44F0040408270092EE
:102F800003E008224FF0000A0092C4F30252022A22
:102F900005D059F804CB0021032A08D009E009F133
:102FA000070121F00702F2E802C1914605E01FFA8D
:102FB0008CFC042A01D10CF0FF0C4FF00008220712
:102FC00022D5702827D0009B83F0100353EA0A0310
:102FD00009D15CEA010206D030228DF804208DF878
:102FE000050002229046009B83F0080353EA0A037F
:102FF0000AD15CEA010201D1620705D530228DF8C1
:1030000004204FF001087F1E582809D037A00390F4
:103010000EA8029013E040228DF804200122E1E77F
:1030200037A0F4E753466046009AFDF738FA844625
:103030000398825C0298A0F10100029002705CEAA1
:103040000100EFD1029806A9A1EB000000F1200ACF
:10305000600702D524F4803400E00127574502DDE3
:10306000A7EB0A0000E0002000EB0A0100900598A1
:103070004144A0EB01000590E00306D45B462146E5
:10308000179A059800F0BBF90544002706E001A84F
:103090005A46C05D179990476D1C7F1C4745F6DB6B
:1030A000E0030CD55B462146179A059800F0A7F976
:1030B000054404E030205A46179990476D1C00994A
:1030C000481E00900029F5DC08E0029802995A4653
:1030D0000078491C0291179990476D1CBAF10001C4
:1030E000AAF1010AF1DC6BE1092801003031323329
:1030F0003435363738396162636465660000000034
:10310000303132333435363738394142434445461D
:103110000000000000F060F9054406F10106307877
:1031200000287FF4E9AD19B02846BDE8F08F6207AA
:1031300000D4062709F1070222F0070CFCE802235D
:10314000E14603F000485FEA080C02D00FF27C2C45
:103150000DE05FEA045C02D50FF2742C07E05FEA31
:10316000C47C02D00FF26C2C01E0AFF2700C4FF077
:10317000FF3823F00043CDF850C065280CD006DCA2
:10318000452809D046281DD047283ED13EE0662874
:1031900018D0672839D139E00021112F01DB112027
:1031A00000E0781CCDE9000106A90EA8FFF7EEFCAF
:1031B000DDE90F010E9A03910021009207F1010A47
:1031C00004914EE04FF000400097CDE9011006A9B0
:1031D0000EA8FFF7DBFCDDE90F0203920E9B1199AD
:1031E0000022DDF80CA00093049219B907F1010147
:1031F00000EB010AB7EB0A0004D4C0F1FF3007F17D
:10320000010A0490AAEB0700019046E0012F00DAC2
:1032100001270021112F01DD112000E03846CDE902
:10322000000106A90EA8FFF7B1FCDDE90F010E9A17
:103230000391002104910092BA4621070CD403990E
:10324000514500DA8A46BAF1010F05DD009AAAF16C
:103250000101515C302908D0B84202DA10F1040FA4
:1032600006DA0121CDE9011017E0AAF10101E9E731
:10327000002805DC049901440491AAEB000102E056
:10328000411C514500DD8A460499A0EB010000F184
:10329000010001904FF000400290200704D40198F3
:1032A000504501DBCDF8048000208DF84F000298D6
:1032B0000DF14F07B0F1004F25D02B200E90029852
:1032C0004FF0020800280CDA404202902D200E90A8
:1032D00007E00A210298FDF7CCF83031029007F898
:1032E000011DB8F10001A8F10108F2DC02980028E4
:1032F000EFD1791E0E980870307800F0200040F071
:10330000450007F8020D12A8A0EB070000F107081E
:103310001498007800B1012000EB0A01019801EB3C
:10332000E07105984144A0EB0100A0F10100059077
:10333000E00306D45B462146179A059800F05FF833
:1033400005441498007820B15A461799904705F122
:103350000105E00323D55B462146179A059800F046
:103360004EF805441BE00498002807DBDDE9030163
:10337000884203DD0098405C179901E017993020DE
:103380005A46904704986D1C401C04900198401EBA
:10339000019004D12E205A46179990476D1CBAF11E
:1033A0000001AAF1010ADEDC05E017F8010B5A461C
:1033B000179990476D1CB8F10001A8F10108F4DCE1
:1033C0005B462146179A0598A4E600002D000000F0
:1033D0002B000000200000002DE9F04104460025EC
:1033E0001E461746880405D406E039462020B0471B
:1033F00005F10105641EF8D52846BDE8F0812DE9E8
:10340000F041044600251E469046C80301D53027EA
:1034100000E02027880405D506E041463846B0473D
:1034200005F10105641EF8D52846BDE8F0810A685B
:10343000531C0B60107070470648FEF741F8FDF70B
:103440005FFA0548FDF79CFA0448FEF7A3FC00BFAD
:10345000FEE70000980000200038014060360008B8
:1034600000C1814001C0804101C0804100C1814054
:1034700001C0804100C1814000C1814001C0804144
:1034800001C0804100C1814000C1814001C0804134
:1034900000C1814001C0804101C0804100C1814024
:1034A00001C0804100C1814000C1814001C0804114
:1034B00000C1814001C0804101C0804100C1814004
:1034C00000C1814001C0804101C0804100C18140F4
:1034D00001C0804100C1814000C1814001C08041E4
:1034E00001C0804100C1814000C1814001C08041D4
:1034F00000C1814001C0804101C0804100C18140C4
:1035000000C1814001C0804101C0804100C18140B3
:1035100001C0804100C1814000C1814001C08041A3
:1035200000C1814001C0804101C0804100C1814093
:1035300001C0804100C1814000C1814001C0804183
:1035400001C0804100C1814000C1814001C0804173
:1035500000C1814001C0804101C0804100C1814063
:1035600000C0C101C30302C2C60607C705C5C40423
:10357000CC0C0DCD0FCFCE0E0ACACB0BC90908C893
:10358000D81819D91BDBDA1A1EDEDF1FDD1D1CDC83
:1035900014D4D515D71716D6D21213D311D1D010F3
:1035A000F03031F133F3F23236F6F737F53534F4E3
:1035B0003CFCFD3DFF3F3EFEFA3A3BFB39F9F83853
:1035C00028E8E929EB2B2AEAEE2E2FEF2DEDEC2C43
:1035D000E42425E527E7E62622E2E323E12120E0B3
:1035E000A06061A163A3A26266A6A767A56564A4A3
:1035F0006CACAD6DAF6F6EAEAA6A6BAB69A9A86813
:1036000078B8B979BB7B7ABABE7E7FBF7DBDBC7C02
:10361000B47475B577B7B67672B2B373B17170B072
:103620005090915193535292965657975595945462
:103630009C5C5D9D5F9F9E5E5A9A9B5B99595898D2
:10364000884849894B8B8A4A4E8E8F4F8D4D4C8CC2
:103650004484854587474686824243834181804032
:10366000210C0008003801409036000810270000A7
:10367000D91B00080000000090360008D0070000A9
:10368000000000000000000000000000000000003A
:103690005461736B30000000B83600080000002051
:1036A000980000006C2B000850370008980000209C
:1036B000385200007C2B00080000000001020304C7
:1036C00001020304060708090204060800A24A04CE
:1036D00000000000000000000102030406070809C2
:1036E00000000000000000000000000000000000DA
:1036F00000000000000000000000000000000000CA
:1037000000000000000000000000000000000000B9
:1037100000000000000000000000000000000000A9
:103720000000000000000000000000000000000099
:10373000000000000000000000000000FF00FF008B
:103740000000000001000000000000000000000078
:04000005080000ED02
:00000001FF
