:020000040800F2
:1050000058A2002045510008BD9C00088D8400086E
:1050100055990008815E0008A9F000080000000012
:105020000000000000000000000000005DBB000860
:10503000AD6A000800000000119E0008F3C30008DC
:105040005F5100085F5100085F5100085F51000880
:105050005F5100085F510008F17100085F510008BE
:105060005F5100085F5100085F5100085F51000860
:105070005F5100085F5100085F5100085F51000850
:105080005F5100085F5100085F5100085F51000840
:105090005F5100085F5100085F5100085F51000830
:1050A0005F5100085F5100085F5100085F51000820
:1050B0005F5100085F5100085F5100085F51000810
:1050C0005F5100085F5100085F5100085F51000800
:1050D0005F510008C1E9000815EA000875EA0008F8
:1050E0005F5100085F5100089DF000085F51000803
:1050F0005F5100085F5100085F5100085F510008D0
:105100005F5100085F5100085F5100085F510008BF
:1051100019E900086DE900085F5100085F510008B7
:105120005F5100085F5100085F5100085F5100089F
:10513000DFF80CD000F078FC0048004775FA000852
:1051400058A200200648804706480047FEE7FEE7D1
:10515000FEE7FEE7FEE7FEE7FEE7FEE7FEE7FEE727
:105160002DC400083151000830B505462A460B46CB
:1051700012F8010B13F8014B08B1A042F8D01CB192
:10518000002802D06D1CF1E7284630BDF0B480EA5B
:105190000102D40F4200B2EB410F02D20246084690
:1051A00011464A0042D0C30DDDB2C1F3C752AD1A59
:1051B000202D35DAC1F3160141F4000204B1524248
:1051C000C5F1200602FA06F12A411044B3EBD05F84
:1051D00023D0C4B1012DA0EBC35009DCF0BC4FF0CB
:1051E000004202EAC35200F50000DBB200F077BBD8
:1051F000400000F1807000EBC350A0F1807040EAE5
:10520000D170490009E0490841EAC071A0EBC350E0
:1052100000F50000400800EBC350F0BC00F056BBA6
:105220006142012202EB4101001BF6E7F0BC70472E
:1052300081F00041AAE780F00040A7E780EA010280
:1052400010B502F00043400026D04A0023D04FEAB8
:10525000106101EB1261C0F35600C2F3560240F434
:10526000000042F40002A0FB0220A1F17F014FEAFE
:105270000040140401D000F1010050EA124001D4B2
:105280004000491EC2B20C0604EBD010401C40087E
:10529000802A02D003E0002010BD20F00100002988
:1052A00000DA0020184310BD30B480EA010202F099
:1052B000004530F0004221F0004015D0A0B1C0F30D
:1052C000C753C2F3C754C2F31601C0F31600E41A61
:1052D00041F4000140F400027D34914201D3641C8A
:1052E00000E04900002C02DA30BC002070474FF487
:1052F00000000023914201D3891A034340084FEA7A
:105300004101F7D151B1914202D14FF0004105E086
:1053100002D24FF0010101E06FF0010103EBC45034
:10532000284430BC00F0D2BA2DE9FE4F804681EA15
:105330000300C00F0C46009021F0004123F000450F
:10534000B8EB0200A94105D24046214690461C46D2
:105350000B46024623F00040104304D1404621464C
:1053600003B0BDE8F08F270DC7F30A00C3F30A515D
:105370000290401A0190402866DAC3F3130040F40B
:10538000801B0098924620B10023D2EB030A63EB06
:105390000B0B01985946C0F14002504600F065FAE7
:1053A00006460D4650465946019A00F07DFA10EB2C
:1053B00008006141002487EA115284EAE7731A4326
:1053C0003BD0009A3AB3019A012A4FEA075210DC07
:1053D000001B61EB02014FF0004202EA0752CDE9E7
:1053E0000042001C41F5801132462B4600F0B1FA14
:1053F000B6E7001B61EB0201001C41F580130018A9
:105400005B412018A2F5001747EB030140EAD57075
:10541000B6196D4111E06D084FEA360645EAC075D0
:105420004FEA0752001B61EB0201001C41F580119D
:1054300049084FEA30000019514132462B4603B06B
:10544000BDE8F04F00F078BA009801224000002338
:10545000D0EB020263EBE073009821464FEAE07460
:10546000B8EB000061EB0401E9E783F000435BE780
:1054700081F0004158E72DE9FE4F81EA030404F072
:10548000004421F0004100944FF0000B23F0004352
:1054900050EA010402D052EA030404D1002001467C
:1054A00003B0BDE8F08FC3F30A54C1F30A552C448E
:1054B000A4F2F3340194A0FB0254C1F3130141F4AC
:1054C0008011C3F3130343F4801301FB024400FB78
:1054D000034E840A970A44EA815447EA8357A4FB9F
:1054E000076802958D0A05FB07854FEA932C04FB9C
:1054F0000C542705029D4FEA065847EA1637B5EBCC
:1055000008056EEB070C870E920E47EA811742EAF8
:105510008312A7FB0201B6EB0B0164EB00042B0D19
:1055200043EA0C335E1844EB1C50DA465146E7FB65
:105530000201C5F313044FEA0B3343EA14534FEA55
:105540000432019C43EA0603A4F10C040294009C7B
:10555000CDE900B400F0FDF9A2E72DE9F04D81EAB4
:10556000030404F0004B21F0004514464FF0000AFC
:1055700023F0004150EA050220D054EA01021DD078
:10558000C5F30A570246C5F31303C1F31300C1F371
:105590000A5640F4801543F48013A7EB0608101B4D
:1055A000D64608F2FD3873EB050002D308F1010876
:1055B00001E092185B41B8F1000F03DA00200146C8
:1055C000BDE8F08D00204FF48011064684460EE0C1
:1055D000171B73EB050705D3121B63EB050306438B
:1055E0004CEA010C49084FEA300092185B4150EA3E
:1055F0000107EDD152EA030012D082EA040083EAE7
:105600000501084303D100224FF0004308E0101BBE
:10561000AB4102D20122002302E06FF001025310DD
:105620001AEB06004CEB085110EB0A0041EB0B01A2
:10563000BDE8F04D00F080B9C10F80EAE070084489
:10564000CA079623002100F04AB99623002211468A
:1056500000F045B90EB540F2334102910021CDE989
:1056600000110A460B4600F074F903B000BD00F0CB
:10567000004220F00040C10DC0F3160040F40000CD
:105680007F2901DA00207047962903DCC1F19601D9
:10569000C84001E096398840002AF4D04042704763
:1056A00020F00040C10DC0F3160040F400007F2937
:1056B00001DA00207047962903DCC1F19601C84049
:1056C000704796398840704770B5C1F30A5201F0AF
:1056D00000450024C1F3130140F2FF3341F480116F
:1056E0009A4201DA002070BD40F233439A42A2F29E
:1056F000334203DC524200F0C7F800E090402C43F4
:10570000F1D0404270BD00F0004230F000400AD0BD
:10571000C10D01F56071C0F3160042EA0151C208E3
:1057200040071143704700200146704730B50029FB
:1057300004DB4FF00044404264EB0101002B04DB2A
:105740004FF00044524264EB03038B4208BF824295
:1057500030BD000030B5002904DB4FF0004440426A
:1057600064EB0101002B04DB4FF00044524264EB78
:105770000303994208BF904230BD000001F000438E
:1057800030B421F0004150EA010206D00A0DA2F522
:105790006072C1F31301002A02DC30BC00207047A4
:1057A000440F44EAC104C100E01830BC00EBC25011
:1057B00000F08CB8002801DBC0F10040002901DBBB
:1057C000C1F1004181427047002801DBC0F1004077
:1057D000002901DBC1F100418842704730B50B461A
:1057E000014600202022012409E021FA02F59D4211
:1057F00005D303FA02F5491B04FA02F52844151EE5
:10580000A2F10102F1DC30BD2DE9F05F0546002078
:1058100092469B4688460646814640241BE0284621
:1058200041464746224600F02FF853465A46C01AD2
:10583000914110D311461846224600F016F82D1A51
:1058400067EB01084F4622460120002100F00DF8C9
:1058500017EB00094E41201EA4F10104DFDC48468D
:1058600031462A464346BDE8F09F202A04DB203A11
:1058700000FA02F1002070479140C2F1200320FAA3
:1058800003F3194390407047202A04DB203A21FAA1
:1058900002F00021704721FA02F3D040C2F1200249
:1058A0009140084319467047202A06DBCB17203A5F
:1058B00041FA02F043EAE07306E041FA02F3D04015
:1058C000C2F1200291400843194670470029A8BF41
:1058D0007047401C490008BF20F00100704710B419
:1058E000B0FA80FC00FA0CF050EA010404BF10BCCE
:1058F000704749B1CCF1200421FA04F411FA0CF1FB
:1059000018BF012121430843A3EB0C01CB1D010665
:10591000000A002BBEBF002010BC704700EBC35034
:1059200010440029A4BF10BC7047401C490008BFA8
:1059300020F0010010BC704710B5002B08DA401CA5
:1059400041F1000192185B411A4301D120F001009E
:1059500010BD2DE9F04D92469B4611B1B1FA81F28E
:1059600002E0B0FA80F220329046FFF77EFF044654
:105970000F4640EA0A0041EA0B0153465A460843E3
:1059800003D120463946BDE8F08D114653EA0100A7
:1059900015D0C8F140025046FFF776FF05460E4687
:1059A000504659464246FFF760FF084301D00120A8
:1059B00000E00020054346EAE0762C4337430A988E
:1059C0004FEA4453A0EB08004FEAD4240A304FF0CA
:1059D000000244EA47544FEAD72502D50020014689
:1059E000D1E7010510196941DDE908450019694150
:1059F000BDE8F04DA0E7C1F30A52C1F3130140F234
:105A0000FF3341F480119A4202DA002001467047C8
:105A100040F233439A42A2F2334202DC5242FFF791
:105A200033BFFFF722BF0000064C074D06E0E068D9
:105A300040F0010394E8070098471034AC42F6D3D5
:105A4000FFF77AFB5C6C01087C6C010882B02DE9E1
:105A5000FF1FEFF3038001B4684600F1400000E946
:105A600001400C480168C1F800D00B48D0F800D0C4
:105A700001BC80F30388BDE8FF1F01B000BD0648EC
:105A8000D0F800D001BC80F30388BDE8FF1F01B04F
:105A900000BD00004C0000204800002008B5012196
:105AA000084605F055FA01214FF4047005F070FA2C
:105AB0001020ADF8000000208DF803006946024870
:105AC00001F0DEFE08BD00000010014010B50446E4
:105AD000FFF7E4FF204600F001F810BD10B590B0CC
:105AE0000446334800F0FAFB324805900694002043
:105AF000079001200890002009900A904FF48070D0
:105B00000B9080000C9020200D9000020E90002041
:105B10000F9005A9264800F087FC0121244800F0D9
:105B2000D1FB002000908DF8040001208DF80500C5
:105B30004FF4602002900020039001208DF81000A7
:105B400069461C484C3800F061F84FF4404005F0BD
:105B5000F3F9052301220E2116484C3800F07EF897
:105B6000012114484C3800F032F8012111484C381A
:105B700000F022F80F484C3800F0CCF800BF0D4878
:105B80004C3800F039F80028F9D10A484C3800F0B8
:105B9000D1F800BF07484C3800F024F80028F9D1AC
:105BA000012104484C3800F0BAF810B010BD0000D4
:105BB000080002404C24014021B1826842F00102F9
:105BC000826003E0826822F001028260704721B1A6
:105BD000826842F48072826003E0826822F48072FC
:105BE00082607047014600208A6812F0040F01D0DD
:105BF000012000E000207047014600208A6812F072
:105C0000080F01D0012000E00020704730B50246A7
:105C10000020002350680F4C20400D790C6844EAA6
:105C200005242043506090680B4C2040D1E9025479
:105C30002C434D7944EA450420439060D06A20F417
:105C400070000C7C641EE4B2234340EA0350D0622F
:105C500030BD0000FFFEF0FFFDF7F1FFF0B5044698
:105C60000D4600200021092D11DDE068A5F10A068E
:105C700006EB4607072606FA07F18843A5F10A0650
:105C800006EB460603FA06F10843E0600CE02069E3
:105C900005EB4507072606FA07F1884305EB45069D
:105CA00003FA06F108432061072A0FDA606B561EDB
:105CB00006EB86071F2606FA07F18843561E06EBF9
:105CC000860605FA06F10843606322E00D2A0FDA22
:105CD000206BD61F06EB86071F2606FA07F18843BE
:105CE000D61F06EB860605FA06F10843206310E08E
:105CF000E06AA2F10D0606EB86071F2606FA07F1F9
:105D00008843A2F10D0606EB860605FA06F1084364
:105D1000E062F0BD816841F008018160704721B107
:105D2000826842F4A002826003E0826822F4A0024A
:105D300082607047816841F004018160704710B54E
:105D4000044600212046FFF73FFD01D2204610BD4A
:105D500000212046FFF76FFAF9E7000010B5012196
:105D60000C4801F064FE0A2008F06AFA0121094893
:105D700001F05BFE282008F063FA0121054801F0DC
:105D800056FE0A2008F05CFA0121024801F04DFE9F
:105D900010BD0000000C014010B50021074803F0C1
:105DA0007DFC044644B9052105A000F09DFD0121BC
:105DB000024803F073FC0446204610BD589D0020A5
:105DC000C5E4D6C3B2CECAFDC6ACC7F8D2BBB4EDEB
:105DD000CEF3000006E04FF47A7100BF0A00A1F193
:105DE0000101FBD10200A0F10100F4D1704701468E
:105DF000081100EB4000A1EB4000C0B2704700006A
:105E000030B50246002441F66F2316E0E01800EB9F
:105E1000D07569100B4830F82100904204D1094830
:105E200000EB8100408830BD064830F821009042E8
:105E300001DA4C1C00E04B1E00BF9C42E6DD002056
:105E4000F1E70000B0FE0008F0B5034600201C4654
:105E50000D46104603E014F8016B05F8016B1600BF
:105E6000A2F10107BAB2F6D1F0BD30B5034601E0A8
:105E700003F8011B1400A2F10105AAB2F8D130BD4C
:105E800000BFFEE72DE9F04105460E46424803F00B
:105E9000BDFDA84202DC0020BDE8F08105EB450015
:105EA0003D4901EB8004142231463C4809F0CBF80F
:105EB000207A092833D008DC02280FD0042837D0F4
:105EC000052823D0062863D116E00B280BD018280C
:105ED0004BD01A2856D01D285AD12FE0606808B13F
:105EE0006068804754E0304602F016F90746FFF735
:105EF000D7FB616808704BE0304602F00DF90746A9
:105F0000FFF7B5FB40B26168087041E0304602F02F
:105F100003F90746FFF7C4FB6168088038E03046A4
:105F200002F0FAF80746FFF7BBFB616808602FE054
:105F3000304602F0F1F86168086029E018A13046A7
:105F400006F03FFA40B160680068627A0121914032
:105F500008436168086007E060680068627A0121B0
:105F6000914088436168086012E00DA1304606F058
:105F700028FA18B101206168087002E00020616809
:105F8000087005E0627A30466168FFF75DFF00BF88
:105F900000BF012080E7000030FD00080044004001
:105FA0005400000070B504460D460A4803F02EFD6B
:105FB000A04201DC002070BD04EB4400054A02EB66
:105FC0008001284603F0F4FB284602F007F9C6B228
:105FD0003046F0E730FD00080246002110E0505C3A
:105FE000392801DD012000E00020535C302B01DA6C
:105FF000012300E00023184301D000207047491C12
:106000000B29ECDB0120F9E702E0002200F8012B6C
:106010000A00A1F1010399B2F7D1704710B500242D
:1060200000F090F804E0601CC4B2012000F038F8E1
:10603000114801881148006801F0EEFC08B1642C99
:10604000F1DB642C01DB012010BD002404E0601CA6
:10605000C4B2012000F024F807480188074800680E
:1060600001F0DAFC08B9642CF1DB642C01DB0120BF
:10607000EAE70020E8E700008C0000209000002004
:10608000002107E042F6E06100BF0A00A1F1010330
:1060900099B2FAD10200A0F1010398B2F2D170478F
:1060A000002106E0072100BF0A00A1F1010399B217
:1060B000FAD10200A0F1010398B2F3D170470000B9
:1060C0002DE9F04105460E462C784FF6FF7000EAA8
:1060D00004246878044314F4004F0CD0E143491CB5
:1060E00041F40040FFF7A8FA074613493846FFF786
:1060F000DBF8074608E02046FFF7A7FA07460E49F7
:106100003846FFF7D1F807460C493846FFF75CFBE5
:1061100002D24FF0010801E04FF00008084938466C
:10612000FFF748FB01D2012000E0002018EA000F31
:1061300000D03760BDE8F0810000204100007AC443
:106140000000F04208B508480088ADF800000320C0
:106150008DF8020048208DF8030069460348006866
:1061600001F08EFB08BD00008C0000209000002094
:1061700008B508480088ADF8000003208DF802003B
:1061800010208DF8030069460348006801F078FB91
:1061900008BD00008C000020900000202DE9FC418B
:1061A00005460E4600F074F8FFF738FF10B10120E5
:1061B000BDE8FC81002405E000F05AF80DF8040069
:1061C000601CC4B2052CF7DB9DF800009DF801109F
:1061D00008449DF8021008449DF803100844C7B213
:1061E0009DF80400B84201D00120E1E71DB131461D
:1061F0006846FFF765FF26B129460DF10200FFF75B
:106200005FFF0020D4E7000010B5002404E0601C0C
:10621000C4B20120FFF744FF134801881348006807
:1062200001F0FAFB08B1642CF1DB002404E0601CEF
:10623000C4B20120FFF734FF0B4801880B48006807
:1062400001F0EAFB08B9642CF1DB2320FFF728FFFB
:10625000054801880548006801F0DEFB08B101200F
:1062600010BD0020FCE700008C0000209000002002
:1062700070B50024002506E06006040EFFF7C4FF99
:106280000443681CC5B2082DF6DB204670BD000033
:1062900010B5FFF76DFF094801880948006801F053
:1062A000C4FB0A20FFF7ECFE04480188044800689C
:1062B00001F0BDFB5020FFF7F3FE10BD8C00002065
:1062C0009000002021B1026842F00102026004E067
:1062D00002684FF6FE731A400260704701684FF67D
:1062E000FE72114001600021016041608160C16067
:1062F0004B49884208D14A490839496841F00F01A1
:10630000474A083A51608AE045491431884208D129
:1063100043490839496841F0F001414A083A51605F
:106320007DE03F492831884208D13D490839496814
:1063300041F470613A4A083A516070E038493C31A2
:10634000884208D136490839496841F47041344AD5
:10635000083A516063E032495031884208D13049EF
:106360000839496841F470212D4A083A516056E0D5
:106370002B496431884208D129490839496841F4D8
:106380007001274A083A516049E02549783188422E
:1063900008D123490839496841F07061204A083A18
:1063A00051603CE01F49884206D1011F096841F055
:1063B0000F01021F116032E01A491431884208D1DE
:1063C0001849091F096841F0F001164A121F1160AF
:1063D00025E014492831884208D11249091F09686B
:1063E00041F470610F4A121F116018E00D493C31F1
:1063F000884208D10B49091F096841F47041094AD4
:10640000121F11600BE007495031884207D105493E
:10641000091F096841F47021024A121F1160704778
:10642000080002400804024010B50022026847F646
:10643000F0739A430C6A8B6823430C6923434C69BD
:1064400023438C692343CC6923434C6A23438C6ADE
:1064500023431A430260CB6843600B6883604B6838
:10646000C36010BD08B50121082004F091FD0D485E
:106470000088ADF8000010208DF8030003208DF88F
:10648000020069460848006801F0FAF905480188E9
:106490000548006801F0CBFA00F0B2F900F006F808
:1064A00008BD0000940000209800002010B50024D2
:1064B00000F0BEF804E0601CC4B2012000F028F82F
:1064C000114801881148006801F0A6FA08B1C82CEB
:1064D000F1DBC82C01DB012010BD002404E0601CAE
:1064E000C4B2012000F014F807480188074800688A
:1064F00001F092FA08B9F02CF1DBF02C01DB01205D
:10650000EAE70020E8E7000094000020980000205F
:10651000002106E0062100BF0A00A1F1010399B2A3
:10652000FAD10200A0F1010398B2F3D17047000044
:106530002DE9FE4F824600F089F900F061F9FFF77E
:10654000B5FF044614B10120BDE8FE8FCC2000F059
:1065500089F9BE2000F086F9002405E000F0BEF8BD
:106560000DF80400601CC4B2092CF7DB0821684652
:1065700007F05AFC04469DF80800A04205D005210A
:1065800026A000F0B1F90020DEE79DF80100072801
:106590001EDD9DF80100C043C0B28DF801009DF8DA
:1065A0000000C043C0B28DF800009DF801904FF686
:1065B000FF7000EA09299DF8000040EA09094846F1
:1065C000FFF743F805460021FEF735FE83460DE050
:1065D0009DF801904FF6FF7000EA09299DF8000030
:1065E00040EA09094846FFF730F883465846FFF766
:1065F0008AF8074600220C4BFEF73DFF0546FFF7E1
:10660000BDF88346BAF1000F05D008495846FEF799
:106610004BFECAF80000002096E70000D0A3D1E9A5
:10662000B4EDCEF3000000000000E43F0000204184
:1066300008B508480088ADF8000003208DF8020076
:1066400048208DF8030069460348006801F018F9F6
:1066500008BD0000940000209800002008B50848FC
:106660000088ADF8000003208DF8020010208DF89E
:10667000030069460348006801F002F908BD000004
:10668000940000209800002010B5FFF7E7FF1148A4
:1066900001881148006801F0C8F90220FFF738FFAF
:1066A0000C4801880C48006801F0C1F9FFF7C0FFF1
:1066B0000520FFF72DFF074801880748006801F013
:1066C000ABF908B1012400E000243220FFF720FFDD
:1066D000204610BD940000209800002070B50026D0
:1066E000012508E0FFF7D0FF0446E00140EA66001C
:1066F000C6B2681CC5B2082DF4DD304670BD00007E
:1067000070B506460C4600253A4890F8B00010F0E7
:10671000400F23D04FF40071374800F0DBF82146DA
:106720003046FFF73BFD78B134480078401C3349D0
:106730000870084600780A285ADD2E48006920F4BF
:1067400040702C49086153E000202C49087029480A
:10675000006940F440702749086149E04FF4007136
:10676000254800F069F83046FFF7E2FE05468DB196
:1067700022480078401C21490870084600780A2801
:1067800011DDFFF76FFE1B48006920F48070194986
:10679000086108E00020194908701648006940F4B3
:1067A0008070144908614FF48071134800F044F878
:1067B0002046FFF7BDFE05468DB110484078401CCD
:1067C0000E494870084640780A2811DDFFF74AFE56
:1067D0000848006920F400700649086108E00020BC
:1067E000064948700348006940F400700149086197
:1067F00070BD0000449D0020000C0140A500002059
:1068000010B5FFF72BFF0A4801880A48006801F01D
:106810000CF940F2EE20FFF77BFE054801880548A1
:10682000006801F004F90F20FFF772FE10BD0000B0
:106830009400002098000020024A1060024A118053
:1068400070470000980000209400002010B5FFF76A
:10685000D7FFFFF72BFECC2000F004F8442000F017
:1068600001F810BD70B50446FFF7F8FE01252AE0D7
:1068700004F00106641096B11448018814480068B9
:1068800001F0D3F80220FFF743FE104801881048BA
:10689000006801F0CCF83C20FFF73AFE11E00B480D
:1068A00001880B48006801F0C0F83C20FFF730FE7B
:1068B000064801880648006801F0B9F80220FFF791
:1068C00027FE681CC5B2082DD2DD70BD94000020E3
:1068D00098000020024A1060024A118070470000B0
:1068E000900000208C0000200FB42DE9F04186B00C
:1068F000002501260027B00203F062F80446544840
:106900000078FF2801D1012000E0002050490978DB
:10691000504A1278914201D1012100E00021084340
:106920007DD00DA805902046059A0C9908F022FC10
:10693000002005900DA8059069460C9801F0ADFA6D
:1069400006462AE02846691CCDB21DF80000012841
:1069500004D0022806D003281AD115E0059880C873
:10696000059019E00598C01D20F007000590D0E9BA
:106970000021DDF814C00CF1080C1046CDF814C04D
:10698000FEF7A2FE074607E0059880C8059003E0E1
:10699000059880C8059000BF00BF3000A6F1010631
:1069A000D0D1059880C80590002005902A4800782D
:1069B000FF2801D1012000E0002027490978B942D1
:1069C00001DB012100E00021084338D0214623A04B
:1069D00005F0D6FC2248007810F0020F0DD02149B6
:1069E000087800F0F3FB40B1204601F0F7FB804649
:1069F000424621461C4808F026FB1948007810F052
:106A0000040F0FD01749487800F0E0FB50B1204642
:106A100001F0E4FB804642462146144800E011E0C4
:106A200008F011FB1248006848B1204601F0D6FB7F
:106A300000F0FF08414620460D4A12689047204664
:106A400002F098FF06B0BDE8F0015DF814FB00000D
:106A500078000020580000207A0000200D0A000075
:106A60007900002028000020003801400044004048
:106A70007C000020FF20014908707047780000204A
:106A80000248007802490870704700005800002052
:106A9000780000200149087070470000790000204C
:106AA00001490870704700007A00002070470146D5
:106AB0000A2091FBF0F000EB400001EB4000C0B277
:106AC0007047000010B500201A4908704FF4A070FC
:106AD00002F076FF18490860002406E0FF201749FD
:106AE000085517490855601CC4B2052CF6DB002474
:106AF0001DE000201049096801EB441148610320A2
:106B00000D49096801EB4411087200200A4909681F
:106B100001EB441108610849096801EB4411C860A0
:106B20000549096801EB44118861601CC4B20A2C54
:106B3000DFDB10BD6C00002070000020280000206A
:106B40002D00002038B5002454E02C48006800EBEC
:106B50004410006800284BD02848006800EB44101F
:106B6000C079012806D0022820D0032813D0042899
:106B700032D126E0032000902048006800EB44104A
:106B8000C3691E48006800EB4410214602681CA03F
:106B9000FFF7AAFE2BE01948006800EB441003231E
:106BA000214602681CA0FFF79FFE20E01348006802
:106BB00000EB441003232146026817A0FFF794FE60
:106BC00015E00E48006800EB4410032321460268DC
:106BD00011A0FFF789FE0AE00848006800EB4410A6
:106BE0000323214602680CA0FFF77EFE00BF00BF12
:106BF000601CC4B20A2CA8DB38BD00007000002065
:106C00004465766963655B25645D4E616D653A2513
:106C1000735B25645D0000004465766963655B25F0
:106C2000645D4E616D653A25730000002C48007864
:106C30002C4908702A480078401C294908702948C6
:106C4000007829490968274A127801EB4211087136
:106C500026A125480068234A127800EB4210016003
:106C60000020214909681F4A127801EB421148713E
:106C700003201D4909681B4A127801EB4211C871B3
:106C8000012119480068174A127800EB421001727E
:106C9000184815490968134A127801EB42114861F6
:106CA0000021114800680F4A127800EB4210C161C0
:106CB0000D4800680B4A127800EB4210C1600020BA
:106CC00009490968074A127801EB4211086100215D
:106CD00005480068034A127800EB42108161704752
:106CE0006C000020870000207000002048543136DE
:106CF000323100000D8400082C4909782C4A1170AB
:106D00002A490978491C294A117029490978294AD0
:106D10001268274B1B7802EB4312117126A1254AFA
:106D20001268234B1B7802EB431211600021214AA9
:106D300012681F4B1B7802EB4312517102221D494E
:106D400009681B4B1B7801EB4311CA7101221949D9
:106D50000968174B1B7801EB43110A721749154A52
:106D60001268134B1B7802EB4312516111490968F9
:106D70000F4A127801EB4211C86100220D490968DF
:106D80000B4B1B7801EB4311CA600021094A1268C2
:106D9000074B1B7802EB4312116100220549096879
:106DA000034B1B7801EB43118A6170476C00002094
:106DB0008400002070000020494F000095790008F1
:106DC0002C4909782C4A11702A490978491C294A0A
:106DD000117029490978294A1268274B1B7802EB60
:106DE0004312117126A1254A1268234B1B7802EB2E
:106DF000431211600021214A12681F4B1B7802EBDD
:106E00004312517104221D4909681B4B1B7801EB89
:106E10004311CA71012219490968174B1B7801EB0C
:106E200043110A721849154A1268134B1B7802EB7A
:106E300043125161114909680F4A127801EB42115E
:106E4000C86100220D4909680B4B1B7801EB431107
:106E5000CA600021094A1268074B1B7802EB4312F3
:106E60001161002205490968034B1B7801EB4311AE
:106E70008A6170476C000020A20000207000002092
:106E800049534C31323038009D94000870B50546A6
:106E9000284607F07BFF04465F48005DFF2808D1C5
:106EA0005E4800785C4908555C480078401C5B49A6
:106EB00008705BA05849095D5B4A126802EB4111FA
:106EC000086000205449095D574A126802EB4111DD
:106ED000487101205049095D534A126802EB411183
:106EE000C87103204C49095D4F4A126802EB4111F9
:106EF00008724E484849095D4B4A126802EB41113D
:106F000048614548005D4849096801EB4010C4618B
:106F100047494148005D444A126802EB4010C16095
:106F200044483D49095D404A126802EB411108613D
:106F300000213948005D3C4A126802EB4010816133
:106F400000203D4921F814004FF4967002F038FDFE
:106F50003A4941F82400284607F018FF044638480B
:106F6000005DFF2808D12D480078354908552B4889
:106F70000078401C2949087032A03149095D2A4A2D
:106F8000126802EB4111086000202D49095D264A74
:106F9000126802EB4111487101212948005D224A23
:106FA000126802EB4010C17103202549095D1E4A99
:106FB000126802EB411108721C492148005D1A4A0F
:106FC000126802EB401041611D48005D16490968D6
:106FD00001EB4010C46116481949095D124A126854
:106FE00002EB4111C86013481549095D0E4A126849
:106FF00002EB4111086100201149095D0A4A12683B
:1070000002EB411188614FF4967002F0D9FC0F49F0
:1070100041F8240070BD00002D0000206C0000200D
:107020005553415252780000700000201DEB0008BB
:1070300015F0000835EF0008F0000020C80000201F
:10704000280000205553415254780000DC000020F5
:10705000284800782849087026480078401C2549AF
:10706000087026A027490968234A127801EB4211CB
:1070700008600020234909681F4A127801EB421179
:10708000487103201F4909681B4A127801EB42111D
:10709000C87101211B480068174A127800EB4210A2
:1070A0000172194817490968134A127801EB421115
:1070B00048610021134800680F4A127800EB421023
:1070C000C16112490F4800680B4A127800EB421068
:1070D000C1600F490B480068074A127800EB421064
:1070E0000161002007490968034A127801EB421147
:1070F000886170476C000020A00000205732355195
:1071000031360000700000201DB9000861F1000850
:107110004DF1000810B5032124A0FFF7E5FB002482
:1071200041E02948006800EB44104069C8B3264894
:10713000006800EB4410C079012806D0022817D05F
:1071400003280ED004282BD11EE01F4A126802EB40
:107150004412107F1C4A126802EB4412516988479E
:107160001EE01949096801EB44114869804717E09E
:10717000154A126802EB4412D069134A126802EBF6
:107180004412516988470BE00F4A126802EB44121F
:10719000D0690D4A126802EB44125169884700BF5A
:1071A00000BF601CC4B20A2CBBDB10BD546F73203F
:1071B00044657669636520496E69742E2E2E2E2EE5
:1071C0002E2E2E2E2E000000700000200146FF29DA
:1071D00001D1002070470548006800EB411040696C
:1071E00008B90020F6E70120F4E700007000002055
:1071F000012000F003F802F093FA00000149086052
:107200007047000014040140002123498279002ABC
:107210003AD00A46126803689A430B461A600A1D60
:10722000126803689A430B1D1A60027911440A68B8
:1072300003681A430A60184A0832126803689A43BE
:10724000154B08331A601A1D126803689A43124BD3
:107250000C331A604279102A0ED11A1F1268036883
:107260001A430D4B08331A601A1D126803681A433B
:10727000094B0C331A600DE00749427911440A6842
:1072800003681A430A6005E0027911440A6803683A
:107290009A430A60704700000004014030B504467C
:1072A00004254FF4302000F06FF80546042D17D167
:1072B0000C48006940F002000A4908610846446130
:1072C000006940F0400008614FF4302000F05CF8A5
:1072D00005460448006941F6FD710840014908610E
:1072E000284630BD0020024004200B49C96811F037
:1072F000010F01D001200EE00749C96811F0040F09
:1073000001D0022007E00449C96811F0100F01D034
:10731000032000E004207047002002400348006979
:1073200040F08000014908617047000000200240E1
:1073300070B504460D460426F00200F025F8064616
:10734000042E11D10948006940F001000749086185
:107350002580F00200F018F806460448006941F65E
:10736000FE71084001490861304670BD00200240AE
:107370000248034948600348486070472301674555
:1073800000200240AB89EFCD00B502460423FFF791
:10739000ABFF034603E0FFF7A7FF0346521E012B96
:1073A00001D1002AF7D102B90523184600BD2DE905
:1073B000F84F82460D4617464FF000080020009017
:1073C0008146504600F00AFF00F0FF0BBBF1000FB2
:1073D00035D00020287000262FE01AF80640302C07
:1073E00001DB012000E00020392C01DC012100E05C
:1073F000002108402E2C01D1012100E0002108438A
:1074000009D04F4504D14046411C01F0FF082C54DF
:10741000012000900FE0009868B14F4505D100228F
:107420004046411C01F0FF082A540020009009F159
:10743000010000F0FF09701CC6B25E45CDDB40467E
:10744000BDE8F88F2DE9F84F82460D4617464FF0FC
:107450000008002000908146504600F0BFFE00F07A
:10746000FF0BBBF1000F3BD000202870002635E059
:107470001AF80640302C01DB012000E00020392CF6
:1074800001DC012100E0002108420BD1462C01DC87
:10749000012000E00020412C01DB012100E000215F
:1074A000084209D04F4504D14046411C01F0FF0875
:1074B0002C54012000900FE0009868B14F4505D191
:1074C00000224046411C01F0FF082A540020009091
:1074D00009F1010000F0FF09701CC6B25E45C7DB70
:1074E0004046BDE8F88F2DE9F84F82460C46174616
:1074F0004FF00008002000908146504600F06EFEDC
:1075000000F0FF0BBBF1000F2FD0002020700025F2
:1075100029E01AF80560302E01DB012000E0002090
:10752000392E01DC012100E00021084209D04F453D
:1075300004D14046411C01F0FF0826540120009070
:107540000FE0009868B14F4505D100224046411C2C
:1075500001F0FF0822540020009009F1010000F022
:10756000FF09681CC5B25D45D3DB4046BDE8F88F16
:107570002DE9F05F80460C460027BA46BB464046E0
:1075800000F02CFE00F0FF09B9F1000F20D0002020
:10759000207000251AE018F805603A2E01D14FF04E
:1075A000010BBBF1000F0FD0222E06D1BAF1000F54
:1075B00000D00EE04FF0010A06E0BAF1000F03D050
:1075C0003846791CCFB22654681CC5B24D45E2DB63
:1075D00000BF00223846791CCFB222543846BDE89D
:1075E000F09F70B50B46044603E014F8015B03F806
:1075F000015B1500A2F10106B2B2F6D170BD2DE912
:10760000F0470646884614460027C146FFF7B0FEFD
:107610002046E11704EBD151C1F34F27E11704EBEA
:10762000D1514912B4EB412101D0781C87B2002519
:1076300007E04FF4007101FB0760FFF72FFE681CA5
:1076400085B2BD42F5DB002508E039F8021B2A4669
:107650006B1C9DB206EB4200FFF76AFE2000A4F10E
:1076600001018CB2F1D1FFF759FEBDE8F087014668
:107670000A461068704713B50246042301A903E0C7
:1076800011F8010B02F8010B1800A3F10104E3B299
:10769000F6D104201CBD70B504460025107820B139
:1076A00016782068B0FBF6F085B2206808442060A8
:1076B0001078984203DA1078401C107002E02068BD
:1076C000401B206016782068B0FBF6F080B270BDD9
:1076D0000FB438B5044606A800902046009A0599D4
:1076E00007F048FD0020009038BC5DF814FB30B571
:1076F00003460C46002514E01878802806DA13F8B3
:10770000010B24F8020B681C85B20AE059781A783C
:1077100041EA022000F01AF820809B1CA81C85B2C8
:10772000A41C18780028E7D1284630BD30B5ADF547
:10773000017D04460D4601A92046FFF7D8FF2946E2
:1077400001A800F06DFD0DF5017D30BD024641F64A
:107750006F210AE0074800EB81004088904203D186
:10776000044830F821007047491E0029F2D100205A
:10777000F9E70000B0FE000810B50446294884422D
:1077800008D10121042003F013FC0021042003F0A0
:107790000FFC46E02448844208D10121082003F070
:1077A00007FC0021082003F003FC3AE01F48844254
:1077B00008D10121102003F0FBFB0021102003F071
:1077C000F7FB2EE01A48844208D10121202003F063
:1077D000EFFB0021202003F0EBFB22E01548844260
:1077E00008D10121402003F0E3FB0021402003F0F9
:1077F000DFFB16E01048844208D10121802003F00D
:10780000D7FB0021802003F0D3FB0AE00B48844221
:1078100007D10121801503F0CBFB0021A01503F057
:10782000C7FB10BD00080140000C014000100140E2
:107830000014014000180140001C014000200140DC
:1078400030B500228B071C0F0F2303FA04F20B4BF9
:107850008C1053F824309343084C8D1044F8253095
:1078600023468C1053F824308C07240F00FA04F4BC
:107870002343024C8D1044F8253030BD08000140F0
:107880002DE9F041024600250026002000230024B7
:10789000002791F803C00CF00F0591F803C01CF00D
:1078A000100F03D091F802C04CEA050591F800C012
:1078B000BCF1000F31D0146800202BE04FF0010C18
:1078C0000CFA00F3B1F800C00CEA03069E4220D186
:1078D00083004FF00F0C0CFA03F7BC4305FA03FCCE
:1078E0004CEA040491F803C0BCF1280F06D14FF014
:1078F000010C0CFA00FCC2F814C00AE091F803C0B5
:10790000BCF1480F05D14FF0010C0CFA00FCC2F895
:1079100010C0401C0828D1D31460B1F800C0BCF1DD
:10792000FF0F34DD546800202EE000F1080C4FF00A
:10793000010808FA0CF3B1F800C00CEA03069E42F5
:1079400021D183004FF00F0C0CFA03F7BC4305FA6A
:1079500003FC4CEA040491F803C0BCF1280F05D1E4
:1079600000F1080C08FA0CF8C2F8148091F803C072
:10797000BCF1480F07D100F1080C4FF0010808FADC
:107980000CF8C2F81080401C0828CED35460BDE823
:10799000F081000038B5044636E01D4A6068811A5F
:1079A000904217D009DC1B4940180DD0B0F5806F0C
:1079B0000CD0B0F5006F13D10AE0B1F5806F0BD099
:1079C000B1F5006F0CD109E0042509E0082507E0B6
:1079D000102505E0202503E0402501E0802500BFBB
:1079E00000BF45F00100012103F0D2FA20788DF8A4
:1079F00002002089ADF8000060788DF80300694628
:107A00006068FFF73DFF0C3420780028C5D138BDF1
:107A10000014014000F8FEBF0246002093680B42AC
:107A200001D0012000E000207047416170470161F2
:107A3000704700002DE9F04104460D4601271DE086
:107A400012494FF4967248680021FEF70EFA2B4651
:107A5000322200210E4807F085FAC6B276B10B48F3
:107A6000052241680BA0FEF73FFF08494868214600
:107A700004F0A7FC10B10120BDE8F0813800A7F1A7
:107A80000101CFB2DCD100BFF6E70000C800002042
:107A900000440040B7B5BBD83A25730D0A0000007A
:107AA0002DE9F04104460D46012725E016494FF423
:107AB000967248680021FEF7D8F92B463222002141
:107AC000124807F04FFAC6B296B10F480522416836
:107AD0000FA0FEF709FF0C4948682146FDF744FB5B
:107AE00010B10120BDE8F0814FF47A7006F0A8FBD8
:107AF0004FF47A7006F0A4FB3800A7F10101CFB271
:107B0000D4D100BFEEE70000C800002000440040D0
:107B1000B7B5BBD83A25730D0A0000002DE9F04136
:107B200004460F4615464FF0010825E017494FF46B
:107B3000967248680021FEF798F92B463222002100
:107B4000134807F00FFAC6B2B6B1104805224168D3
:107B500010A0FEF7C9FE0D494868214604F031FC2B
:107B600010B10120BDE8F08108494868394604F0A9
:107B700028FC08B10120F5E75FEA0800A8F101013F
:107B800001F0FF08D2D100BFECE70000C8000020E0
:107B900000440040B7B5BBD83A25730D0A00000079
:107BA0000246114623E008782E281FD111F8010C57
:107BB000302801DB012000E0002011F8013C392BC6
:107BC00001DC012300E0002318420FD04878302860
:107BD00001DB012000E000204B78392B01DC012380
:107BE00000E00023184201D001207047491C0878AA
:107BF0000028D8D100BFF8E770B504460D461646F8
:107C00000A2332462946204600F002F870BD0000E3
:107C10002DE9F04105460C4616461F4637E0294639
:107C20001E4807F020FA1E494FF49672486800215A
:107C3000FEF71BF9334632220021184807F092F96B
:107C400000F0FF08B8F1000F1DD01548052241686B
:107C500014A0FEF749FE2078212808D11049486871
:107C6000611CFDF781FA50B90120BDE8F0810C4993
:107C700048682146FDF778FA08B10120F5E74FF48E
:107C80007A7006F0DDFA4FF47A7006F0D9FA38000F
:107C9000A7F10101CFB2C2D100BFE6E70044004026
:107CA000C8000020B7B5BBD825730D0A000000003E
:107CB00070B50446002500BF2846691CCDB20528D2
:107CC00001DD032070BD05211EA0FEF70DFE20483A
:107CD000006920F010001E4908612046FFF760FF90
:107CE00040B14FF47A721BA11BA0FFF785FF50B97A
:107CF0000120E7E74FF47A7216A11BA0FFF77CFF83
:107D000008B90120DEE74FF47A7006F099FA2146AF
:107D1000194807F0A8F9042218A11CA000F0A6F841
:107D200000B9C9E74FF4FA6006F08AFA05211AA0F3
:107D3000FEF7DAFD0648006940F0100004490861CA
:107D40000020BFE7C1ACBDD3B7FECEF1C6F700003F
:107D5000449D00204F4B000041542B5149444E5349
:107D600049503D300D0A000041542B5149444E53B7
:107D700049503D310D0A000000440040414C52453D
:107D800041445920434F4E4E45435400434F4E4EBD
:107D9000454354204F4B0000C1ACBDD3B3C9B9A675
:107DA0000000000070B50546012622E014494FF49A
:107DB000967248680021FEF758F82B4632220021BF
:107DC000104807F0CFF8C4B29CB10D4948680EA125
:107DD000FDF7CAF928B105210DA0FEF785FD0020A9
:107DE00070BD0748224641680CA002F0FDF8012052
:107DF000F6E73000A6F10101CEB2D7D100BFEFE720
:107E0000C800002000440040434C4F53454400004C
:107E1000C1ACBDD3B1BBB9D8B1D50000BDD3CAD5B3
:107E20003A00000070B50446012610E023464FF4E6
:107E300096720021094807F095F8C5B23DB108488F
:107E40000522416807A0FEF74FFD012070BD3000FC
:107E5000A6F10101CEB2E9D100BFF7E7004400402E
:107E6000C8000020523A2573000000002DE9F041BF
:107E700006460F46144600250BE04FF47A72394649
:107E80003046FFF74BFE10B10120BDE8F081681CC1
:107E9000C5B2A542F1DB0020F7E7F0B504460A467B
:107EA000002300200025214633E00E78252E02D144
:107EB0000125461CB0B2012D2AD10E78642E06D1C0
:107EC000AC461E465F1CBBB202F806C000250E7809
:107ED000662E07D14FF0020C1E465F1CBBB202F8A3
:107EE00006C000250E78732E07D14FF0030C1E46F6
:107EF0005F1CBBB202F806C000250E78632E07D1C6
:107F00004FF0040C1E465F1CBBB202F806C00025F1
:107F1000491C0E78002EC8D1F0BD00002DE9FE43AB
:107F200005460F4600261C48006800901A48001DB0
:107F300000680290184808300068019000241BE097
:107F400014E05DF824003E21B0FBF1F201FB1208C1
:107F5000404605F033FF3146721CD6B268545DF8D6
:107F600024003E21B0FBF1F04DF824005DF8240020
:107F70000028E6D1601CC4B2032CE1DB0F26384692
:107F800005F01CFF3246761CA85400223146761CB0
:107F90006A543046BDE8FE83E8F7FF1FFEB505468C
:107FA00000261948006800901748001D00680290DC
:107FB000154808300068019000241BE014E05DF8CB
:107FC00024003E21B0FBF1F201FB1207384605F018
:107FD000F5FE3146721CD6B268545DF824003E218D
:107FE000B0FBF1F04DF824005DF824000028E6D144
:107FF000601CC4B2032CE1DB00223046711CCEB2FF
:108000002A543046FEBD0000E8F7FF1F014600205D
:108010000A78302A01DB012200E000220B78392B9C
:1080200001DC012300E000231A4203D00A78120782
:10803000100E24E00A78412A01DB012200E0002230
:108040000B78462B01DC012300E000231A4204D008
:108050000A78D21F1207100E11E00A78612A01DB9C
:10806000012200E000220B78662B01DC012300E0F6
:1080700000231A4203D00A78D21F1207100E4A7842
:10808000302A01DB012200E000224B78392B01DC91
:10809000012300E000231A4204D04A78303A024417
:1080A000D0B224E04A78412A01DB012200E000221C
:1080B0004B78462B01DC012300E000231A4204D058
:1080C0004A78373A0244D0B211E04A78612A01DB9B
:1080D000012200E000224B78662B01DC012300E046
:1080E00000231A4203D04A78573A0244D0B270476C
:1080F0000FB438B5044606A800902046009A0599AA
:1081000007F038F800200090204600F067F8C0B271
:1081100038BC5DF814FB00002DE9FC5F0546002625
:10812000B346B1464FF07E5A44E015F8014B2D2C72
:1081300001D101263EE02E2C02D14FF0010B39E097
:10814000302C2EDB392C2CDCBBF1000F0ED11F495B
:108150004846FDF773F88146A4F13000FDF76CFA4C
:1081600007464946FDF712F8814623E05046FDF7E1
:10817000CAFA0746164A174BFDF77DF9CDE900010B
:10818000FDF7FCFA8246A4F13000FDF755FA80466F
:108190005146FDF753F807464946FCF7F7FF81467D
:1081A00008E026B10C494846FDF748F881464846A4
:1081B000BDE8FC9F28780028B7DC26B10649484670
:1081C000FDF73CF881464846F2E7000000002041F8
:1081D0009A9999999999B93F000080BF10B50146C5
:1081E00000200A4601E0431C98B212F8014B002C13
:1081F000F9D110BD002000210CE001EB4102074B3A
:108200001B6803EB02121289012A01D0421CD0B272
:108210004A1CD1B21429F0DB704700006000002036
:1082200070B504460E46002507E02288701905A1A6
:10823000FFF75EFF284485B2A41C20880028F4D1F3
:10824000284670BD2530347800000000024600202A
:1082500039B950784FF6FF7303EA002013781843BA
:1082600006E010784FF6FF7303EA002053781843B6
:10827000704700000149088870470000E0F7FF1FC1
:1082800010B504462AA1204604F09BF808B101204D
:1082900010BD28A1204604F094F808B10220F7E7A9
:1082A00025A1204604F08DF808B10320F0E723A1B2
:1082B000204604F086F808B10420E9E720A1204612
:1082C00004F07FF808B10520E2E71EA1204604F083
:1082D00078F808B10620DBE71BA1204604F071F80E
:1082E00008B10720D4E719A1204604F06AF808B1C4
:1082F0000820CDE716A1204604F063F808B1092054
:10830000C6E714A1204604F05CF808B10A20BFE7D4
:1083100011A1204604F055F808B10B20B8E70FA1D1
:10832000204604F04EF808B10C20B1E70120AFE779
:108330004A616E00466562004D61720041707200D4
:108340004D6179004A756E004A756C004175670091
:10835000536570004F6374004E6F76004465630090
:1083600070B505460024291901220DA0FFF7BBF8BE
:108370002044C4B20AA0FFF783FF064628193246FC
:108380000AA1FFF7B5FE2044C4B22919002204A0B7
:10839000FFF7A9F82044C4B200202855204670BD3C
:1083A0004A756C2031352032303136002D2530327F
:1083B000642D000010B586B0002414E004EB4401E5
:1083C000002202EBC1001822694606F0B5FE0098B3
:1083D000401C00D108E0601CC4B2012005F030FF51
:1083E000FF2C00DB00E0E9E700BF0522214603A0E7
:1083F000FEF77AFA204606B010BD0000B4F2D3A111
:10840000BCC7C2BCCBF7D2FD2564000010B5002468
:108410000F48FFF7BFFA562000F03CF8302000F07C
:1084200039F8002000F036F80A2000F033F8032075
:1084300000F030F8062000F02DF800BF05E0FF2125
:10844000204600F049FE601CC4B2202CF7DB10BDB2
:10845000D8FC000810B5002480210A48FFF7DCFA98
:1084600000B9022440210748FFF7D6FA00B90124D9
:1084700001210548FFF7D0FA012800D10424204645
:1084800010BD0000001001400008014001E001F0B3
:1084900047F9FCE710B504464FF400410B48FFF7DD
:1084A000C4FA032000F044F80421802000F010F802
:1084B0000821204600F00CF84FF400410348FFF774
:1084C000B6FA042000F034F810BD0000001001409E
:1084D00070B504460D46002624E04FF48041134851
:1084E000FFF7A3FA032000F023F814F0800F05D063
:1084F0004FF400510D48FFF79AFA04E04FF4005191
:108500000A48FFF792FA032000F012F84FF4804176
:108510000648FFF78CFA6006040E012000F008F808
:10852000701CC6B2AE42D8DB70BD00000010014026
:1085300000EB400188B200BF0100A0F1010290B23F
:10854000FAD1704710B5002400BF12E00A4A125D4C
:1085500002F00F016206100E00F0BEFD064A125D29
:108560001111012202EB4402D0B200F0B5FD601CF3
:10857000C4B2102CEADB10BD449E00203EB50020A2
:10858000F94908730A4692F8C91092F8C80000F039
:108590004DFAF5490868FDF7B6F8044622460B4641
:1085A000F2A16846FFF794F8EF48008A10F4807F44
:1085B00009D0684600F020FDEB48007B40F08000C9
:1085C000E949087308E0EBA000F016FDE648007BDF
:1085D00040F08000E4490873E3494868FDF793F8E8
:1085E000044622460B46E1A16846FFF771F8DE48D3
:1085F000008A10F4007F16D0DB4890F8B00010F02D
:10860000400F06D0D848007B40F00800D6490873D8
:1086100005E0D548007B40F01000D3490873684658
:1086200000F092FC15E0D04890F8B00010F0400F38
:1086300006D0CD48007B40F00800CB49087305E028
:10864000C948007B40F01000C7490873C9A000F07A
:108650007BFCCA48007940F00200C849087108460E
:10866000807940F001008871BF48007BC873012009
:108670004872BD48008A10F4006F28D0C0480078C6
:10868000012804DD0846407A40F004004872BC48E6
:108690000078022805DDB948407A40F00600B74965
:1086A0004872B7480078032805DDB448407A40F0A6
:1086B0000E00B2494872B24801780078401CB04AB6
:1086C0001070032933DD0120114608702FE0A64900
:1086D0008868FDF718F804460022AA4BFDF73AF81F
:1086E00005D2A648407A40F00400A44948729E4949
:1086F0008868FDF708F80446A34AA44BFDF72AF85A
:1087000005D29E48407A40F002009C494872964942
:108710008868FCF7F8FF044600229D4BFDF71AF825
:1087200005D29648407A40F00800944948728E4835
:10873000008A10F4006F05D09048407A40F0100095
:108740008E4948728848008A10F4806F03D0102048
:108750008A49887305E08948807B20F010008749AA
:108760008873814890F8CE00632801DA012000E088
:1087700000207D4991F8CE10002901DD012100E0A3
:108780000021084206D07D48007940F010007B4966
:10879000087105E07948007920F0100077490871E8
:1087A000714890F8CE00632801DA012000E0002033
:1087B0006D4991F8CE100A2901DD012100E0002168
:1087C000084206D06D48007940F020006B490871DE
:1087D00005E06A48007920F0200068490871624885
:1087E00090F8CE00632801DA012000E000205E4905
:1087F00091F8CE10142901DD012100E0002108428A
:1088000006D05E48007940F040005C49087105E000
:108810005A48007920F04000584908715248007CBD
:1088200010F0100F06D05548807B40F040005349AF
:10883000887305E05148807B20F040004F498873E1
:108840004948007C10F0030F06D04C48007940F0F6
:1088500001004A49087105E04848007920F001000C
:10886000464908714048007C10F00C0F06D0434880
:10887000407940F001004149487105E03F484079A6
:1088800020F001003D4948713748007C10F0050F89
:1088900006D03A48807B40F080003849887305E074
:1088A0003648807B20F08000344988732E48007C55
:1088B00010F00A0F06D03148807B40F020002F498D
:1088C000887305E02D48807B20F020002B498873B9
:1088D0002548007C10F0800F06D02848007940F031
:1088E00004002649087105E02448007920F00400BE
:1088F000224908711C4890F8D200FF2806D11F4871
:10890000407B40F040001D49487305E01B48407B18
:1089100020F04000194948731348007C10F0400FC4
:1089200006D01648407B20F020001449487305E02B
:108930001248407B40F02000104948730A4890F8E4
:10894000B00010F0800F06D00C48807B40F00A0089
:108950000A49887305E00948807B20F00A0007492E
:108960008873FFF7EFFD3EBD449D0020252E326643
:10897000202000002D2D2D2D00000000449E002001
:10898000A400002000000C409A99999999990D40F3
:108990000000104070B50546002404E00020164990
:1089A0000855601CC4B2102CF8DB14A000F024FBA6
:1089B000052D18D2DFE805F003070B0F130011A0F7
:1089C00000F0C2FA13E011A000F0BEFA0FE011A00F
:1089D00000F0BAFA0BE011A000F0B6FA07E011A01F
:1089E00000F0B2FA03E007A000F0AEFA00BF00BF4B
:1089F000FFF7A8FD70BD0000449E0020424F4F5479
:108A00000000000054502D300000000030432D3194
:108A10000000000055432D320000000055502D335A
:108A20000000000030502D3300000000F8B504466F
:108A30000D460A2095FBF0F100FB11502B49085C14
:108A40008DF800000A2095FBF0F0085C8DF801001D
:108A50000A2094FBF0F100FB11402449085C8DF8DA
:108A600002000A2094FBF0F0C6B21EB900208DF877
:108A7000030008E0012E03D106208DF8030002E078
:108A80000C208DF803001A48007828B19DF80000EA
:108A900040F010008DF800001548007808B901205A
:108AA00000E00020124908709DF8030040F08000AB
:108AB0008DF803009DF8030040F010008DF80300CE
:108AC0009DF80010142000F0F1FA9DF80110162016
:108AD00000F0ECFA9DF80210182000F0E7FA9DF87B
:108AE00003101A2000F0E2FAF8BD00001AFD000899
:108AF000A3000020F0B587B00446002504E0002064
:108B00006A494855681CC5B2102DF8DB052C2AD2DD
:108B1000DFE804F0032A5179A1006549D1F8E800A3
:108B2000FCF7F1FD064632460B4662A104A8FEF7AB
:108B3000CFFD5F49D1F8EC00FCF7E5FD0646324673
:108B40000B465CA101A8FEF7C3FD04A800F054FA8F
:108B500001A800F0F9F95548007940F002005349A6
:108B60000871A020887391E05149D1F8F000FCF71A
:108B7000CAFD064632460B464EA104A8FEF7A8FDE4
:108B80004B49D1F8F400FCF7BEFD064632460B46D1
:108B900048A101A8FEF79CFD04A800F02DFA01A849
:108BA00000F0D2F94148807940F001003F498871D6
:108BB000A02088736AE03E498869FCF7A4FD064658
:108BC00032460B463BA104A8FEF782FD3849C8692E
:108BD000FCF799FD064632460B4636A101A8FEF782
:108BE00077FD04A800F008FA01A800F0ADF92F48BD
:108BF000007940F002002D4908710846007940F0E4
:108C00000100087142E02A49086AFCF77CFD06462B
:108C100032460B4629A104A8FEF75AFD2449486AAA
:108C2000FCF771FD064632460B4624A101A8FEF76B
:108C30004FFD04A800F0E0F901A800F085F91B48F9
:108C4000807940F00100194988710846407940F068
:108C5000010048711AE01BA104A8FEF739FD144871
:108C600090F8D22018A101A8FEF732FD04A800F068
:108C7000C3F901A800F068F900200D4908730B48FA
:108C8000807B40F00A000949887300BF00BF0020C4
:108C90000649C873064A92F8C91092F8C800FFF74F
:108CA000C5FEFFF74FFC07B0F0BD0000449E00205A
:108CB000449D0020252E326620200000252E32669D
:108CC00020000000202020002530336420202000D8
:108CD000FEB508208B4908730A4692F8C91092F82D
:108CE000C800FFF7A3FE88A000F086F9854991F837
:108CF000D000FCF7AAFC0646FCF705FD0446224618
:108D00000B4683A16846FEF7E3FC684600F01CF9B9
:108D10008148007940F002007F4908710846807957
:108D200040F0010088717748007BC87301204872C9
:108D300074498868FCF7E7FC04464FF06632774BCD
:108D4000FCF708FD05D27448407A40F004007249EF
:108D500048726C498868FCF7D6FC04464FF0333201
:108D60006F4BFCF7F7FC05D26B48407A40F00200ED
:108D70006949487263498868FCF7C5FC04460022CB
:108D8000684BFCF7E7FC05D26348407A40F00800E6
:108D9000614948725B498868FCF7B5FC04464FF0AE
:108DA0006632614BFCF7D6FC05D25B48407A40F056
:108DB000100059494872534890F8CE00632806DAEB
:108DC0005548007940F010005349087105E05248B9
:108DD000007920F01000504908714A4890F8CE0000
:108DE000322806DA4C48007940F020004A490871E0
:108DF00005E04948007920F02000474908714148C2
:108E000090F8CE00142806DA4348007940F040007C
:108E10004149087105E04048007920F040003E4992
:108E200008713848007C10F0100F06D03A48807B5B
:108E300040F040003849887305E03748807B20F0D7
:108E40004000354988732F48007C10F0030F06D08E
:108E50003148007940F001002F49087105E02E48A3
:108E6000007920F001002C4908712648007C10F0A0
:108E70000C0F06D02848407940F00100264948717F
:108E800005E02548407920F00100234948711D483C
:108E9000007C10F0050F06D01F48807B40F080005A
:108EA0001D49887305E01C48807B20F080001A492A
:108EB00088731448007C10F00A0F06D01648807B97
:108EC00040F020001449887305E01348807B20F0AF
:108ED0002000114988730B4890F8B00010F0800F03
:108EE00006D00D48807B40F00A000B49887305E0EE
:108EF0000948807B20F00A0007498873FFF722FBAE
:108F0000FEBD0000449D00202D55502D00000000A6
:108F1000252E326620200000449E002066660E400A
:108F200033330F40000010406666104070B50546B0
:108F30000C4604480168284603F0F4F8265C3046E5
:108F400070BD0000880000207CB506460024354630
:108F5000082200216846FCF788FF1CE028782E28AC
:108F60000CD028782349FFF7E1FF1DF804100843CF
:108F70000DF80400601CC4B26D1C09E06D1C1D4995
:108F80002E20FFF7D3FF1DF8041008430DF804004E
:108F9000032C00DD02E028780028DFD100BF6D46F9
:108FA00017E014492E20FFF7C1FF9DF80110084279
:108FB0000ED0032409E0601E1DF800000DF8040027
:108FC0000021601E0DF80010C4B2002C01DDF2E794
:108FD00000E0E6E700BF002409E015F8011B0A22C3
:108FE00002EB4402D0B200F061F8601CC4B2042C61
:108FF000F3DB7CBD05FD00087CB506460024354644
:10900000082200216846FCF730FF1CE028782E2853
:109010000CD028782449FFF789FF1DF80410084375
:109020000DF80400601CC4B26D1C09E06D1C1E49E3
:109030002E20FFF77BFF1DF8041008430DF80400F5
:10904000032C00DD02E028780028DFD100BF6D4648
:10905000062417E014492E20FFF768FF9DF8011041
:1090600008420ED0032409E0601E1DF800000DF830
:1090700004000021601E0DF80010C4B2002C01DDB8
:10908000F2E700E0E6E700BF002409E015F8011B65
:109090000622A2EB4402D0B200F008F8601CC4B271
:1090A000042CF3DB7CBD0000F0FC000870B5044626
:1090B0000D4605F00F01204600F00EF82911621C44
:1090C000D0B200F009F8204604EBD0714910014AF3
:1090D000555470BD449E002070B504460D464FF4B3
:1090E00000410D48FEF7A1FC0320FFF721FA032100
:1090F000A020FFF7EDF9A106080E0621FFF7E8F919
:109100002907080E0421FFF7E3F94FF40041024854
:10911000FEF78DFC70BD00000010014010B5044644
:109120000120A0470320A04710BD2DE9FF470746B7
:1091300016461C46DDE90C899DF804004006000E29
:109140000190002C16DD384600F0C0F8012201A97C
:10915000384600F076F8054635B93846FFF7DEFFA9
:10916000002004B0BDE8F08722463146384600F0C2
:1091700068F80546384600F0A9F89DF8040040F06C
:1091800001000190012201A9384600F05AF8054675
:109190004A464146384600F006F80546384600F093
:1091A000ACF82846DDE72DE9F04704460E461546A3
:1091B000A94628E04FF00008002714E07806070EC3
:1091C0000320A0470A2006F04DFC0520A04708B167
:1091D00047F001070420A0470A2006F043FC08F1ED
:1091E000010000F0FF08B8F1080FE7DB06F8017B8B
:1091F000002D04DD0021204600F00DF803E00121E0
:10920000204600F008F82800A5F10101CDB2D1D127
:109210004846BDE8F08770B504460D4615B10120FB
:10922000A04701E00220A0470320A0470A2006F043
:1092300019FC0420A0470A2006F014FC0120A047D6
:1092400070BD2DE9F04704460E461546A94639E0A3
:1092500016F8018B002717E018F0800F02D00120CC
:10926000A04701E00220A0470320A0470A2006F003
:10927000F9FB0420A0470A2006F0F4FB781CC7B2D3
:109280004FEA48604FEA1068082FE5DB0120A0474D
:109290000320A0470A2006F0E5FB0520A0478246F0
:1092A0000A2006F0DFFB0420A0470A2006F0DAFBC4
:1092B000BAF1000F04D0A9EB0500C0B2BDE8F087F9
:1092C000681EC5B2002DC3D14846F7E710B5044665
:1092D0000320A047052006F0C5FB0120A0470A2077
:1092E00006F0C0FB0220A0470A2006F0BBFB0420CA
:1092F000A0470A2006F0B6FB10BD10B504460220B8
:10930000A047142006F0AEFB0320A0470A2006F079
:10931000A9FB0120A0471E2006F0A4FB10BD2DE9EB
:10932000FF47074614461D46DDE90C899DF80400F9
:109330004006000E01903846FFF7C8FF012201A940
:109340003846FFF77EFF064636B93846FFF7E6FE99
:10935000002004B0BDE8F0872A4621463846FFF7D2
:1093600070FF06464A4641463846FFF76AFF064602
:109370003846FFF7C2FF3046EBE700002DE9F04129
:10938000054609492846FBF759FF0746FCF788F9C7
:1093900086B2A6F56170322190FBF1F0C4B284F080
:1093A00020042046BDE8F081000048437CB5044617
:1093B00007226946002000F0D1F805460DB90020CB
:1093C0007CBD9DF8001001F07F00FCF710FDA0713E
:1093D0009DF8011001F07F00FCF709FD60719DF818
:1093E000021001F03F00FCF702FD20719DF8031010
:1093F00001F03F00FCF7FBFCA0709DF8041001F0A9
:109400001F00FCF7F4FC60709DF80500FCF7EFFC12
:1094100020709DF80600FCF7EAFCE0700120CFE721
:1094200070B504460025062C33D2DFE804F0320381
:109430000C151E27184A12681189174A12685068BD
:10944000FEF7F5FA25E0144A12681189124A1268EB
:109450005068FEF7EAFA1CE00F4A1268918A0E4A39
:1094600012681069FEF7E3FA13E00B4A1268918A5A
:10947000094A12681069FEF7D8FA0AE0064A12682B
:109480001189054A12685068FEF7C6FA00B1012535
:1094900000BF00BF284670BDC000002038B505469B
:1094A00000242C4805600068FEF774FA0122694622
:1094B000122000F053F804469DF800005D2847D0C4
:1094C0001021072000F0DAF804409021082000F075
:1094D000D5F804402048FFF751FF00909DF8001098
:1094E0000A2000F0CBF8044000210B2000F0C6F861
:1094F00004405D21122000F0C1F8044000231A4608
:109500001946184600F03AF804400021084600F0D9
:10951000B5F804400021012000F0B0F8044080219B
:10952000022000F0ABF804400121032000F0A6F86F
:1095300004400121042000F0A1F80440002105208E
:1095400000F09CF804400621084600F097F804401B
:10955000204638BDC00000200000C04037B582B0B2
:109560000C461546012302AA6F210348CDE90045A8
:10957000FFF7DBFD05B030BD219400082DE9F8436D
:1095800081460F4690461C4601264046FDF78FFA5D
:109590008DF800003846FDF78AFA8DF8010048463C
:1095A000FDF785FA8DF8020014F0010F05D09DF843
:1095B000000040F080008DF8000014F0020F05D08C
:1095C0009DF8010040F080008DF8010014F0040FB8
:1095D00005D09DF8020040F080008DF802000025C3
:1095E00009E01DF8051005F10C02D0B200F046F8B4
:1095F0000640681CC5B2032DF3DB002C05DDD0212D
:10960000082000F03BF8064004E09021082000F01C
:1096100035F806403046BDE8F8837CB50446A079AD
:10962000FDF745FA8DF800006079FDF740FA8DF8F6
:1096300001002079FDF73BFA40F080008DF8020030
:10964000A078FDF734FA8DF803006078FDF72FFA63
:109650008DF804002078FDF72AFA8DF80500002522
:1096600007E01DF80510E8B200F008F80640681C95
:10967000C5B2072DF5DB30467CBD000003B583B0D5
:10968000012004A9034603AACDE900106F21024876
:10969000FFF745FE05B000BD2194000870B50446F3
:1096A0000D462B4622460249024800F005F870BDDF
:1096B00000F80308E37500082DE9F04707468846DF
:1096C00014461D46A14608EBC52004222146B84792
:1096D0004E463088B0F5006F01DD012000E000202B
:1096E0003188042901DA012100E00021084300D07B
:1096F00013E0328808EBC5202146B8473088001FA8
:1097000081B209F1040004F06FFB82467188514573
:1097100000D002E00120BDE8F0870020FBE7000058
:1097200071B600BF0648006800F4E06005490843D0
:10973000001D03490860BFF3408F00BF00BFFEE774
:109740000CED00E00000FA0510B5052106A0FDF7BC
:10975000CBF808A10B4805F086FC4FF47A710AA0FB
:10976000FEF768F910BD0000C9BEB3FDCFFBCFA264
:109770000000000041542B434D47443D312C340D33
:109780000A000000004400404F4B000070B5054641
:1097900025B1284604F02AFE044602E004F0F0FD5C
:1097A000044614B16668304670BD0020FCE7000036
:1097B000F0B59DB005460C46607A48B1627A04A9BE
:1097C0006068FCF741FB0020617A04AA505403E072
:1097D00004A9606802F0C2FD207A0D2839D009DCA6
:1097E00075D2DFE800F0AC10ACAC231C63ACAC422B
:1097F000AC152F0017380728F2D2DFE800F03D46FD
:10980000A03074825F0028462168FDF761FF9BE06D
:109810006068027828462168FDF75AFF94E0606886
:10982000028828462168FDF753FF8DE061680868CB
:10983000FBF769FF06460B46324628462168FDF7CE
:1098400047FF81E06068027828462168FDF740FF05
:109850007AE02846D4E90012FDF73AFF74E004AA42
:1098600028462168FDF734FF6EE0606802682846EC
:109870002168FDF72DFF67E06068804706463246A5
:1098800028462168FDF724FF5EE060680078002824
:1098900001DD012000E0002000EB40002C4B03EB39
:1098A000400228462168FDF713FF4DE0606890F9FB
:1098B000002028462168FDF70BFF45E0606800683E
:1098C000667A0123B340184202D0012001E036E05D
:1098D000002000EB40001E4B03EB400228462168AD
:1098E000FDF7F6FE30E06068007861684978CDE900
:1098F000001060688378C27828462168FDF7E8FE8A
:1099000022E06168098888B202F0BAFF03906168BA
:10991000098888B202F0B4FF02906168098888B2B1
:1099200002F0AEFF01909DF80E0000909DF8093006
:109930009DF8042028462168FDF7CAFE04E0284669
:109940002168FDF7C5FE00BF00BF1DB0F0BD0000DF
:1099500024FD000800BFFEE7054A1168486802E0E0
:1099600009684A6810440A68002AF9D17047000063
:109970007400002002460A4B1868002106E0A2F19C
:109980000803834200D107E0014600680368002B0A
:10999000F5D101B10B60704703680B6000BFFAE7B7
:1099A00074000020054908600021044A1268116013
:1099B0000821024A126851607047000074000020BC
:1099C00010B503461048016803F1080083B20FE0A8
:1099D0000868401A4C68001B984208D3486842182F
:1099E0005360086810600A6002F1080010BD096841
:1099F00008680028ECD148684218002010605360C5
:109A00000A6002F10800F1E774000020014600201E
:109A10000A4602E00C32431CD8B2137A002BF9D16B
:109A2000704730B5039C7E2505707F2505738270D5
:109A30004170C373447330BD2DE9F05F06460C4698
:109A400091469A46DDF828B00C9F002584F80390D3
:109A500084F804A084F808B0678117B1F81CE0808E
:109A600001E00020E08022782846691C8DB2325443
:109A7000E07B50B9A2782846691C8DB232546278D6
:109A80002846691C8DB232540CE0E07B012809D1D4
:109A900062782846691C8DB23254A2782846691C27
:109AA0008DB23254E2782846691C8DB23254227944
:109AB0002846691C8DB23254E08802122846691C7F
:109AC0008DB23254A2792846691C8DB23254BFB18E
:109AD000227A2846691C8DB23254608902122846C7
:109AE000691C8DB23254A27A2846691C8DB2325458
:109AF000628971190B98FCF7A7F96089284485B22F
:109B0000607B012810D12946304604F06DF980466B
:109B10004FEA28222846691C8DB232542846691C17
:109B20008DB206F800800BE0607B022808D1681E29
:109B300081B2304604F094F929466A1C95B27054FB
:109B4000227B2846691C8DB232542846BDE8F09F1E
:109B50002DE9F05F06468B4614460025AA460120F3
:109B6000A07329466D1C705C2178884200D099E072
:109B7000E07B50B92846691C8DB2305C6178884220
:109B800000D093E0681C85B220E0E07B01281DD165
:109B90002846691C8DB216F80080A078404501D097
:109BA000012000E00020B8F1FF0F01D0012100E00A
:109BB0000021084200D079E0681C85B2B8F1FF0F9F
:109BC00002D14FF0010901E04FF000092846691C5D
:109BD0008DB2305CE0702846691C8DB2305C20711B
:109BE0002846691C8DB2305CE080E0884FF6FF713A
:109BF00001EA0020E080E08829466A1C95B2715C89
:109C00000843E080E08800B32846691C8DB2305CD0
:109C100020722846691C8DB2305C608160894FF6E5
:109C2000FF7101EA00206081608929466A1C95B2B3
:109C3000715C08436081AA466089284485B2E18846
:109C40006089C01C814200D034E0607B022809D1C9
:109C50002946304604F004F90746715DB94200D048
:109C60001CE010E0607B01280CD12946304604F04E
:109C7000BBF8074670190121FEF7E8FAB84200D098
:109C80000CE000E000BFB9F1010F02D10620A07383
:109C900001E00020A0735046BDE8F09F0220A073B1
:109CA0000020F9E70520A0730020F5E70620A07347
:109CB0000020F1E70120A0730020EDE770470000CD
:109CC00070B5002100230F22C4780CB3164C246811
:109CD00004F4E064C4F5E064210AC1F10403CA405D
:109CE000447804FA03F184781440214309010F4CAD
:109CF0000678A155047804F01F050124AC400578CE
:109D00006D114FF0E02606EB8505C5F8004109E02E
:109D1000047804F01F050124AC40054D0678761147
:109D200045F8264070BD00000CED00E000E400E0C6
:109D300080E100E002490143024A116070470000DF
:109D40000000FA050CED00E0024A0A400243024B13
:109D50001A60704780FFFF1F08ED00E010B588B063
:109D6000002269460BA000F06FFA044674B1684601
:109D7000FCF732F950B10522694609A0FCF7B4FDA1
:109D80000B220C490DF10200FCF75EF8204608B0EA
:109D900010BD000041542B435343413F0D0A0000C6
:109DA000B6CCD0C5D6D0D0C4BAC5C2EB3A5B257309
:109DB0005D000000209E00200149086270470000FD
:109DC0000000424210B5024600200C4B186820F0FB
:109DD0000300104318600A4B1B6843F00403084C4F
:109DE0002360012901D130BF00E020BF044B1B6874
:109DF00023F00403024C236010BD000000700040FB
:109E000010ED00E00149086070470000A0044242E4
:109E10007047000010B5032209A10BA0FCF764FDF8
:109E200003220DA110A0FCF75FFD0322124913A02D
:109E3000FCF75AFD0322164916A0FCF755FD10BD8C
:109E40005450353030000000426F6172645F4E61E3
:109E50006D653A257300000053544D33324C313553
:109E600031524254360000004350555F4D6F6465D7
:109E70006C3A25730000000000127A004370755F91
:109E80004F53435F465245513A2025644D687A004E
:109E900000A24A044370755F467265713A202564DA
:109EA0004D687A007047000000B585B06846FEF73F
:109EB00075F80322694602A0FCF716FD05B000BD47
:109EC0004F6E6C7949443A257300000070470000DA
:109ED00010B5032108A0FCF707FDFFF79BFFFFF774
:109EE000E1FFFFF7E1FFFCF72DFE00F013F8FFF7AD
:109EF000EDFF00F02FF810BD0A546F7320537973F3
:109F000074656D2053746172742E2E2E2E2E2E2E9B
:109F10002E2E2E0010B5FEF76DF9044603232246BF
:109F2000142102A0FCF7E0FC10BD00005461736B2B
:109F3000506F6F6C53697A653A256420627574209E
:109F4000686173202564207461736B20637265619E
:109F500074652E0038B500241DE004EB440015495B
:109F6000096801EB0010C06A98B10320009004EB6F
:109F700044001049096801EB0010038C04EB440015
:109F80000C49096801EB00102146C26A0AA0FCF7DF
:109F9000ABFC601CC4B2142CDFDB601EC4B2FFF744
:109FA000DBFC054603232A4649F6404107A0FCF79F
:109FB0009BFC38BD600000205461736B5B25645DC1
:109FC0004E616D653A257328256429004D656D6FD6
:109FD000727953697A653A256420627574207573C5
:109FE00065723A25640000002DE9F04105460E46F1
:109FF00017460522294608A0FCF776FC002407E056
:10A00000325D0523214605A0FCF76EFC601C84B27E
:10A01000BC42F5DBBDE8F081257300004275665B4C
:10A0200025645D3D307825780000000010B500F013
:10A0300041FB04462CB10522214606A0FCF754FC46
:10A0400003E0052108A0FCF74FFC4FF4FA6004F090
:10A05000F7F810BDB7A2CBCDC5E4D6C3D6A1CAA729
:10A06000B0DC5B25645D0000B7A2CBCDC5E4D6C3F0
:10A07000D6A14F4B0000000000B599B00948B0F8D8
:10A08000AA3000F1890208A16846FDF721FB0522EC
:10A0900069460CA0FCF728FC6846FDF709FE19B0DC
:10A0A00000BD0000449D002041542B51494F5045B4
:10A0B0004E3D22544350222C222573222C25640D20
:10A0C0000A000000C1ACBDD3B5BD3A257300000045
:10A0D00010B54FF47A7229A129A0FDF78DFD08B9BA
:10A0E000012010BD00F096F8284981F8CE00052126
:10A0F00027A0FCF7F9FB052128A0FCF7F5FB4FF49E
:10A100007A7229A129A0FDF777FD02234FF47A7214
:10A1100029A126A0FDF77CFD20B9052127A0FCF789
:10A12000E3FB03E0052127A0FCF7DEFB02234FF44D
:10A130007A7226A127A0FDF76BFD40B1052128A06A
:10A14000FCF7D2FB0220114981F8CF000FE0022377
:10A150004FF47A7226A11FA0FDF75AFD38B10521F0
:10A1600025A0FCF7C1FB0420084981F8CF00052198
:10A1700025A0FCF7B9FB0020B3E700002139390026
:10A1800041542B4353510D0A00000000449D002010
:10A19000BCECB2E9D0C5BAC500000000D5FDD4DAE8
:10A1A000D7A2B2E1000000003000000041542B4370
:10A1B0005245473F0D0A000035000000B1BEB5D83A
:10A1C000BFA80000CDE2B5D8BFA800004D4F42495E
:10A1D0004C45000041542B434F50533F0D0A0000A3
:10A1E000D6D0B9FAD2C6B6AF53494DBFA8000000C9
:10A1F000554E49434F4D0000D6D0B9FAC1AACDA85B
:10A2000053494DBFA8000000D7A2B2E1B3C9B9A617
:10A210000000000008B5694605A000F06FF89DF841
:10A220000010052205A0FCF75FFB9DF8000008BDAB
:10A2300041542B4353510D0A00000000D0C5BAC54C
:10A24000C7BFB6C83A2564002DE9F84F82460C46D0
:10A2500017464FF0000800200090814651462548DF
:10A2600004F001FF24494FF4967248680021FBF77F
:10A27000FCFD4FF47A73322200211E4804F072FE76
:10A2800000F0FF0BBBF1000F30D000202070002544
:10A290002AE019484068465D302E01DB012000E0CD
:10A2A0000020392E01DC012100E00021084209D004
:10A2B0004F4504D14046411C01F0FF0826540120BF
:10A2C00000900FE0009868B14F4505D1002240464C
:10A2D000411C01F0FF0822540020009009F1010008
:10A2E00000F0FF09681CC5B25D45D2DB4046BDE801
:10A2F000F88F000000440040C80000202DE9F0471E
:10A3000080460C460025AA464146234804F0ABFE91
:10A3100022494FF4967248680021FBF7A6FD4FF4DE
:10A320007A73322200211C4804F01CFE00F0FF0961
:10A33000B9F1000F2CD000202070002626E017482D
:10A340004068875D302F01DB012000E00020392FBD
:10A3500001DC012100E0002108420DD0605D00EB2E
:10A3600080004006000E6055615DA7F13000084492
:10A3700060554FF0010A07E0BAF1000F04D0681CE5
:10A38000C5B2002060558246701CC6B24E45D6DB71
:10A390002846BDE8F087000000440040C8000020C7
:10A3A00010B54FF480714148FDF741FB404800690A
:10A3B00020F020003E49086140F24C4003F040FF8D
:10A3C00005213CA0FCF790FA4FF480713748FDF767
:10A3D0002CFB40F24C4003F033FF4FF4005138485F
:10A3E000FDF725FB40F24C4003F02AFF052135A084
:10A3F000FCF77AFA4FF400513148FDF716FB4FF4A1
:10A400007A7003F01DFF4FF480713148FDF704FBB3
:10A41000012804D105212FA0FCF766FA01E00120F4
:10A4200010BD43F2B06003F00BFF4FF47A722CA121
:10A430002CA0FDF7E1FB08B90220F1E705212BA0D4
:10A44000FCF752FA4FF47A7003F0FAFE4FF4FA6216
:10A4500023A12AA0FDF7D0FB08B90320E0E70521DE
:10A4600028A0FCF741FA4FF47A721DA128A0FDF74D
:10A47000C3FB08B90420D3E70D48006940F0200071
:10A480000B490861052125A0FCF72EFAFFF720FEF5
:10A4900004462CB10522214624A0FCF725FA03E04E
:10A4A000052126A0FCF720FA0020B9E700100140A2
:10A4B000449D002047505253C9CFB5E7000000002B
:10A4C000000C014047505253BFAABBFA00000000E5
:10A4D00000080140BFAABBFAB3C9B9A6000000003A
:10A4E0004F4B000041540D0A000000004154D6B803
:10A4F000C1EED6B4D0D0B3C9B9A60000415445309E
:10A500000D0A0000C9E8D6C3B2BBBBD8CFD4000047
:10A5100041542B4350494E3F0D0A0000B2E9BFB4ED
:10A52000CAC7B7F1D3D050494E000000C1ACBDD36B
:10A53000CDF8CAA7B0DC5B25645D0000C1ACBDD31B
:10A54000CDF8C2E7B3C9B9A60000000010B50446B3
:10A550004FF47A7003F074FE4FF47A7220A122A0B7
:10A56000FDF74AFB08B9012010BD8CB94FF47A728F
:10A5700024A125A0FDF740FB08B90220F4E74FF421
:10A580007A7220A123A0FDF737FB08B90420EBE77E
:10A59000012C11D14FF47A721AA123A0FDF72CFBE4
:10A5A00008B90320E0E74FF47A7216A119A0FDF76D
:10A5B00023FB08B90420D7E74FF47A7211A11DA03C
:10A5C000FDF71AFB08B90520CEE74FF47A720DA10A
:10A5D0001EA0FDF711FB08B90620C5E70020C3E760
:10A5E00043504D530000000041542B43504D533D08
:10A5F000224D54222C224D54222C224D54220D0A3D
:10A60000000000004F4B000041542B434D47463D96
:10A61000300D0A0041542B435343533D22554353BD
:10A6200032220D0A0000000041542B434D47463DA5
:10A63000310D0A0041542B43534D503D31372C31DD
:10A6400036372C302C380D0A0000000041542B43C3
:10A650004E4D493D322C312C302C302C300D0A001F
:10A6600070B504460D494FF4967248680021FBF717
:10A67000FCFB21460A4804F0F6FC4FF47A734FF4D1
:10A6800096720021064804F06DFCC5B22DB1034856
:10A690000522416803A0FCF727F970BDC80000201F
:10A6A00000440040B6C1B6CCD0C5B7B5BBD83A253A
:10A6B0007300000010B5B2B000243A4890F8B00022
:10A6C00010F0200F44D0052137A0FCF70DF940F61B
:10A6D000B83003F0B5FD0DEB0401102231485130C4
:10A6E000FBF7B2FB204484B20522214632A0FCF7DE
:10A6F000FBF8224634A1384804F0B5FC4FF4FA6167
:10A7000036A0FDF7CDF900B10EE04FF4FA6133A0A9
:10A71000FDF7C6F900B107E04FF4FA612FA0FDF78D
:10A72000BFF900B100E000BF224669462A4804F0A4
:10A730008AFC4FF47A712AA0FDF7B2F910B9022011
:10A7400032B010BD4FF4FA60FDF72CFB0020F7E7A4
:10A75000052125A0FCF7C8F80DEB040110221148D3
:10A760005130FBF771FB204484B2224616A11A48EF
:10A7700004F079FC4FF47A7003F062FD052269461B
:10A780001DA0FCF7B1F822466946134804F05BFCB3
:10A790004FF47A7112A0FDF783F908B90220CFE7D0
:10A7A0000020CDE7449D0020C5E4D6C3CEAA4A2DA3
:10A7B000544350D0ADD2E900B7A2CBCDC5E4D6C347
:10A7C0005B25645D0000000041542B514953454E08
:10A7D000443D25640D0A0000004400403E00000096
:10A7E00053454E44204F4B00C5E4D6C3CEAA544334
:10A7F00050D0ADD2E9000000B7A2CBCDC5E4D6C39E
:10A800003A2573002DE9F047ADF5007D002482481C
:10A8100090F8B00010F0200F76D003A908197FA19E
:10A82000FDF766FC204484B27B490868FAF76BFFA9
:10A8300005460B4603A908192A467DA1FDF758FCD9
:10A84000204484B274494868FAF75DFF05460B4618
:10A8500003A908192A4676A1FDF74AFC204484B2D0
:10A860006D498868FAF74FFF05460B4603A908199A
:10A870002A466FA1FDF73CFC204484B2664991F85A
:10A88000CE00FAF7E2FE0746FAF73DFF05460B4613
:10A8900003A908192A4666A1FDF72AFC204484B2C0
:10A8A0005D49D1F8D400FAF72EFF05460E465A4905
:10A8B000D1F8D800FAF727FF07460B4603A9081975
:10A8C0003A465FA1CDE90056FDF712FC204484B260
:10A8D00003A9081960A1FDF70BFC204484B20522EE
:10A8E00003A95EA0FCF700F822465FA1624804F0CD
:10A8F000BAFB4FF4FA6161A0FDF7D2F828B9012044
:10A900000DF5007DBDE8F08711E0224603A95A4805
:10A9100004F099FB4FF47A7159A0FDF7C1F808B91A
:10A920000220EDE74FF4FA60FDF73CFA71E03A4996
:10A9300008680021FAF748FF02D84FF02B0901E020
:10A940004FF02D09344948680021FAF73DFF02D83D
:10A950004FF02B0A01E04FF02D0A2F490868FAF753
:10A96000D2FE4A46CDE9000147A103A8FDF7C0FB8E
:10A970000446294A11685068FAF71CFF0BD2264991
:10A980004868FAF7C0FE5246CDE900013EA103A88F
:10A99000FDF7AEFB04462048008A10F4807F0CD0FF
:10A9A0001D490868FAF7AFFE4A46CDE9000136A115
:10A9B00003A8FDF79DFB044610E01748008A10F439
:10A9C000007F0BD014494868FAF79DFE5246CDE946
:10A9D00000012DA103A8FDF78BFB0446224622A10E
:10A9E000254804F040FB4FF47A7003F029FC05225F
:10A9F00003A91AA0FBF778FF224603A91E4804F01A
:10AA000022FB4FF47A711EA0FDF74AF808B9022024
:10AA100076E7002074E70000449D00207B227365E8
:10AA20006E736F724461746173223A5B00000000C0
:10AA30007B2276616C7565223A252E32667D2C006C
:10AA40007B226C6174223A252E37662C226C6E674D
:10AA5000223A252E37667D005D7D0000B7A2CBCD62
:10AA6000CAFDBEDD3A25730041542B514953454E72
:10AA7000443D25640D0A0000004400403E000000F3
:10AA800053454E44204F4B002354503330302C2537
:10AA90006330252E31662C302E30300D0A00000038
:10AAA00030B5B3B00025002400BF3C4890F8B0009A
:10AAB00010F0200F54D024B939A101A801F034FEC0
:10AAC0000546012C04D138A101A801F02DFE054650
:10AAD000022C04D138A101A801F026FE0546032C62
