:020000040800F2
:1050000058A2002045510008698E0008558100080B
:10501000018B0008295E000889D500080000000007
:105020000000000000000000000000001DAA0008B1
:10503000556A000800000000658F00082BB20008C8
:105040005F5100085F5100085F5100085F51000880
:105050005F5100085F510008D57000085F510008DB
:105060005F5100085F5100085F5100085F51000860
:105070005F5100085F5100085F5100085F51000850
:105080005F5100085F5100085F5100085F51000840
:105090005F5100085F5100085F5100085F51000830
:1050A0005F5100085F5100085F5100085F51000820
:1050B0005F5100085F5100085F5100085F51000810
:1050C0005F5100085F5100085F5100085F51000800
:1050D0005F510008A1CE0008F5CE000855CF0008AA
:1050E0005F5100085F5100087DD500085F5100083E
:1050F0005F5100085F5100085F5100085F510008D0
:105100005F5100085F5100085F5100085F510008BF
:10511000F9CD00084DCE00085F5100085F5100082E
:105120005F5100085F5100085F5100085F5100089F
:10513000DFF80CD000F078FC0048004729DF0008B9
:1051400058A200200648804706480047FEE7FEE7D1
:10515000FEE7FEE7FEE7FEE7FEE7FEE7FEE7FEE727
:1051600035B200083151000830B505462A460B46D5
:1051700012F8010B13F8014B08B1A042F8D01CB192
:10518000002802D06D1CF1E7284630BDF0B480EA5B
:105190000102D40F4200B2EB410F02D20246084690
:1051A00011464A0042D0C30DDDB2C1F3C752AD1A59
:1051B000202D35DAC1F3160141F4000204B1524248
:1051C000C5F1200602FA06F12A411044B3EBD05F84
:1051D00023D0C4B1012DA0EBC35009DCF0BC4FF0CB
:1051E000004202EAC35200F50000DBB200F077BBD8
:1051F000400000F1807000EBC350A0F1807040EAE5
:10520000D170490009E0490841EAC071A0EBC350E0
:1052100000F50000400800EBC350F0BC00F056BBA6
:105220006142012202EB4101001BF6E7F0BC70472E
:1052300081F00041AAE780F00040A7E780EA010280
:1052400010B502F00043400026D04A0023D04FEAB8
:10525000106101EB1261C0F35600C2F3560240F434
:10526000000042F40002A0FB0220A1F17F014FEAFE
:105270000040140401D000F1010050EA124001D4B2
:105280004000491EC2B20C0604EBD010401C40087E
:10529000802A02D003E0002010BD20F00100002988
:1052A00000DA0020184310BD30B480EA010202F099
:1052B000004530F0004221F0004015D0A0B1C0F30D
:1052C000C753C2F3C754C2F31601C0F31600E41A61
:1052D00041F4000140F400027D34914201D3641C8A
:1052E00000E04900002C02DA30BC002070474FF487
:1052F00000000023914201D3891A034340084FEA7A
:105300004101F7D151B1914202D14FF0004105E086
:1053100002D24FF0010101E06FF0010103EBC45034
:10532000284430BC00F0D2BA2DE9FE4F804681EA15
:105330000300C00F0C46009021F0004123F000450F
:10534000B8EB0200A94105D24046214690461C46D2
:105350000B46024623F00040104304D1404621464C
:1053600003B0BDE8F08F270DC7F30A00C3F30A515D
:105370000290401A0190402866DAC3F3130040F40B
:10538000801B0098924620B10023D2EB030A63EB06
:105390000B0B01985946C0F14002504600F065FAE7
:1053A00006460D4650465946019A00F07DFA10EB2C
:1053B00008006141002487EA115284EAE7731A4326
:1053C0003BD0009A3AB3019A012A4FEA075210DC07
:1053D000001B61EB02014FF0004202EA0752CDE9E7
:1053E0000042001C41F5801132462B4600F0B1FA14
:1053F000B6E7001B61EB0201001C41F580130018A9
:105400005B412018A2F5001747EB030140EAD57075
:10541000B6196D4111E06D084FEA360645EAC075D0
:105420004FEA0752001B61EB0201001C41F580119D
:1054300049084FEA30000019514132462B4603B06B
:10544000BDE8F04F00F078BA009801224000002338
:10545000D0EB020263EBE073009821464FEAE07460
:10546000B8EB000061EB0401E9E783F000435BE780
:1054700081F0004158E72DE9FE4F81EA030404F072
:10548000004421F0004100944FF0000B23F0004352
:1054900050EA010402D052EA030404D1002001467C
:1054A00003B0BDE8F08FC3F30A54C1F30A552C448E
:1054B000A4F2F3340194A0FB0254C1F3130141F4AC
:1054C0008011C3F3130343F4801301FB024400FB78
:1054D000034E840A970A44EA815447EA8357A4FB9F
:1054E000076802958D0A05FB07854FEA932C04FB9C
:1054F0000C542705029D4FEA065847EA1637B5EBCC
:1055000008056EEB070C870E920E47EA811742EAF8
:105510008312A7FB0201B6EB0B0164EB00042B0D19
:1055200043EA0C335E1844EB1C50DA465146E7FB65
:105530000201C5F313044FEA0B3343EA14534FEA55
:105540000432019C43EA0603A4F10C040294009C7B
:10555000CDE900B400F0FDF9A2E72DE9F04D81EAB4
:10556000030404F0004B21F0004514464FF0000AFC
:1055700023F0004150EA050220D054EA01021DD078
:10558000C5F30A570246C5F31303C1F31300C1F371
:105590000A5640F4801543F48013A7EB0608101B4D
:1055A000D64608F2FD3873EB050002D308F1010876
:1055B00001E092185B41B8F1000F03DA00200146C8
:1055C000BDE8F08D00204FF48011064684460EE0C1
:1055D000171B73EB050705D3121B63EB050306438B
:1055E0004CEA010C49084FEA300092185B4150EA3E
:1055F0000107EDD152EA030012D082EA040083EAE7
:105600000501084303D100224FF0004308E0101BBE
:10561000AB4102D20122002302E06FF001025310DD
:105620001AEB06004CEB085110EB0A0041EB0B01A2
:10563000BDE8F04D00F080B9C10F80EAE070084489
:10564000CA079623002100F04AB99623002211468A
:1056500000F045B90EB540F2334102910021CDE989
:1056600000110A460B4600F074F903B000BD00F0CB
:10567000004220F00040C10DC0F3160040F40000CD
:105680007F2901DA00207047962903DCC1F19601D9
:10569000C84001E096398840002AF4D04042704763
:1056A00020F00040C10DC0F3160040F400007F2937
:1056B00001DA00207047962903DCC1F19601C84049
:1056C000704796398840704770B5C1F30A5201F0AF
:1056D00000450024C1F3130140F2FF3341F480116F
:1056E0009A4201DA002070BD40F233439A42A2F29E
:1056F000334203DC524200F0C7F800E090402C43F4
:10570000F1D0404270BD00F0004230F000400AD0BD
:10571000C10D01F56071C0F3160042EA0151C208E3
:1057200040071143704700200146704730B50029FB
:1057300004DB4FF00044404264EB0101002B04DB2A
:105740004FF00044524264EB03038B4208BF824295
:1057500030BD000030B5002904DB4FF0004440426A
:1057600064EB0101002B04DB4FF00044524264EB78
:105770000303994208BF904230BD000001F000438E
:1057800030B421F0004150EA010206D00A0DA2F522
:105790006072C1F31301002A02DC30BC00207047A4
:1057A000440F44EAC104C100E01830BC00EBC25011
:1057B00000F08CB8002801DBC0F10040002901DBBB
:1057C000C1F1004181427047002801DBC0F1004077
:1057D000002901DBC1F100418842704730B50B461A
:1057E000014600202022012409E021FA02F59D4211
:1057F00005D303FA02F5491B04FA02F52844151EE5
:10580000A2F10102F1DC30BD2DE9F05F0546002078
:1058100092469B4688460646814640241BE0284621
:1058200041464746224600F02FF853465A46C01AD2
:10583000914110D311461846224600F016F82D1A51
:1058400067EB01084F4622460120002100F00DF8C9
:1058500017EB00094E41201EA4F10104DFDC48468D
:1058600031462A464346BDE8F09F202A04DB203A11
:1058700000FA02F1002070479140C2F1200320FAA3
:1058800003F3194390407047202A04DB203A21FAA1
:1058900002F00021704721FA02F3D040C2F1200249
:1058A0009140084319467047202A06DBCB17203A5F
:1058B00041FA02F043EAE07306E041FA02F3D04015
:1058C000C2F1200291400843194670470029A8BF41
:1058D0007047401C490008BF20F00100704710B419
:1058E000B0FA80FC00FA0CF050EA010404BF10BCCE
:1058F000704749B1CCF1200421FA04F411FA0CF1FB
:1059000018BF012121430843A3EB0C01CB1D010665
:10591000000A002BBEBF002010BC704700EBC35034
:1059200010440029A4BF10BC7047401C490008BFA8
:1059300020F0010010BC704710B5002B08DA401CA5
:1059400041F1000192185B411A4301D120F001009E
:1059500010BD2DE9F04D92469B4611B1B1FA81F28E
:1059600002E0B0FA80F220329046FFF77EFF044654
:105970000F4640EA0A0041EA0B0153465A460843E3
:1059800003D120463946BDE8F08D114653EA0100A7
:1059900015D0C8F140025046FFF776FF05460E4687
:1059A000504659464246FFF760FF084301D00120A8
:1059B00000E00020054346EAE0762C4337430A988E
:1059C0004FEA4453A0EB08004FEAD4240A304FF0CA
:1059D000000244EA47544FEAD72502D50020014689
:1059E000D1E7010510196941DDE908450019694150
:1059F000BDE8F04DA0E7C1F30A52C1F3130140F234
:105A0000FF3341F480119A4202DA002001467047C8
:105A100040F233439A42A2F2334202DC5242FFF791
:105A200033BFFFF722BF0000064C074D06E0E068D9
:105A300040F0010394E8070098471034AC42F6D3D5
:105A4000FFF77AFB90500108B050010882B02DE9B1
:105A5000FF1FEFF3038001B4684600F1400000E946
:105A600001400C480168C1F800D00B48D0F800D0C4
:105A700001BC80F30388BDE8FF1F01B000BD0648EC
:105A8000D0F800D001BC80F30388BDE8FF1F01B04F
:105A900000BD00004C0000204800002008B5012196
:105AA000084604F0F9FA01214FF4047004F014FBE5
:105AB0001020ADF8000000208DF803006946024870
:105AC00001F082FD08BD00000010014010B5044641
:105AD000FFF7E4FF204600F001F810BD10B590B0CC
:105AE0000446334800F0CEFB32480590069400206F
:105AF000079001200890002009900A904FF48070D0
:105B00000B9080000C9020200D9000020E90002041
:105B10000F9005A9264800F05BFC0121244800F005
:105B2000A5FB002000908DF8040001208DF80500F1
:105B30004FF4602002900020039001208DF81000A7
:105B400069461C484C3800F061F84FF4404004F0BE
:105B500097FA052301220E2116484C3800F07EF8F2
:105B6000012114484C3800F032F8012111484C381A
:105B700000F022F80F484C3800F0CCF800BF0D4878
:105B80004C3800F039F80028F9D10A484C3800F0B8
:105B9000D1F800BF07484C3800F024F80028F9D1AC
:105BA000012104484C3800F0BAF810B010BD0000D4
:105BB000080002404C24014021B1826842F00102F9
:105BC000826003E0826822F001028260704721B1A6
:105BD000826842F48072826003E0826822F48072FC
:105BE00082607047014600208A6812F0040F01D0DD
:105BF000012000E000207047014600208A6812F072
:105C0000080F01D0012000E00020704730B50246A7
:105C10000020002350680F4C20400D790C6844EAA6
:105C200005242043506090680B4C2040D1E9025479
:105C30002C434D7944EA450420439060D06A20F417
:105C400070000C7C641EE4B2234340EA0350D0622F
:105C500030BD0000FFFEF0FFFDF7F1FFF0B5044698
:105C60000D4600200021092D11DDE068A5F10A068E
:105C700006EB4607072606FA07F18843A5F10A0650
:105C800006EB460603FA06F10843E0600CE02069E3
:105C900005EB4507072606FA07F1884305EB45069D
:105CA00003FA06F108432061072A0FDA606B561EDB
:105CB00006EB86071F2606FA07F18843561E06EBF9
:105CC000860605FA06F10843606322E00D2A0FDA22
:105CD000206BD61F06EB86071F2606FA07F18843BE
:105CE000D61F06EB860605FA06F10843206310E08E
:105CF000E06AA2F10D0606EB86071F2606FA07F1F9
:105D00008843A2F10D0606EB860605FA06F1084364
:105D1000E062F0BD816841F008018160704721B107
:105D2000826842F4A002826003E0826822F4A0024A
:105D300082607047816841F0040181607047000013
:105D400010B50021074802F091FD044644B9052131
:105D500005A000F09DFD0121024802F087FD0446E8
:105D6000204610BD5C9D0020C5E4D6C3B2CECAFD5E
:105D7000C6ACC7F8D2BBB4EDCEF3000006E04FF4DA
:105D80007A7100BF0A00A1F10101FBD10200A0F16C
:105D90000100F4D170470146081100EB4000A1EB6F
:105DA0004000C0B27047000030B50246002441F602
:105DB0006F2316E0E01800EBD07569100B4830F83F
:105DC0002100904204D1094800EB8100408830BD99
:105DD000064830F82100904201DA4C1C00E04B1ECE
:105DE00000BF9C42E6DD0020F1E7000054E300081C
:105DF000F0B5034600201C460D46104603E014F89B
:105E0000016B05F8016B1600A2F10107BAB2F6D1D9
:105E1000F0BD30B5034601E003F8011B1400A2F108
:105E20000105AAB2F8D130BD00BFFEE72DE9F0416F
:105E300005460E46424802F0BFFEA84202DC0020A2
:105E4000BDE8F08105EB45003D4901EB80041422DB
:105E500031463C4807F067FB207A092833D008DC3C
:105E600002280FD0042837D0052823D0062863D174
:105E700016E00B280BD018284BD01A2856D01D2816
:105E80005AD12FE0606808B16068804754E030461E
:105E900001F0E6FF0746FFF703FC616808704BE07E
:105EA000304601F0DDFF0746FFF7E1FB40B26168D5
:105EB000087041E0304601F0D3FF0746FFF7F0FBE2
:105EC0006168088038E0304601F0CAFF0746FFF7F6
:105ED000E7FB616808602FE0304601F0C1FF6168B0
:105EE000086029E018A1304605F087F940B16068E4
:105EF0000068627A0121914008436168086007E008
:105F000060680068627A0121914088436168086096
:105F100012E00DA1304605F070F918B1012061685A
:105F2000087002E000206168087005E0627A30467F
:105F30006168FFF75DFF00BF00BF012080E7000040
:105F4000D4E10008004400405400000070B504464D
:105F50000D460A4802F030FEA04201DC002070BD70
:105F600004EB4400054A02EB8001284602F0F6FCEF
:105F7000284601F0D7FFC6B23046F0E7D4E100086A
:105F80000246002110E0505C392801DD012000E0CC
:105F90000020535C302B01DA012300E0002318437A
:105FA00001D000207047491C0B29ECDB0120F9E7E8
:105FB00002E0002200F8012B0A00A1F1010399B2CE
:105FC000F7D1704710B5002400F090F804E0601C91
:105FD000C4B2012000F038F8114801881148006867
:105FE00001F0BEFB08B1642CF1DB642C01DB012065
:105FF00010BD002404E0601CC4B2012000F024F8AD
:10600000074801880748006801F0AAFB08B9642C1A
:10601000F1DB642C01DB0120EAE70020E8E7000067
:106020008C00002090000020002107E042F6E06193
:1060300000BF0A00A1F1010399B2FAD10200A0F158
:10604000010398B2F2D17047002106E0072100BF9A
:106050000A00A1F1010399B2FAD10200A0F10103F3
:1060600098B2F3D1704700002DE9F04105460E4685
:106070002C784FF6FF7000EA04246878044314F487
:10608000004F0CD0E143491C41F40040FFF7D4FA23
:10609000074613493846FFF707F9074608E0204648
:1060A000FFF7D3FA07460E493846FFF7FDF80746D3
:1060B0000C493846FFF788FB02D24FF0010801E097
:1060C0004FF0000808493846FFF774FB01D2012061
:1060D00000E0002018EA000F00D03760BDE8F08132
:1060E0000000204100007AC40000F04208B50848D2
:1060F0000088ADF8000003208DF8020048208DF8DC
:10610000030069460348006801F05EFA08BD00001C
:106110008C0000209000002008B508480088ADF8E9
:10612000000003208DF8020010208DF8030069465E
:106130000348006801F048FA08BD00008C00002008
:10614000900000202DE9FC4105460E4600F074F851
:10615000FFF738FF10B10120BDE8FC81002405E005
:1061600000F05AF80DF80400601CC4B2052CF7DBEF
:106170009DF800009DF8011008449DF802100844A5
:106180009DF803100844C7B29DF80400B84201D03E
:106190000120E1E71DB131466846FFF765FF26B1F2
:1061A00029460DF10200FFF75FFF0020D4E7000051
:1061B00010B5002404E0601CC4B20120FFF744FFC6
:1061C000134801881348006801F0CAFA08B1642C2A
:1061D000F1DB002404E0601CC4B20120FFF734FFAF
:1061E0000B4801880B48006801F0BAFA08B9642C22
:1061F000F1DB2320FFF728FF0548018805480068E8
:1062000001F0AEFA08B1012010BD0020FCE700004B
:106210008C0000209000002070B50024002506E0CE
:106220006006040EFFF7C4FF0443681CC5B2082DC6
:10623000F6DB204670BD000010B5FFF76DFF094882
:1062400001880948006801F094FA0A20FFF7ECFE83
:10625000044801880448006801F08DFA5020FFF7D7
:10626000F3FE10BD8C0000209000002021B10268D8
:1062700042F00102026004E002684FF6FE731A4029
:106280000260704701684FF6FE7211400160002104
:10629000016041608160C1604B49884208D14A4930
:1062A0000839496841F00F01474A083A51608AE0CD
:1062B00045491431884208D143490839496841F0B9
:1062C000F001414A083A51607DE03F492831884257
:1062D00008D13D490839496841F470613A4A083AA1
:1062E000516070E038493C31884208D1364908395C
:1062F000496841F47041344A083A516063E03249D8
:106300005031884208D130490839496841F4702138
:106310002D4A083A516056E02B496431884208D131
:1063200029490839496841F47001274A083A5160FF
:1063300049E025497831884208D12349083949681C
:1063400041F07061204A083A51603CE01F498842A0
:1063500006D1011F096841F00F01021F116032E0F0
:106360001A491431884208D11849091F096841F0B7
:10637000F001164A121F116025E0144928318842A5
:1063800008D11249091F096841F470610F4A121FB0
:10639000116018E00D493C31884208D10B49091FB2
:1063A000096841F47041094A121F11600BE0074966
:1063B0005031884207D10549091F096841F470210D
:1063C000024A121F11607047080002400804024090
:1063D00010B50022026847F6F0739A430C6A8B6886
:1063E00023430C6923434C6923438C692343CC69C1
:1063F00023434C6A23438C6A23431A430260CB68CD
:1064000043600B6883604B68C36010BD08B5012111
:10641000082003F061FE0D480088ADF80000102050
:106420008DF8030003208DF80200694608480068D3
:1064300001F0CAF8054801880548006801F09BF999
:1064400000F0B2F900F006F808BD0000940000204A
:106450009800002010B5002400F0BEF804E0601C95
:10646000C4B2012000F028F81148018811480068E2
:1064700001F076F908B1C82CF1DBC82C01DB012052
:1064800010BD002404E0601CC4B2012000F014F828
:10649000074801880748006801F062F908B9F02C44
:1064A000F1DBF02C01DB0120EAE70020E8E7000047
:1064B0009400002098000020002106E0062100BF83
:1064C0000A00A1F1010399B2FAD10200A0F101037F
:1064D00098B2F3D1704700002DE9FE4F824600F0DC
:1064E00089F900F061F9FFF7B5FF044614B1012006
:1064F000BDE8FE8FCC2000F089F9BE2000F086F9BF
:10650000002405E000F0BEF80DF80400601CC4B2E1
:10651000092CF7DB0821684605F032FF04469DF898
:106520000800A04205D0052126A000F0B1F9002006
:10653000DEE79DF8010007281EDD9DF80100C0433D
:10654000C0B28DF801009DF80000C043C0B28DF8C4
:1065500000009DF801904FF6FF7000EA09299DF8B0
:10656000000040EA09094846FFF76FF80546002198
:10657000FEF761FE83460DE09DF801904FF6FF7037
:1065800000EA09299DF8000040EA09094846FFF79A
:106590005CF883465846FFF7B6F8074600220C4BD6
:1065A000FEF769FF0546FFF7E9F88346BAF1000FE9
:1065B00005D008495846FEF777FECAF800000020CB
:1065C00096E70000D0A3D1E9B4EDCEF300000000BF
:1065D0000000E43F0000204108B508480088ADF8FD
:1065E000000003208DF8020048208DF80300694662
:1065F0000348006800F0E8FF08BD00009400002098
:106600009800002008B508480088ADF80000032075
:106610008DF8020010208DF80300694603480068D9
:1066200000F0D2FF08BD0000940000209800002078
:1066300010B5FFF7E7FF114801881148006801F025
:1066400098F80220FFF738FF0C4801880C480068D2
:1066500001F091F8FFF7C0FF0520FFF72DFF074875
:1066600001880748006801F07BF808B1012400E0C8
:1066700000243220FFF720FF204610BD94000020A8
:106680009800002070B50026012508E0FFF7D0FF34
:106690000446E00140EA6600C6B2681CC5B2082D97
:1066A000F4DD304670BD000070B506460C4600258E
:1066B0003A4890F8B00010F0400F23D04FF400712A
:1066C000374800F0DBF821463046FFF73BFD78B154
:1066D00034480078401C33490870084600780A287E
:1066E0005ADD2E48006920F440702C49086153E0BF
:1066F00000202C4908702948006940F4407027495F
:10670000086149E04FF40071254800F069F830460F
:10671000FFF7E2FE05468DB122480078401C214972
:106720000870084600780A2811DDFFF76FFE1B4845
:10673000006920F480701949086108E000201949B7
:1067400008701648006940F48070144908614FF4DD
:106750008071134800F044F82046FFF7BDFE05465F
:106760008DB110484078401C0E494870084640786A
:106770000A2811DDFFF74AFE0848006920F400707E
:106780000649086108E0002006494870034800698E
:1067900040F400700149086170BD0000489D002070
:1067A000000C0140A500002010B5FFF72BFF0A48A0
:1067B00001880A48006800F0DCFF40F2EE20FFF795
:1067C0007BFE054801880548006800F0D4FF0F20D3
:1067D000FFF772FE10BD000094000020980000201A
:1067E000024A1060024A11807047000098000020A1
:1067F0009400002010B5FFF7D7FFFFF72BFECC2049
:1068000000F004F8442000F001F810BD70B5044613
:10681000FFF7F8FE01252AE004F00106641096B1A6
:10682000144801881448006800F0A3FF0220FFF715
:1068300043FE104801881048006800F09CFF3C208F
:10684000FFF73AFE11E00B4801880B48006800F0A2
:1068500090FF3C20FFF730FE06480188064800689C
:1068600000F089FF0220FFF727FE681CC5B2082D43
:10687000D2DD70BD9400002098000020024A106014
:10688000024A118070470000900000208C00002018
:106890000FB42DE9F04186B0002501260027B00293
:1068A00002F064F9044654480078FF2801D1012021
:1068B00000E0002050490978504A1278914201D1F5
:1068C000012100E0002108437DD00DA8059020465D
:1068D000059A0C9906F0A8FE002005900DA80590D9
:1068E00069460C9801F07DF906462AE02846691CA5
:1068F000CDB21DF80000012804D0022806D00328DC
:106900001AD115E0059880C8059019E00598C01DBA
:1069100020F007000590D0E90021DDF814C00CF14B
:10692000080C1046CDF814C0FEF7CEFE074607E06F
:10693000059880C8059003E0059880C8059000BFC1
:1069400000BF3000A6F10106D0D1059880C805909F
:10695000002005902A480078FF2801D1012000E09E
:10696000002027490978B94201DB012100E000211C
:10697000084338D0214623A004F01EFC22480078AA
:1069800010F0020F0DD02149087800F091FB40B1C2
:10699000204601F0C7FA8046424621461C4806F0D0
:1069A000C2FD1948007810F0040F0FD0174948783D
:1069B00000F07EFB50B1204601F0B4FA804642461A
:1069C0002146144800E011E006F0ADFD12480068D1
:1069D00048B1204601F0A6FA00F0FF0841462046E3
:1069E0000D4A12689047204602F09AF806B0BDE8BA
:1069F000F0015DF814FB0000780000205800002032
:106A00007A0000200D0A00007900002028000020F4
:106A100000380140004400407C000020FF20014974
:106A2000087070477800002002480078024908701A
:106A300070470000580000207800002001490870CD
:106A4000704700007900002001490870704700007D
:106A50007A000020704701460A2091FBF0F000EB1D
:106A6000400001EB4000C0B27047000010B50020AC
:106A70001A4908704FF4A07002F078F818490860BD
:106A8000002406E0FF201749085517490855601CE7
:106A9000C4B2052CF6DB00241DE000201049096873
:106AA00001EB4411486103200D49096801EB4411D1
:106AB000087200200A49096801EB4411086108497D
:106AC000096801EB4411C8600549096801EB4411EC
:106AD0008861601CC4B20A2CDFDB10BD6C00002092
:106AE00070000020280000202D00002038B5002470
:106AF00054E02C48006800EB4410006800284BD09C
:106B00002848006800EB4410C079012806D002280C
:106B100020D0032813D0042832D126E0032000908F
:106B20002048006800EB4410C3691E48006800EB71
:106B30004410214602681CA0FFF7AAFE2BE019486A
:106B4000006800EB44100323214602681CA0FFF7F5
:106B50009FFE20E01348006800EB44100323214609
:106B6000026817A0FFF794FE15E00E48006800EBDE
:106B7000441003232146026811A0FFF789FE0AE0B2
:106B80000848006800EB44100323214602680CA06B
:106B9000FFF77EFE00BF00BF601CC4B20A2CA8DB5A
:106BA00038BD0000700000204465766963655B2590
:106BB000645D4E616D653A25735B25645D00000080
:106BC0004465766963655B25645D4E616D653A2554
:106BD000730000002D4908602D4909782D4A117075
:106BE0002B490978491C2A4A11702A4909782A4AEE
:106BF0001268284B1B7802EB4312117127A1264A19
:106C00001268244B1B7802EB431211600021224AC8
:106C10001268204B1B7802EB4312517102211E4A6D
:106C200012681C4B1B7802EB4312D17101211A4AE6
:106C30001268184B1B7802EB43121172184A16495E
:106C40000968144B1B7801EB43114A61124909682A
:106C5000104A127801EB4211C86100220E490968FE
:106C60000C4B1B7801EB4311CA6000210A4A1268E1
:106C7000084B1B7802EB43121161074A1268054B5F
:106C80001B7802EB4312916170470000BC000020AA
:106C90006C0000208400002070000020494F00009C
:106CA000DD7600082C4909782C4A11702A490978A8
:106CB000491C294A117029490978294A1268274B29
:106CC0001B7802EB4312117126A1254A1268234B4F
:106CD0001B7802EB431211600021214A12681F4BFE
:106CE0001B7802EB4312517104221D4909681B4BAA
:106CF0001B7801EB4311CA71012219490968174B2E
:106D00001B7801EB43110A721849154A1268134B9C
:106D10001B7802EB43125161114909680F4A12783E
:106D200001EB4211C86100220D4909680B4B1B7829
:106D300001EB4311CA600021094A1268074B1B7816
:106D400002EB43121161002205490968034B1B78CD
:106D500001EB43118A6170476C000020A200002003
:106D60007000002049534C3132303800058600084D
:106D700070B50546284606F079FA04465F48005D7E
:106D8000FF2808D15E4800785C4908555C480078C7
:106D9000401C5B4908705BA05849095D5B4A12685A
:106DA00002EB4111086000205449095D574A1268FE
:106DB00002EB4111487101205049095D534A1268A4
:106DC00002EB4111C87103204C49095D4F4A12681A
:106DD00002EB411108724E484849095D4B4A12685E
:106DE00002EB411148614548005D4849096801EBE3
:106DF0004010C46147494148005D444A126802EBB3
:106E00004010C16044483D49095D404A126802EBA8
:106E10004111086100213948005D3C4A126802EBCB
:106E20004010816100203D4921F814004FF4967014
:106E300001F09CFE3A4941F82400284606F016FA73
:106E400004463848005DFF2808D12D4800783549B0
:106E500008552B480078401C2949087032A0314958
:106E6000095D2A4A126802EB4111086000202D4991
:106E7000095D264A126802EB411148710121294837
:106E8000005D224A126802EB4010C17103202549BF
:106E9000095D1E4A126802EB411108721C49214823
:106EA000005D1A4A126802EB401041611D48005D06
:106EB0001649096801EB4010C46116481949095D7B
:106EC000124A126802EB4111C86013481549095D66
:106ED0000E4A126802EB4111086100201149095D58
:106EE0000A4A126802EB411188614FF4967001F072
:106EF0003DFE0F4941F8240070BD00002D00002028
:106F00006C00002055534152527800007000002060
:106F1000FDCF0008F5D4000815D40008F4000020C7
:106F2000CC00002028000020555341525478000026
:106F3000E00000202848007828490870264800789A
:106F4000401C2549087026A027490968234A127861
:106F500001EB421108600020234909681F4A12789A
:106F600001EB4211487103201F4909681B4A12783E
:106F700001EB4211C87101211B480068174A1278C1
:106F800000EB42100172194817490968134A127838
:106F900001EB421148610021134800680F4A127842
:106FA00000EB4210C16112490F4800680B4A127889
:106FB00000EB4210C1600F490B480068074A127885
:106FC00000EB42100161002007490968034A12786A
:106FD00001EB4211886170476C000020A000002086
:106FE000573235513136000070000020DDA700080F
:106FF00015D6000801D6000810B5032124A0FFF71C
:1070000047FC002441E02948006800EB4410406937
:10701000C8B32648006800EB4410C079012806D0A8
:10702000022817D003280ED004282BD11EE01F4AB7
:10703000126802EB4412107F1C4A126802EB4412E1
:10704000516988471EE01949096801EB44114869F4
:10705000804717E0154A126802EB4412D069134AC0
:10706000126802EB4412516988470BE00F4A12681C
:1070700002EB4412D0690D4A126802EB44125169C6
:10708000884700BF00BF601CC4B20A2CBBDB10BD28
:10709000546F732044657669636520496E69742E68
:1070A0002E2E2E2E2E2E2E2E2E00000070000020B2
:1070B0000146FF2901D1002070470548006800EB18
:1070C0004110406908B90020F6E70120F4E700000C
:1070D00070000020012000F003F801F009FC00001E
:1070E00001490860704700001404014030B50446AF
:1070F00004254FF4302000F06FF80546042D17D119
:107100000C48006940F002000A49086108464461E1
:10711000006940F0400008614FF4302000F05CF856
:1071200005460448006941F6FD71084001490861BF
:10713000284630BD0020024004200B49C96811F0E8
:10714000010F01D001200EE00749C96811F0040FBA
:1071500001D0022007E00449C96811F0100F01D0E6
:10716000032000E00420704700200240034800692B
:1071700040F0800001490861704700000020024093
:1071800070B504460D460426F00200F025F80646C8
:10719000042E11D10948006940F001000749086137
:1071A0002580F00200F018F806460448006941F610
:1071B000FE71084001490861304670BD0020024060
:1071C0000248034948600348486070472301674507
:1071D00000200240AB89EFCD00B502460423FFF743
:1071E000ABFF034603E0FFF7A7FF0346521E012B48
:1071F00001D1002AF7D102B90523184600BD2DE9B7
:10720000F84F82460D4617464FF0000800200090C8
:107210008146504600F086FE00F0FF0BBBF1000FE8
:1072200035D00020287000262FE01AF80640302CB8
:1072300001DB012000E00020392C01DC012100E00D
:10724000002108402E2C01D1012100E0002108433B
:1072500009D04F4504D14046411C01F0FF082C5491
:10726000012000900FE0009868B14F4505D1002241
:107270004046411C01F0FF082A540020009009F10B
:10728000010000F0FF09701CC6B25E45CDDB404630
:10729000BDE8F88F2DE9F84F82460D4617464FF0AE
:1072A0000008002000908146504600F03BFE00F0B0
:1072B000FF0BBBF1000F3BD000202870002635E00B
:1072C0001AF80640302C01DB012000E00020392CA8
:1072D00001DC012100E0002108420BD1462C01DC39
:1072E000012000E00020412C01DB012100E0002111
:1072F000084209D04F4504D14046411C01F0FF0827
:107300002C54012000900FE0009868B14F4505D142
:1073100000224046411C01F0FF082A540020009042
:1073200009F1010000F0FF09701CC6B25E45C7DB21
:107330004046BDE8F88F2DE9F84F82460C461746C7
:107340004FF00008002000908146504600F0EAFD12
:1073500000F0FF0BBBF1000F2FD0002020700025A4
:1073600029E01AF80560302E01DB012000E0002042
:10737000392E01DC012100E00021084209D04F45EF
:1073800004D14046411C01F0FF0826540120009022
:107390000FE0009868B14F4505D100224046411CDE
:1073A00001F0FF0822540020009009F1010000F0D4
:1073B000FF09681CC5B25D45D3DB4046BDE8F88FC8
:1073C0002DE9F05F80460C460027BA46BB46404692
:1073D00000F0A8FD00F0FF09B9F1000F20D0002057
:1073E000207000251AE018F805603A2E01D14FF000
:1073F000010BBBF1000F0FD0222E06D1BAF1000F06
:1074000000D00EE04FF0010A06E0BAF1000F03D001
:107410003846791CCFB22654681CC5B24D45E2DB14
:1074200000BF00223846791CCFB222543846BDE84E
:10743000F09F70B50B46044603E014F8015B03F8B7
:10744000015B1500A2F10106B2B2F6D170BD2DE9C3
:10745000F0470646884614460027C146FFF7B0FEAF
:107460002046E11704EBD151C1F34F27E11704EB9C
:10747000D1514912B4EB412101D0781C87B20025CB
:1074800007E04FF4007101FB0760FFF72FFE681C57
:1074900085B2BD42F5DB002508E039F8021B2A461B
:1074A0006B1C9DB206EB4200FFF76AFE2000A4F1C0
:1074B00001018CB2F1D1FFF759FEBDE8F08701461A
:1074C0000A461068704713B50246042301A903E079
:1074D00011F8010B02F8010B1800A3F10104E3B24B
:1074E000F6D104201CBD70B504460025107820B1EB
:1074F00016782068B0FBF6F085B22068084420605A
:107500001078984203DA1078401C107002E020686E
:10751000401B206016782068B0FBF6F080B270BD8A
:107520000FB438B5044606A800902046009A059985
:1075300006F07AF80020009038BC5DF814FB30B5F6
:1075400003460C46002514E01878802806DA13F864
:10755000010B24F8020B681C85B20AE059781A78EE
:1075600041EA022000F01AF820809B1CA81C85B27A
:10757000A41C18780028E7D1284630BD30B5ADF5F9
:10758000017D04460D4601A92046FFF7D8FF294694
:1075900001A800F0E9FC0DF5017D30BD024641F681
:1075A0006F210AE0074800EB81004088904203D138
:1075B000044830F821007047491E0029F2D100200C
:1075C000F9E7000054E300082DE9F04102460025E8
:1075D0000026002000230024002791F803C00CF0AF
:1075E0000F0591F803C01CF0100F03D091F802C0F2
:1075F0004CEA050591F800C0BCF1000F31D01468C9
:1076000000202BE04FF0010C0CFA00F3B1F800C0A1
:107610000CEA03069E4220D183004FF00F0C0CFAB7
:1076200003F7BC4305FA03FC4CEA040491F803C0D9
:10763000BCF1280F06D14FF0010C0CFA00FCC2F887
:1076400014C00AE091F803C0BCF1480F05D14FF017
:10765000010C0CFA00FCC2F810C0401C0828D1D361
:107660001460B1F800C0BCF1FF0F34DD5468002095
:107670002EE000F1080C4FF0010808FA0CF3B1F805
:1076800000C00CEA03069E4221D183004FF00F0C8C
:107690000CFA03F7BC4305FA03FC4CEA040491F826
:1076A00003C0BCF1280F05D100F1080C08FA0CF852
:1076B000C2F8148091F803C0BCF1480F07D100F163
:1076C000080C4FF0010808FA0CF8C2F81080401CB2
:1076D0000828CED35460BDE8F081000038B50446D8
:1076E00036E01D4A6068811A904217D009DC1B49B8
:1076F00040180DD0B0F5806F0CD0B0F5006F13D1ED
:107700000AE0B1F5806F0BD0B1F5006F0CD109E044
:10771000042509E0082507E0102505E0202503E001
:10772000402501E0802500BF00BF45F00100012198
:1077300002F0D2FC20788DF802002089ADF800001C
:1077400060788DF8030069466068FFF73DFF0C34F0
:1077500020780028C5D138BD0014014000F8FEBFD4
:107760000246002093680B4201D0012000E0002077
:107770007047416170470161704700002DE9F04199
:1077800004460D4601271DE012494FF496724868E1
:107790000021FEF73EFB2B46322200210E4805F069
:1077A00051FEC6B276B10B48052241680BA0FFF727
:1077B0006FF808494868214603F01FFD10B1012009
:1077C000BDE8F0813800A7F10101CFB2DCD100BFE4
:1077D000F6E70000CC00002000440040B7B5BBD85D
:1077E0003A25730D0A0000002DE9F04104460D46CC
:1077F000012725E016494FF4967248680021FEF7EC
:1078000008FB2B4632220021124805F01BFEC6B2AF
:1078100096B10F48052241680FA0FFF739F80C49CF
:1078200048682146FDF7A0FC10B10120BDE8F081B9
:107830004FF47A7004F0B4FF4FF47A7004F0B0FFA4
:107840003800A7F10101CFB2D4D100BFEEE70000AC
:10785000CC00002000440040B7B5BBD83A25730DDA
:107860000A0000002DE9F04104460F4615464FF08E
:10787000010825E017494FF4967248680021FEF789
:10788000C8FA2B4632220021134805F0DBFDC6B2B0
:10789000B6B110480522416810A0FEF7F9FF0D4966
:1078A0004868214603F0A9FC10B10120BDE8F08131
:1078B00008494868394603F0A0FC08B10120F5E703
:1078C0005FEA0800A8F1010101F0FF08D2D100BF72
:1078D000ECE70000CC00002000440040B7B5BBD866
:1078E0003A25730D0A0000000246114623E008788D
:1078F0002E281FD111F8010C302801DB012000E0F7
:10790000002011F8013C392B01DC012300E00023A9
:1079100018420FD04878302801DB012000E0002019
:107920004B78392B01DC012300E00023184201D001
:1079300001207047491C08780028D8D100BFF8E71B
:1079400070B504460D4616460A233246294620469F
:1079500000F002F870BD00002DE9F04105460C462C
:1079600016461F4637E029461E4805F0ECFD1E4925
:107970004FF4967248680021FEF74BFA33463222E4
:107980000021184805F05EFD00F0FF08B8F1000F77
:107990001DD015480522416814A0FEF779FF207814
:1079A000212808D110494868611CFDF7DDFB50B95A
:1079B0000120BDE8F0810C4948682146FDF7D4FB61
:1079C00008B10120F5E74FF47A7004F0E9FE4FF4B6
:1079D0007A7004F0E5FE3800A7F10101CFB2C2D100
:1079E00000BFE6E700440040CC000020B7B5BBD89C
:1079F00025730D0A0000000070B50446002500BF85
:107A00002846691CCDB2052801DD032070BD052183
:107A10001EA0FEF73DFF2048006920F010001E491F
:107A200008612046FFF760FF40B14FF47A721BA156
:107A30001BA0FFF785FF50B90120E7E74FF47A72EA
:107A400016A11BA0FFF77CFF08B90120DEE74FF469
:107A50007A7004F0A5FE2146194805F074FD042251
:107A600018A11CA000F0A6F800B9C9E74FF4FA600D
:107A700004F096FE05211AA0FEF70AFF06480069E9
:107A800040F01000044908610020BFE7C1ACBDD33D
:107A9000B7FECEF1C6F70000489D00204F4B000016
:107AA00041542B5149444E5349503D300D0A00007A
:107AB00041542B5149444E5349503D310D0A000069
:107AC00000440040414C524541445920434F4E4EE2
:107AD00045435400434F4E4E454354204F4B000006
:107AE000C1ACBDD3B3C9B9A60000000070B505464E
:107AF000012622E014494FF4967248680021FEF7EF
:107B000088F92B4632220021104805F09BFCC4B2B4
:107B10009CB10D4948680EA1FDF726FB28B105214F
:107B20000DA0FEF7B5FE002070BD07482246416853
:107B30000CA001F003FB0120F6E73000A6F10101E3
:107B4000CEB2D7D100BFEFE7CC0000200044004008
:107B5000434C4F5345440000C1ACBDD3B1BBB9D871
:107B6000B1D50000BDD3CAD53A00000070B50446B7
:107B7000012610E023464FF496720021094805F0D3
:107B800061FCC5B23DB108480522416807A0FEF777
:107B90007FFE012070BD3000A6F10101CEB2E9D117
:107BA00000BFF7E700440040CC000020523A2573A4
:107BB000000000002DE9F04106460F46144600255E
:107BC0000BE04FF47A7239463046FFF74BFE10B1A6
:107BD0000120BDE8F081681CC5B2A542F1DB0020A0
:107BE000F7E7F0B504460A460023002000252146A9
:107BF00033E00E78252E02D10125461CB0B2012DAE
:107C00002AD10E78642E06D1AC461E465F1CBBB24C
:107C100002F806C000250E78662E07D14FF0020C40
:107C20001E465F1CBBB202F806C000250E78732EFC
:107C300007D14FF0030C1E465F1CBBB202F806C012
:107C400000250E78632E07D14FF0040C1E465F1CF2
:107C5000BBB202F806C00025491C0E78002EC8D120
:107C6000F0BD00002DE9FE4305460F4600261C48E6
:107C7000006800901A48001D0068029018480830FB
:107C80000068019000241BE014E05DF824003E2110
:107C9000B0FBF1F201FB1208404604F03BFB314619
:107CA000721CD6B268545DF824003E21B0FBF1F09E
:107CB0004DF824005DF824000028E6D1601CC4B211
:107CC000032CE1DB0F26384604F024FB3246761CF9
:107CD000A85400223146761C6A543046BDE8FE8323
:107CE000E8F7FF1FFEB5054600261948006800901A
:107CF0001748001D00680290154808300068019080
:107D000000241BE014E05DF824003E21B0FBF1F2FA
:107D100001FB1207384604F0FDFA3146721CD6B258
:107D200068545DF824003E21B0FBF1F04DF82400CA
:107D30005DF824000028E6D1601CC4B2032CE1DB0E
:107D400000223046711CCEB22A543046FEBD0000DF
:107D5000E8F7FF1F014600200A78302A01DB0122E4
:107D600000E000220B78392B01DC012300E0002326
:107D70001A4203D00A781207100E24E00A78412A2A
:107D800001DB012200E000220B78462B01DC0123FD
:107D900000E000231A4204D00A78D21F1207100E06
:107DA00011E00A78612A01DB012200E000220B7851
:107DB000662B01DC012300E000231A4203D00A787D
:107DC000D21F1207100E4A78302A01DB012200E090
:107DD00000224B78392B01DC012300E000231A42FA
:107DE00004D04A78303A0244D0B224E04A78412A9A
:107DF00001DB012200E000224B78462B01DC01234D
:107E000000E000231A4204D04A78373A0244D0B244
:107E100011E04A78612A01DB012200E000224B7860
:107E2000662B01DC012300E000231A4203D04A78CC
:107E3000573A0244D0B270470FB438B5044606A88A
:107E400000902046009A059905F0EEFB0020009076
:107E5000204600F067F8C0B238BC5DF814FB0000A3
:107E60002DE9FC5F05460026B346B1464FF07E5A29
:107E700044E015F8014B2D2C01D101263EE02E2CBB
:107E800002D14FF0010B39E0302C2EDB392C2CDCE9
:107E9000BBF1000F0ED11F494846FDF7CFF98146CF
:107EA000A4F13000FDF7C8FB07464946FDF76EF91F
:107EB000814623E05046FDF726FC0746164A174B3D
:107EC000FDF7D9FACDE90001FDF758FC8246A4F18F
:107ED0003000FDF7B1FB80465146FDF7AFF907468C
:107EE0004946FDF753F9814608E026B10C4948465A
:107EF000FDF7A4F981464846BDE8FC9F2878002894
:107F0000B7DC26B106494846FDF798F98146484650
:107F1000F2E70000000020419A9999999999B93F98
:107F2000000080BF10B5014600200A4601E0431C56
:107F300098B212F8014B002CF9D110BD002000219D
:107F40000CE001EB4102074B1B6803EB02121289A4
:107F5000012A01D0421CD0B24A1CD1B21429F0DB54
:107F6000704700006000002070B504460E460025F2
:107F700007E02288701905A1FFF75EFF284485B24B
:107F8000A41C20880028F4D1284670BD2530347800
:107F9000000000000246002039B950784FF6FF7308
:107FA00003EA00201378184306E010784FF6FF73B9
:107FB00003EA0020537818437047000001490888FD
:107FC00070470000E0F7FF1F10B504462AA12046C5
:107FD00003F013F908B1012010BD28A1204603F0D9
:107FE0000CF908B10220F7E725A1204603F005F9B6
:107FF00008B10320F0E723A1204603F0FEF808B102
:108000000420E9E720A1204603F0F7F808B1052095
:10801000E2E71EA1204603F0F0F808B10620DBE7F6
:108020001BA1204603F0E9F808B10720D4E719A105
:10803000204603F0E2F808B10820CDE716A120465B
:1080400003F0DBF808B10920C6E714A1204603F0CD
:10805000D4F808B10A20BFE711A1204603F0CDF8FB
:1080600008B10B20B8E70FA1204603F0C6F808B10D
:108070000C20B1E70120AFE74A616E00466562005F
:108080004D617200417072004D6179004A756E0059
:108090004A756C0041756700536570004F6374004A
:1080A0004E6F76004465630070B5054600242919BB
:1080B00001220DA0FFF73FF92044C4B20AA0FFF748
:1080C00083FF0646281932460AA1FFF7B5FE204471
:1080D000C4B22919002204A0FFF72DF92044C4B22C
:1080E00000202855204670BD4A756C20313520325D
:1080F000303136002D253032642D000010B586B0A9
:10810000002414E004EB4401002202EBC100182219
:10811000694605F06BFA0098401C00D108E0601C2D
:10812000C4B2012004F03CFBFF2C00DB00E0E9E7D7
:1081300000BF0522214603A0FEF7AAFB204606B099
:1081400010BD0000B4F2D3A1BCC7C2BCCBF7D2FDB6
:108150002564000001E000F0CBFBFCE770B50446AD
:108160000D46002620E040211148FFF702FB0320C6
:1081700000F020F814F0800F04D020210C48FFF705
:10818000FAFA03E020210A48FFF7F3FA032000F08F
:1081900011F840210648FFF7EEFA6006040E0120B0
:1081A00000F008F8701CC6B2AE42DCDB70BD000007
:1081B0000010014000EB400188B200BF0100A0F1B7
:1081C000010290B2FAD1704770B504460D4605F031
:1081D0000F01204600F00EF82911621CD0B200F009
:1081E00009F8204604EBD0714910014A555470BD7E
:1081F000489E002070B504460D4680210C48FFF7CC
:10820000B8FA0320FFF7D6FF0321A020FFF7A6FF4F
:10821000A106080E0621FFF7A1FF2907080E042179
:10822000FFF79CFF80210248FFF7A5FA70BD000010
:108230000010014010B504460120A0470320A047CC
:1082400010BD2DE9FF47074616461C46DDE90C899F
:108250009DF804004006000E0190002C16DD384603
:1082600000F0C0F8012201A9384600F076F8054672
:1082700035B93846FFF7DEFF002004B0BDE8F087CF
:1082800022463146384600F068F80546384600F088
:10829000A9F89DF8040040F001000190012201A915
:1082A000384600F05AF805464A464146384600F03E
:1082B00006F80546384600F0ACF82846DDE72DE91B
:1082C000F04704460E461546A94628E04FF0000840
:1082D000002714E07806070E0320A0470A2005F0C7
:1082E0001BFE0520A04708B147F001070420A04766
:1082F0000A2005F011FE08F1010000F0FF08B8F1B6
:10830000080FE7DB06F8017B002D04DD0021204685
:1083100000F00DF803E00121204600F008F82800E5
:10832000A5F10101CDB2D1D14846BDE8F08770B5C5
:1083300004460D4615B10120A04701E00220A047E8
:108340000320A0470A2005F0E7FD0420A0470A20EB
:1083500005F0E2FD0120A04770BD2DE9F04704467D
:108360000E461546A94639E016F8018B002717E09E
:1083700018F0800F02D00120A04701E00220A047A2
:108380000320A0470A2005F0C7FD0420A0470A20CB
:1083900005F0C2FD781CC7B24FEA48604FEA10688A
:1083A000082FE5DB0120A0470320A0470A2005F0A5
:1083B000B3FD0520A04782460A2005F0ADFD04204C
:1083C000A0470A2005F0A8FDBAF1000F04D0A9EBE0
:1083D0000500C0B2BDE8F087681EC5B2002DC3D14C
:1083E0004846F7E710B504460320A047052005F0EE
:1083F00093FD0120A0470A2005F08EFD0220A04732
:108400000A2005F089FD0420A0470A2005F084FD1C
:1084100010BD10B504460220A047142005F07CFDD5
:108420000320A0470A2005F077FD0120A0471E2069
:1084300005F072FD10BD2DE9FF47074614461D46A5
:10844000DDE90C899DF804004006000E01903846D5
:10845000FFF7C8FF012201A93846FFF77EFF064655
:1084600036B93846FFF7E6FE002004B0BDE8F087D5
:108470002A4621463846FFF770FF06464A464146DF
:108480003846FFF76AFF06463846FFF7C2FF304618
:10849000EBE7000070B504460D4685B104EB4402DD
:1084A0000F4B1B6803EB8202118904EB44020C4B57
:1084B0001B6803EB82025068FFF75DF90FE004EBE5
:1084C0004402074B1B6803EB8202118904EB440250
:1084D000034B1B6803EB82025068FFF74AF970BD3B
:1084E000BC0000202DE9F041054609492846FCF76B
:1084F000A5FE0746FDF7D4F886B2A6F561703221D5
:1085000090FBF1F0C4B284F020042046BDE8F08175
:10851000000048437CB5044607226946002000F06D
:10852000D1F805460DB900207CBD9DF8001001F082
:108530007F00FDF730FCA0719DF8011001F07F0075
:10854000FDF729FC60719DF8021001F03F00FDF776
:1085500022FC20719DF8031001F03F00FDF71BFC89
:10856000A0709DF8041001F01F00FDF714FC60706E
:108570009DF80500FDF70FFC20709DF80600FDF743
:108580000AFCE0700120CFE770B504460025062CF8
:1085900033D2DFE804F032030C151E27184A1268A4
:1085A0001189174A12685068FFF7E5F825E0144A68
:1085B00012681189124A12685068FFF7DAF81CE055
:1085C0000F4A1268918A0E4A12681069FFF7D3F8B1
:1085D00013E00B4A1268918A094A12681069FFF782
:1085E000C8F80AE0064A12681189054A12685068FC
:1085F000FFF7B6F800B1012500BF00BF284670BDE7
:10860000C400002038B5054600242C4805600068E9
:10861000FFF764F801226946122000F053F804467F
:108620009DF800005D2847D01021072000F0DAF8FF
:1086300004409021082000F0D5F804402048FFF7BE
:1086400051FF00909DF800100A2000F0CBF8044084
:1086500000210B2000F0C6F804405D21122000F03C
:10866000C1F8044000231A461946184600F03AF8AB
:1086700004400021084600F0B5F804400021012024
:1086800000F0B0F804408021022000F0ABF8044074
:108690000121032000F0A6F804400121042000F08D
:1086A000A1F804400021052000F09CF804400621B8
:1086B000084600F097F80440204638BDC40000206A
:1086C0000000C04037B582B00C461546012302AA0F
:1086D0006F210348CDE90045FFF7B3FD05B030BD7C
:1086E000898500082DE9F84381460F4690461C46CF
:1086F00001264046FEF7AFF98DF800003846FEF738
:10870000AAF98DF801004846FEF7A5F98DF8020098
:1087100014F0010F05D09DF8000040F080008DF8A6
:10872000000014F0020F05D09DF8010040F0800019
:108730008DF8010014F0040F05D09DF8020040F000
:1087400080008DF80200002509E01DF8051005F1F4
:108750000C02D0B200F046F80640681CC5B2032DEA
:10876000F3DB002C05DDD021082000F03BF80640AB
:1087700004E09021082000F035F806403046BDE8BE
:10878000F8837CB50446A079FEF765F98DF8000002
:108790006079FEF760F98DF801002079FEF75BF94A
:1087A00040F080008DF80200A078FEF754F98DF8B3
:1087B00003006078FEF74FF98DF804002078FEF78B
:1087C0004AF98DF80500002507E01DF80510E8B20C
:1087D00000F008F80640681CC5B2072DF5DB3046EE
:1087E0007CBD000003B583B0012004A9034603AAA1
:1087F000CDE900106F210248FFF71DFE05B000BD56
:108800008985000810B545F2555000F029F806207A
:1088100000F01AF84FF47F6000F01CF800F00CF83C
:1088200000F002F810BD00004CF6CC400149086091
:1088300070470000003000404AF6AA200149086055
:108840007047000000300040014948607047000058
:10885000003000400149886070470000003000404F
:1088600001490860704700000030004070B50446C0
:108870000D462B4622460249024800F005F870BD1D
:1088800000F80308337400082DE9F04707468846CE
:1088900014461D46A14608EBC52004222146B847D0
:1088A0004E463088B0F5006F01DD012000E0002069
:1088B0003188042901DA012100E00021084300D0B9
:1088C00013E0328808EBC5202146B8473088001FE6
:1088D00081B209F1040003F033FD824671885145ED
:1088E00000D002E00120BDE8F0870020FBE7000097
:1088F00071B600BF0648006800F4E060054908430F
:10890000001D03490860BFF3408F00BF00BFFEE7B2
:108910000CED00E00000FA0510B5052106A0FDF7FA
:10892000B7FF08A10B4804F00EFE4FF47A710AA0BD
:10893000FEF724FF10BD0000C9BEB3FDCFFBCFA2E0
:108940000000000041542B434D47443D312C340D71
:108950000A000000004400404F4B0000F0B59DB0FD
:1089600005460C46607A48B1627A04A96068FDF752
:108970003FFA0020617A04AA505403E004A9606819
:1089800002F008FC207A0D2839D009DC75D2DFE826
:1089900000F0AC10ACAC231C63ACAC42AC152F00A7
:1089A00017380728F2D2DFE800F03D46A030748285
:1089B0005F0028462168FEF7B3FD9BE060680278FF
:1089C00028462168FEF7ACFD94E0606802882846DE
:1089D0002168FEF7A5FD8DE061680868FCF793FE4D
:1089E00006460B46324628462168FEF799FD81E08F
:1089F0006068027828462168FEF792FD7AE02846F2
:108A0000D4E90012FEF78CFD74E004AA2846216820
:108A1000FEF786FD6EE06068026828462168FEF772
:108A20007FFD67E060688047064632462846216839
:108A3000FEF776FD5EE060680078002801DD012029
:108A400000E0002000EB40002C4B03EB40022846E6
:108A50002168FEF765FD4DE0606890F9002028462A
:108A60002168FEF75DFD45E060680068667A0123D5
:108A7000B340184202D0012001E036E0002000EBB4
:108A800040001E4B03EB400228462168FEF748FDDC
:108A900030E06068007861684978CDE9001060686E
:108AA0008378C27828462168FEF73AFD22E06168A3
:108AB000098888B202F008FE03906168098888B2CC
:108AC00002F002FE02906168098888B202F0FCFDA3
:108AD00001909DF80E0000909DF809309DF804204B
:108AE00028462168FEF71CFD04E028462168FEF7B1
:108AF00017FD00BF00BF1DB0F0BD0000C8E10008B9
:108B000000BFFEE7054A1168486802E009684A6844
:108B100010440A68002AF9D1704700007400002050
:108B200002460A4B1868002106E0A2F108038342BE
:108B300000D107E0014600680368002BF5D101B1C0
:108B40000B60704703680B6000BFFAE774000020F9
:108B5000054908600021044A126811600821024A90
:108B600012685160704700007400002010B5034681
:108B70001048016803F1080083B20FE00868401A4A
:108B80004C68001B984208D3486842185360086834
:108B900010600A6002F1080010BD0968086800282A
:108BA000ECD1486842180020106053600A6002F15E
:108BB0000800F1E774000020014600200A4602E0A8
:108BC0000C32431CD8B2137A002BF9D1704730B560
:108BD000039C7E2505707F25057382704170C373E9
:108BE000447330BD2DE9F05F06460C4691469A4627
:108BF000DDF828B00C9F002584F8039084F804A0C9
:108C000084F808B0678117B1F81CE08001E000200B
:108C1000E08022782846691C8DB23254E07B50B93E
:108C2000A2782846691C8DB2325462782846691CA5
:108C30008DB232540CE0E07B012809D162782846DD
:108C4000691C8DB23254A2782846691C8DB2325408
:108C5000E2782846691C8DB2325422792846691C74
:108C60008DB23254E08802122846691C8DB232540B
:108C7000A2792846691C8DB23254BFB1227A2846A7
:108C8000691C8DB23254608902122846691C8DB26B
:108C90003254A27A2846691C8DB232546289711905
:108CA0000B98FDF7A5F86089284485B2607B012800
:108CB00010D12946304603F043FB80464FEA282274
:108CC0002846691C8DB232542846691C8DB206F8BC
:108CD00000800BE0607B022808D1681E81B230461C
:108CE00003F06AFB29466A1C95B27054227B284621
:108CF000691C8DB232542846BDE8F09F2DE9F05F23
:108D000006468B4614460025AA460120A073294634
:108D10006D1C705C2178884200D099E0E07B50B9EE
:108D20002846691C8DB2305C6178884200D093E09F
:108D3000681C85B220E0E07B01281DD12846691C13
:108D40008DB216F80080A078404501D0012000E0E7
:108D50000020B8F1FF0F01D0012100E000210842FE
:108D600000D079E0681C85B2B8F1FF0F02D14FF056
:108D7000010901E04FF000092846691C8DB2305C02
:108D8000E0702846691C8DB2305C20712846691C51
:108D90008DB2305CE080E0884FF6FF7101EA002080
:108DA000E080E08829466A1C95B2715C0843E08047
:108DB000E08800B32846691C8DB2305C20722846DA
:108DC000691C8DB2305C608160894FF6FF7101EAE9
:108DD00000206081608929466A1C95B2715C084355
:108DE0006081AA466089284485B2E1886089C01CF8
:108DF000814200D034E0607B022809D12946304608
:108E000003F0DAFA0746715DB94200D01CE010E0C9
:108E1000607B01280CD12946304603F091FA0746C1
:108E200070190121FFF7B6F8B84200D00CE000E05D
:108E300000BFB9F1010F02D10620A07301E00020AC
:108E4000A0735046BDE8F09F0220A0730020F9E710
:108E50000520A0730020F5E70620A0730020F1E7AD
:108E60000120A0730020EDE77047000070B50021DD
:108E700000230F22C4780CB3164C246804F4E06479
:108E8000C4F5E064210AC1F10403CA40447804FA3D
:108E900003F184781440214309010F4C0678A15551
:108EA000047804F01F050124AC4005786D114FF0E3
:108EB000E02606EB8505C5F8004109E0047804F0DA
:108EC0001F050124AC40054D0678761145F8264073
:108ED00070BD00000CED00E000E400E080E100E087
:108EE00002490143024A1160704700000000FA0580
:108EF0000CED00E0024A0A400243024B1A60704740
:108F000080FFFF1F08ED00E010B588B00022694621
:108F10000BA000F043FA044674B16846FDF730F840
:108F200050B10522694609A0FDF7B2FC0B220C499D
:108F30000DF10200FCF75CFF204608B010BD0000F8
:108F400041542B435343413F0D0A0000B6CCD0C5DA
:108F5000D6D0D0C4BAC5C2EB3A5B25735D00000021
:108F6000249E00207047000010B5032209A10BA029
:108F7000FDF78EFC03220DA110A0FDF789FC032252
:108F8000124913A0FDF784FC0322164916A0FDF731
:108F90007FFC10BD54503530322D5400426F617249
:108FA000645F4E616D653A257300000053544D3384
:108FB000324C313531524254360000004350555F37
:108FC0004D6F64656C3A25730000000000127A0052
:108FD0004370755F4F53435F465245513A202564B5
:108FE0004D687A0000A24A044370755F467265714D
:108FF0003A2025644D687A007047000000B585B0BE
:109000006846FEF76FFE0322694602A0FDF740FCAA
:1090100005B000BD4F6E6C7949443A2573000000DD
:109020007047000010B5032108A0FDF731FCFFF7E1
:109030009BFFFFF7E1FFFFF7E1FFFDF757FD00F0B2
:1090400013F8FFF7EDFF00F02FF810BD0A546F730F
:109050002053797374656D2053746172742E2E2EB3
:109060002E2E2E2E2E2E2E0010B5FEF767FF044654
:1090700003232246142102A0FDF70AFC10BD0000C4
:109080005461736B506F6F6C53697A653A25642035
:1090900062757420686173202564207461736B208D
:1090A0006372656174652E0038B500241DE004EB21
:1090B00044001549096801EB0010C06A98B103200B
:1090C000009004EB44001049096801EB0010038C88
:1090D00004EB44000C49096801EB00102146C26A08
:1090E0000AA0FDF7D5FB601CC4B2142CDFDB601EA8
:1090F000C4B2FFF707FD054603232A4649F640415F
:1091000007A0FDF7C5FB38BD600000205461736BFC
:109110005B25645D4E616D653A25732825642900E1
:109120004D656D6F727953697A653A256420627571
:109130007420757365723A25640000002DE9F041D2
:1091400005460E4617460522294608A0FDF7A0FB56
:10915000002407E0325D0523214605A0FDF798FBBA
:10916000601C84B2BC42F5DBBDE8F08125730000D1
:109170004275665B25645D3D30782578000000000F
:1091800010B500F03BFB04462CB10522214606A099
:10919000FDF77EFB03E0052108A0FDF779FB4FF406
:1091A000FA6003F0FDFA10BDB7A2CBCDC5E4D6C37B
:1091B000D6A1CAA7B0DC5B25645D0000B7A2CBCD09
:1091C000C5E4D6C3D6A14F4B0000000000B599B04E
:1091D0000948B0F8AA3000F1890208A16846FEF7F4
:1091E0009FF9052269460CA0FDF752FB6846FEF781
:1091F00003FC19B000BD0000489D002041542B51D4
:10920000494F50454E3D22544350222C2225732273
:109210002C25640D0A000000C1ACBDD3B5BD3A25B4
:109220007300000010B54FF47A7229A129A0FEF74F
:1092300087FB08B9012010BD00F096F8284981F895
:10924000CE00052127A0FDF723FB052128A0FDF76F
:109250001FFB4FF47A7229A129A0FEF771FB0223AC
:109260004FF47A7229A126A0FEF776FB20B90521DA
:1092700027A0FDF70DFB03E0052127A0FDF708FB64
:1092800002234FF47A7226A127A0FEF765FB40B1B6
:10929000052128A0FDF7FCFA0220114981F8CF0032
:1092A0000FE002234FF47A7226A11FA0FEF754FBB1
:1092B00038B1052125A0FDF7EBFA0420084981F813
:1092C000CF00052125A0FDF7E3FA0020B3E7000059
:1092D0002139390041542B4353510D0A000000003D
:1092E000489D0020BCECB2E9D0C5BAC50000000022
:1092F000D5FDD4DAD7A2B2E10000000030000000B2
:1093000041542B435245473F0D0A000035000000F1
:10931000B1BEB5D8BFA80000CDE2B5D8BFA8000047
:109320004D4F42494C45000041542B434F50533F51
:109330000D0A0000D6D0B9FAD2C6B6AF53494DBF18
:10934000A8000000554E49434F4D0000D6D0B9FA51
:10935000C1AACDA853494DBFA8000000D7A2B2E1D1
:10936000B3C9B9A60000000008B5694605A000F021
:109370006FF89DF80010052205A0FDF789FA9DF809
:10938000000008BD41542B4353510D0A000000005A
:10939000D0C5BAC5C7BFB6C83A2564002DE9F84F95
:1093A00082460C4617464FF0000800200090814688
:1093B0005146254804F0C7F824494FF4967248688E
:1093C0000021FCF726FD4FF47A73322200211E485B
:1093D00004F038F800F0FF0BBBF1000F30D0002094
:1093E000207000252AE019484068465D302E01DBD8
:1093F000012000E00020392E01DC012100E00021E5
:10940000084209D04F4504D14046411C01F0FF08F5
:109410002654012000900FE0009868B14F4505D117
:1094200000224046411C01F0FF0822540020009019
:1094300009F1010000F0FF09681CC5B25D45D2DBEF
:109440004046BDE8F88F000000440040CC000020FA
:109450002DE9F04780460C460025AA4641462348A0
:1094600004F071F822494FF4967248680021FCF725
:10947000D0FC4FF47A73322200211C4803F0E2FF43
:1094800000F0FF09B9F1000F2CD000202070002659
:1094900026E017484068875D302F01DB012000E09F
:1094A0000020392F01DC012100E0002108420DD00D
:1094B000605D00EB80004006000E6055615DA7F125
:1094C0003000084460554FF0010A07E0BAF1000F80
:1094D00004D0681CC5B2002060558246701CC6B21C
:1094E0004E45D6DB2846BDE8F0870000004400402A
:1094F000CC00002010B508213F48FEF73CF93F485A
:10950000006920F020003D49086140F24C4003F022
:1095100047F905213AA0FDF7BBF908213648FEF7C7
:1095200028F940F24C4003F03BF904213248FEF7A1
:1095300022F940F24C4003F033F9052133A0FDF746
:10954000A7F904212C48FEF714F94FF47A7003F0C0
:1095500027F94FF480713048FEF702F9012804D151
:1095600005212EA0FDF794F901E0012010BD43F282
:10957000B06003F015F94FF47A722BA12BA0FEF71F
:10958000DFF908B90220F1E705212AA0FDF780F9EB
:109590004FF47A7003F004F94FF4FA6222A129A083
:1095A000FEF7CEF908B90320E0E7052127A0FDF773
:1095B0006FF94FF47A721CA127A0FEF7C1F908B920
:1095C0000420D3E70D48006940F020000B490861F2
:1095D000052124A0FDF75CF9FFF724FE04462CB119
:1095E0000522214623A0FDF753F903E0052125A01C
:1095F000FDF74EF90020B9E700100140489D00201A
:1096000047505253C9CFB5E70000000047505253AE
:10961000BFAABBFA0000000000080140BFAABBFAC5
:10962000B3C9B9A6000000004F4B000041540D0A19
:10963000000000004154D6B8C1EED6B4D0D0B3C9B2
:10964000B9A60000415445300D0A0000C9E8D6C350
:10965000B2BBBBD8CFD4000041542B4350494E3F3E
:109660000D0A0000B2E9BFB4CAC7B7F1D3D0504960
:109670004E000000C1ACBDD3CDF8CAA7B0DC5B255D
:10968000645D0000C1ACBDD3CDF8C2E7B3C9B9A6D3
:109690000000000010B504464FF47A7003F080F823
:1096A0004FF47A7220A122A0FEF74AF908B90120EE
:1096B00010BD8CB94FF47A7224A125A0FEF740F9B1
:1096C00008B90220F4E74FF47A7220A123A0FEF734
:1096D00037F908B90420EBE7012C11D14FF47A7265
:1096E0001AA123A0FEF72CF908B90320E0E74FF4F4
:1096F0007A7216A119A0FEF723F908B90420D7E75A
:109700004FF47A7211A11DA0FEF71AF908B90520CD
:10971000CEE74FF47A720DA11EA0FEF711F908B939
:109720000620C5E70020C3E743504D53000000006A
:1097300041542B43504D533D224D54222C224D5425
:10974000222C224D54220D0A000000004F4B000035
:1097500041542B434D47463D300D0A0041542B43A5
:109760005343533D2255435332220D0A000000005B
:1097700041542B434D47463D310D0A0041542B4384
:10978000534D503D31372C3136372C302C380D0AA3
:109790000000000041542B434E4D493D322C312CEA
:1097A000302C302C300D0A0070B504460D494FF4B2
:1097B000967248680021FCF72CFB21460A4803F00A
:1097C000C2FE4FF47A734FF496720021064803F0FC
:1097D00039FEC5B22DB103480522416803A0FDF74B
:1097E00057F870BDCC00002000440040B6C1B6CC94
:1097F000D0C5B7B5BBD83A257300000010B5B2B0DC
:1098000000243A4890F8B00010F0200F44D0052111
:1098100037A0FDF73DF840F6B83002F0C1FF0DEB80
:109820000401102231485130FCF7E2FA204484B29E
:109830000522214632A0FDF72BF8224634A13848F4
:1098400003F081FE4FF4FA6136A0FDF7CDFF00B1C1
:109850000EE04FF4FA6133A0FDF7C6FF00B107E058
:109860004FF4FA612FA0FDF7BFFF00B100E000BF89
:10987000224669462A4803F056FE4FF47A712AA020
:10988000FDF7B2FF10B9022032B010BD4FF4FA60FC
:10989000FEF72CF90020F7E7052125A0FCF7F8FFDB
:1098A0000DEB0401102211485130FCF7A1FA2044BD
:1098B00084B2224616A11A4803F045FE4FF47A708E
:1098C00002F06EFF052269461DA0FCF7E1FF22466B
:1098D0006946134803F027FE4FF47A7112A0FDF792
:1098E00083FF08B90220CFE70020CDE7489D002084
:1098F000C5E4D6C3CEAA4A2D544350D0ADD2E90018
:10990000B7A2CBCDC5E4D6C35B25645D00000000E3
:1099100041542B514953454E443D25640D0A0000E6
:10992000004400403E00000053454E44204F4B0091
:10993000C5E4D6C3CEAA544350D0ADD2E90000004E
:10994000B7A2CBCDC5E4D6C33A2573002DE9F047C5
:10995000ADF5007D0024824890F8B00010F0200F93
:1099600076D003A908197FA1FEF766FA204484B2D5
:109970007B490868FBF7C7FE05460B4603A9081993
:109980002A467DA1FEF758FA204484B274494868FB
:10999000FBF7B9FE05460B4603A908192A4676A12E
:1099A000FEF74AFA204484B26D498868FBF7ABFEA3
:1099B00005460B4603A908192A466FA1FEF73CFA93
:1099C000204484B2664991F8CE00FBF73EFE07467C
:1099D000FBF799FE05460B4603A908192A4666A11E
:1099E000FEF72AFA204484B25D49D1F8D400FBF78F
:1099F0008AFE05460E465A49D1F8D800FBF783FE89
:109A000007460B4603A908193A465FA1CDE900565F
:109A1000FEF712FA204484B203A9081960A1FEF7E8
:109A20000BFA204484B2052203A95EA0FCF730FFA4
:109A300022465FA1624803F086FD4FF4FA6161A0FF
:109A4000FDF7D2FE28B901200DF5007DBDE8F087B5
:109A500011E0224603A95A4803F065FD4FF47A71DC
:109A600059A0FDF7C1FE08B90220EDE74FF4FA60F6
:109A7000FEF73CF871E03A4908680021FBF7A4FEC4
:109A800002D84FF02B0901E04FF02D093449486806
:109A90000021FBF799FE02D84FF02B0A01E04FF0AE
:109AA0002D0A2F490868FBF72EFE4A46CDE9000132
:109AB00047A103A8FEF7C0F90446294A1168506877
:109AC000FBF778FE0BD226494868FBF71CFE52468E
:109AD000CDE900013EA103A8FEF7AEF904462048F7
:109AE000008A10F4807F0CD01D490868FBF70BFE3C
:109AF0004A46CDE9000136A103A8FEF79DF90446C8
:109B000010E01748008A10F4007F0BD01449486811
:109B1000FBF7F9FD5246CDE900012DA103A8FEF7A0
:109B20008BF90446224622A1254803F00CFD4FF490
:109B30007A7002F035FE052203A91AA0FCF7A8FEF0
:109B4000224603A91E4803F0EEFC4FF47A711EA0D2
:109B5000FDF74AFE08B9022076E7002074E700000E
:109B6000489D00207B2273656E736F72446174613F
:109B700073223A5B000000007B2276616C756522DF
:109B80003A252E32667D2C007B226C6174223A25A8
:109B90002E37662C226C6E67223A252E37667D00A2
:109BA0005D7D0000B7A2CBCDCAFDBEDD3A257300B6
:109BB00041542B514953454E443D25640D0A000044
:109BC000004400403E00000053454E44204F4B00EF
:109BD0002354503330302C256330252E31662C3001
:109BE0002E30300D0A00000030B5B3B0002500243F
:109BF00000BF3C4890F8B00010F0200F54D024B9BA
:109C000039A101A801F094FC0546012C04D138A12A
:109C100001A801F08DFC0546022C04D138A101A851
:109C200001F086FC0546032C04D138A101A801F0FF
:109C30007FFC0546042C04D137A101A801F078FC73
:109C40000546632C04D137A101A801F0DBFC0546D1
:109C5000052201A936A0FCF71BFE2A4636A13A4888
:109C600003F071FC4FF4FA6138A0FDF7BDFD10B9A7
:109C7000012033B030BD2A4601A9334803F053FC1C
:109C80004FF47A7132A0FDF7AFFD08B90220F0E77A
:109C90004FF4FA60FDF76AFF08B90020E9E701F028
:109CA00017FB0446DCB1A4E701A92BA001F072FA6E
:109CB00005462A4620A1244803F045FC4FF47A705B
:109CC00002F06EFD2A4601A91F4803F02CFC4FF458
:109CD0007A711FA0FDF788FD08B90220C9E70020AE
:109CE000C7E70000489D002065646974000000001B
:109CF000616C61726D5F6D6F62696C650000000080
:109D0000616C61726D5F76616C756500757365720B
:109D10005F67726F75700000666F727363656E6562
:109D2000000000002265646974223A22302200009B
:109D3000B7A2CBCD3A25730041542B514953454E20
:109D4000443D25640D0A0000004400403E00000030
:109D500053454E44204F4B0030303030000000005F
:109D600070B5EAB006460024002500BF022C02DDD3
:109D700028466AB070BD2146621CD4B201EB410294
:109D800002EBC1021F4950180B2265A9FCF730F8FD
:109D900000208DF89F0165A8FCF7F2F800B9E5E70F
:109DA0000120FFF777FC01A965A8FDF7E7FB00207C
:109DB0008DF8300001AA14A1174803F0C4FB052256
:109DC00065A916A0FCF764FD4FF47A7002F0E8FC78
:109DD00001A93046FDF7D2FB3046FEF7A3F801A9F2
:109DE000002201F820200C4803F0ADFB1A210A489C
:109DF00003F090FB4FF47A710BA0FDF7F5FC681CA3
:109E0000C5B2B3E7789D002041542B434D47533DE5
:109E1000222573220D0A000000440040B7A2CBCDDA
:109E2000B5BD5B25735D0000434D47530000000046
:109E30002DE9F043CDB0012257A102A8FDF7FCFFA8
:109E400002A8FFF7B1FC5849486858A101F0D5F9BC
:109E50008146002202A94846FDF71CFA02A902A881
:109E600001F032F902A8FEF75DF8022806DA0521B2
:109E70004FA0FCF70DFD4DB0BDE8F083052202A90F
:109E80004EA0FCF705FD02A8FEF74CF80B2806DAF9
:109E9000FEF742FD05214BA0FCF7FAFCEBE74EA1D3
:109EA000484601F0AAF98146002202A94846FDF77A
:109EB000F1F902A902A801F007F9052202A94BA0B5
:109EC000FCF7E6FC4BA102A801F097F9C0B1FEF740
:109ED00023FD49494868FBF716FC05460E464649EE
:109EE0000868FBF710FC07463A460B4643A102A858
:109EF000CDE90056FDF7A0FF02A8FFF731FFBAE752
:109F000043A102A801F079F918B1FEF705FDFEF7AB
:109F1000EFFC40A102A801F070F970B1FEF7FCFC63
:109F20003DA227A102A8FDF787FF0446002002A951
:109F3000085502A8FFF714FF9DE73CA102A801F015
:109F40005CF970B1FEF7E8FC39A21DA102A8FDF78B
:109F500073FF0446002002A9085502A8FFF700FF7E
:109F600089E738A102A801F048F970B1FEF7D4FCE6
:109F700035A213A102A8FDF75FFF0446002002A945
:109F8000085502A8FFF7ECFE75E7FEF7C5FC33A005
:109F9000FFF7E6FE00BF6EE741542B434D47523DAD
:109FA00025640D0A00000000CC000020222C2200B5
:109FB000DFE3D3D0D0C2CFFBCFA200004E756D3A05
:109FC00025730000B2BBCAC7C8CBB7A2B5C4D6B10F
:109FD000BDD3C9BE000000003030343330303444CB
:109FE0003030343430303341000000004D73673A74
:109FF0002573000030310000489D00204348313D6A
:10A00000252E32662C4348323A252E326600000057
:10A010003032000030330000D4DDB2BBD6A7B3D657
:10A020005B30335DD6B8C1EE000000003034000074
:10A03000D4DDB2BBD6A7B3D65B30345DD6B8C1EEA3
:10A040000000000030350000D4DDB2BBD6A7B3D687
:10A050005B30355DD6B8C1EE00000000434D443A98
:10A06000303128D2A3B2E2292C434D443A30322871
:10A07000D6D8C6F4292CC6E4CBFB3AB0EFD6FA000A
:10A0800001460020034A506820F4404008435060D5
:10A09000704700000010024029B1064A526902438D
:10A0A000044B5A6104E0034A52698243014B5A61EE
:10A0B000704700000010024029B1064AD2690243ED
:10A0C000044BDA6104E0034AD2698243014BDA614E
:10A0D000704700000010024029B1064A926902430D
:10A0E000044B9A6104E0034A92698243014B9A61EE
:10A0F000704700000010024030B50021002200240B
:10A1000000232D4D6D6805F00C0121B1042905D007
:10A11000082923D105E0294D056022E0274D05607F
:10A120001FE0254D6D6805F47012234D6D6805F430
:10A130008034022505EB92421CB9214D5543056040
:10A140000BE01D4D6D6815F4003F03D01C4D5543C9
:10A15000056002E0194D5543056002E0174D0560AA
:10A1600000BF00BF144D6D6805F0F0010909154DE1
:10A170006B5C0568DD4045600F4D6D6805F4E0617E
:10A18000090A104D6B5C4568DD4085600A4D6D68BD
:10A1900005F46051C90A0B4D6B5C4568DD40C56034
:10A1A000054D6D6805F44041890B074D6B5CC56832
:10A1B000B5FBF3F5056130BD0010024000127A00D6
:10A1C00000093D00000000201000002000B599B0FB
:10A1D00040F2DC5307A20BA16846FDF7A1F9052266
:10A1E00069460FA0FCF754FB6846FDF705FC19B063
:10A1F00000BD00006C696E6B2E746C696E6B2E690D
:10A200006F00000041542B51494F50454E3D2254A0
:10A210004350222C222573222C25640D0A000000B5
:10A22000C1ACBDD3B5BD3A257300000010B59AB0DE
:10A23000002401A9081915A1FDF7FEFD044405221B
:10A2400001A917A0FCF724FB224618A11B4803F024
:10A250007AF94FF4FA611AA0FDF7C6FA10B9012095
:10A260001AB010BD224601A9144803F05CF94FF45E
:10A270007A7114A0FDF7B8FA08B90220F0E74FF49C
:10A28000FA60FDF733FC0020EAE700003132333496
:10A290003536373839313233343541420000000029
:10A2A000B7A2CBCDCDB73A257300000041542B5156
:10A2B0004953454E443D25640D0A000000440040CA
:10A2C0003E00000053454E44204F4B0030B5D7B000
:10A2D000002500BF00240CA9081971A1FDF7ACFDF1
:10A2E00004440CA908196FA1FDF7A6FD04440CA9AC
:10A2F000081970A1FDF7A0FD04440CA9081979A163
:10A30000FDF79AFD0444E9B202A8FDF7ABFC0CA9E5
:10A31000081902AA77A1FDF78FFD04440CA90819BA
:10A3200079A1FDF789FD044400200CA900900819CB
:10A33000042303227AA1FDF77FFD04440CA9081928
:10A340007EA1FDF779FD044407A8FDF7ADFE0CA939
:10A35000081907AA7FA1FDF76FFD204484B20CA95C
:10A36000081984A287A1FDF767FD204484B2052265
:10A370000CA989A0FCF78CFA22468AA18D4803F02B
:10A38000E2F84FF4FA618CA0FDF72EFA10B9012023
:10A3900057B030BD22460CA9864803F0C4F84FF4EC
:10A3A0007A7186A0FDF720FA08B90220F0E74FF491
:10A3B000FA60FDF79BFB83484068007830281AD18B
:10A3C000804840684078312815D1052229467EA072
:10A3D000FCF75EFA681C85B2052229467FA0FCF7CF
:10A3E00057FA3C2D06DD0522294681A0FCF750FADC
:10A3F000E8B2CDE76EE773484068007830284DD169
:10A40000704840684078302848D1052229467EA00F
:10A41000FCF73EFA0121814880F8B41040F25B71EC
:10A42000A0F8AA107E4981617E49C1617C49016220
:10A430007C4941623C2180F8B510052180F8B610B6
:10A44000D0F8B00040F020017448C0F8B01000F11E
:10A45000890175A000F09EFE7049613175A000F081
:10A4600099FE0B226D49303174A0FBF7C1FC6B499A
:10A47000753175A000F08EFE00216848C0F8B81054
:10A48000C0F8BC10102200F1510102A8FBF7B0FC8B
:10A4900001F0E6FD01F0CAF9002079E71AE70000B3
:10A4A0007B000000226D6574686F64223A223122BD
:10A4B0002C00000022656E745F6B6579223A22667B
:10A4C00037363231356661643337643461356661FD
:10A4D00066316336366134366464663530666422CC
:10A4E0002C000000226465766963655F6964223A26
:10A4F00022222C00226465766963655F6E6F223AC2
:10A50000222573222C000000226465766963655F52
:10A510006E616D65223A22CEC2CAAAB6C8222C004C
:10A520002268775F76657273696F6E223A222564BE
:10A530002E25642E2564222C0000000022646576FE
:10A540005F6D6F6465223A2254503530322D5422AB
:10A550002C000000226372656174655F646174653C
:10A56000223A2225732030383A34333A3030222CC4
:10A570000000000053544D33324C313531524254B7
:10A5800036000000226D63755F6D6F6465223A22AC
:10A590002573227D00000000B7A2CBCDC4DAC8DD50
:10A5A0002573000041542B514953454E443D2564C9
:10A5B0000D0A0000004400403E00000053454E4498
:10A5C000204F4B00CC000020C9E8B1B8D7A2B2E1BF
:10A5D000CAA7B0DC5B25645D00000000D4D9B4CE0E
:10A5E000B3A2CAD4D7A2B2E15B25645D000000002B
:10A5F000B7FECEF1C6F7CAFDBEDDBFE2B4EDCEF3C5
:10A600005B25645D00000000C9E8B1B8D7A2B2E1E3
:10A61000B3C9B9A65B25645D00000000489D002019
:10A6200000008442000080BF746C696E6B2E696FFD
:10A6300000000000CDD8C6D5C8F000003133323656
:10A640003732313632343700CBABCEC20000000097
:10A6500021B1028842F04002028004E002884FF6F5
:10A66000BF731A400280704770B505460C46164607
:10A6700010211048FDF77DF8032000F05DF9C4F3C8
:10A68000074000F059F9C4F3072000F055F9E0B293
:10A6900000F052F904E0FF2000F04EF928706D1C24
:10A6A0003000A6F101018EB2F5D110210148FDF76D
:10A6B00062F870BD000801402DE9F05F07460E46C4
:10A6C00014464FF00008C146C2460025AB4606F0CE
:10A6D000FF0ACAF10000C5B22046E11704EB115190
:10A6E000C1F30738E11704EB11510913A4EB013151
:10A6F00001F0FF09BAF1000F20D1B8F1000F05D128
:10A7000022463146384600F0C5F864E009E04FF4CF
:10A7100080523146384600F0BDF806F5805607F500
:10A7200080575FEA0800A8F1010101F0FF08EED1AF
:10A730004A463146384600F0ADF84CE0B8F1000F1B
:10A7400018D1A94510DDA9EB050000F0FF0B2A4642
:10A750003146384600F09EF82E442F445A46314682
:10A76000384600F097F836E022463146384600F089
:10A7700091F830E0601B84B22046E11704EB1151E0
:10A780004FEA2138E11704EB11510913A4EB013111
:10A7900001F0FF092A463146384600F07BF82E4486
:10A7A0002F4409E04FF480523146384600F072F8E9
:10A7B00006F5805607F580575FEA0800A8F1010109
:10A7C00001F0FF08EED1B9F1000F04D04A4631463E
:10A7D000384600F05FF8BDE8F09F000000B587B094
:10A7E00001212420FFF778FC01210803FFF774FC06
:10A7F0002020ADF8040003208DF8060018208DF805
:10A80000070001A92148FCF7DFFE4020ADF8040055
:10A8100001A91E48FCF7D8FE8020ADF8040001A96C
:10A820001A48FCF7D1FE1020ADF804008DF807009F
:10A8300001A91648FCF7C8FE10211448FCF79BFF3D
:10A840000020ADF808004FF48270ADF80A00002037
:10A85000ADF80C000220ADF80E000120ADF810009C
:10A860004002ADF812003820ADF814000020ADF819
:10A8700016000720ADF8180002A9054800F0AEF850
:10A8800001210348FFF7E4FE07B000BD00080140C6
:10A890000030014070B505460C46164600F080F8C1
:10A8A00010211348FCF765FF022000F045F8C4F3BF
:10A8B000074000F041F8C4F3072000F03DF8E0B293
:10A8C00000F03AF8B6F5805F01DD4FF4805603E002
:10A8D000287800F031F86D1C3000A6F101018EB22D
:10A8E000F6D110210248FCF746FF00F041F870BD98
:10A8F0000008014010B5044600F052F800F038F8A6
:10A9000010210C48FCF735FF202000F015F8C4F3A7
:10A91000074000F011F8C4F3072000F00DF8E0B292
:10A9200000F00AF810210348FCF725FF00F020F89A
:10A9300010BD00000008014010B5044600BF022110
:10A940000A4800F03DF80028F9D02146074800F0F9
:10A9500043F800BF0121054800F032F80028F9D083
:10A96000024800F036F8C0B210BD000000300140CF
:10A9700010B5002410210948FCF7FBFE0520FFF765
:10A98000DBFF00BFFF20FFF7D7FF044614F0010FE5
:10A99000F8D110210148FCF7EEFE10BD000801407F
:10A9A00010B510210548FCF7E4FE0620FFF7C4FFB0
:10A9B00010210248FCF7DFFE10BD00000008014036
:10A9C0000246002013890B4201D0012000E0002044
:10A9D00070470146888970478181704710B5002211
:10A9E00002880D4B1A400B884C8823438C882343E4
:10A9F000CC8823430C8923434C8923438C892343EC
:10AA0000CC8923431A430280838B4FF2FF74234087
:10AA100083830B8A038210BDFFFEF0FF70470000A6
:10AA200070B504460D462B4622460249024800F006
:10AA300005F870BD00F803084F7400082DE9F047D1
:10AA40008046894614461F4625462E463088001FFC
:10AA500081B2201D01F074FC7080328809EBC720A0
:10AA60002946C047BDE8F087BAB0064637463846A3
:10AA700002F0FCFB0120034605220146009004A8D9
:10AA8000FEF7A5F873E2FE4908683221FBF790FA59
:10AA9000002332221946384602F0D4FC0546F84914
:10AAA00004AA08682946FEF729F90546ECB29DF884
:10AAB0001E00002871D19DF8130034286ED017DCD9
:10AAC00006282FD005DC6AD2DFE800F07058765EE9
:10AAD0006A7C0A2838D006DC072829D008282DD01F
